:100000000C946B000C94820C0C94820C0C94820C5B
:100010000C94820C0C94820C0C94820C0C94820C28
:100020000C94820C0C94820C0C94820C0C94820C18
:100030000C94820C0C94820C0C94820C0C94820C08
:100040000C94820C0C94820C0C94820C0C94820CF8
:100050000C94820C0C945F050C94820C0C94820C12
:100060000C94820C0C94820C050A090A0D0A110AE0
:10007000150A190A1D0A210A250A290A05A84CCDC4
:10008000B2D44EB93836A9020C50B9918688083CD2
:10009000A6AAAA2ABE000000803F0100010800199C
:1000A0000801080110800110011400191001140149
:1000B00018800118011C001914011C012A80012A52
:1000C000012C001918012C012E80012E0134001979
:1000D0001A013401368011241FBECFEFD8E0DEBFF5
:1000E000CDBFEAE9F0E040E017C0B591A5913591A8
:1000F0002591059107FD0CC095918591EF01F92F90
:10010000E82F05900D92A217B307D9F7FE0104C09E
:100110001D92A217B307E1F7E63DF40731F70E94FD
:0A01200095000C949300F894FFCFB3
:10012A008FEF8AB984B917B818B815B8F8940E942D
:10013A00220C78940E94180C0E942B0C0E94CC0965
:10014A0081E090E00E94500385B18F7B85B985B12B
:10015A00806885B922C0329B20C0ECE7F0E080813C
:10016A008160808302C00E94320C339BFCCF02C0A4
:10017A000E940B0C349BFCCF80912A0190912B0199
:10018A000E94500380911E0190911F010E94BB089A
:10019A00ECE7F0E080818E7F8083349BDCCF809116
:1001AA002C0190912D019695879596958795809328
:1001BA00350160912E0170912F01072E000C880BDA
:1001CA00990B0E9423092091140130911501409145
:1001DA001601509117010E947B0C60930C017093D9
:1001EA000D0180930E0190930F0180912A01909145
:1001FA002B0103979CF480911E0190911F01019796
:10020A000A9728F010921D0110921C011AC081E071
:10021A0090E090931D0180931C0113C080911E01F0
:10022A0090911F0108978934910528F010921D01B9
:10023A0010921C0106C081E090E090931D0180930A
:10024A001C0180911C0190911D01892B69F48091F8
:10025A001E0190911F010E94BB0885B18F7B85B951
:10026A0085B1806885B9EEC185B18F7785B985B1C9
:10027A00806485B9C0912A01D0912B01C130D10582
:10028A0009F04AC0609135016695E62EF12C60911D
:10029A0010017091110180911201909113019B013B
:1002AA00AC010E943A0C4B015C0160912E017091E5
:1002BA002F01072E000C880B990B0E942309A50118
:1002CA0094010E947B0C20911401309115014091F8
:1002DA001601509117010E947B0C0E946D0C4B0174
:1002EA005C01B701FF0C880B990B0E942309A50139
:1002FA0094010E947B0C6B017C016091330170E0D8
:10030A0080E090E00E942309A70196010E943A0C1E
:10031A000E948B0A60933401C230D10509F057C09C
:10032A006091100170911101809112019091130155
:10033A009B01AC010E943A0C2091140130911501E5
:10034A0040911601509117010E947B0C6B017C01B0
:10035A0090913501969520912E0130912F01929F0F
:10036A00A001939F500D1124CA016FEF70E00E9403
:10037A00A60B620F731F072E000C880B990B0E94A5
:10038A0023099B01AC01C701B6010E947B0C0E94A4
:10039A006D0C6B017C016091320170E080E090E0AD
:1003AA000E942309A70196010E947B0C6B017C0124
:1003BA006091330170E080E090E00E942309A70178
:1003CA0096010E943A0C0E948B0A60933401C33052
:1003DA00D10509F051C0609135016A3028F4809145
:1003EA0033018093340148C06695E62EF12C609162
:1003FA0010017091110180911201909113019B01DA
:10040A00AC010E943A0C4B015C0160912E01709183
:10041A002F01072E000C880B990B0E942309A501B6
:10042A0094010E947B0C2091140130911501409196
:10043A001601509117010E947B0C0E946D0C4B0112
:10044A005C01B701FF0C880B990B0E942309A501D7
:10045A0094010E947B0C6B017C016091330170E076
:10046A0080E090E00E942309A70196010E943A0CBD
:10047A000E948B0A60933401249709F094C08091FA
:10048A0035018A3008F047C060911001709111015E
:10049A0080911201909113019B01AC010E943A0CC8
:1004AA006B017C0160912E0170912F01072E000CC7
:1004BA00880B990B0E942309A70196010E947B0CC5
:1004CA0020911401309115014091160150911701A4
:1004DA000E947B0C0E946D0C6B017C0160913201C1
:1004EA0070E080E090E00E942309A70196010E9433
:1004FA007B0C6B017C016091330170E080E090E03D
:10050A000E942309A70196010E943A0C0E948B0AB5
:10051A006093340148C020E030E040E850E4609144
:10052A0010017091110180911201909113010E94A2
:10053A007B0C6B017C0160912E0170912F01072EBB
:10054A00000C880B990B0E942309A70196010E94AF
:10055A007B0C2091140130911501409116015091A4
:10056A0017010E947B0C0E946D0C6B017C0160914B
:10057A00320170E080E090E00E942309A701960111
:10058A000E947B0C6B017C016091330170E080E07A
:10059A0090E00E942309A70196010E943A0C0E944A
:1005AA008B0A60933401809134018BB92091180130
:1005BA003091190140911A0150911B016091140167
:1005CA007091150180911601909117010E943A0CC1
:1005DA00609314017093150180931601909317018B
:1005EA0060910C0170910D0180910E0190910F01A3
:1005FA0020E030E040E85FE30E94720C882344F078
:10060A0010921401109215011092160110921701FE
:10061A0080912A0190912B01039734F480911E0155
:10062A0090911F010E947B0680912A0190912B01D3
:10063A00039744F060911E0170911F0180E091E0E0
:10064A000E940907329BABCD85B18F7B85B985B1F5
:10065A00806885B9ECE7F0E080818160808302C020
:10066A000E94320C339BFCCF02C00E940B0C349BBD
:10067A00FCCF80912A0190912B010E945003809116
:10068A001E0190911F010E94BB08ECE7F0E08081F7
:06069A008E7F808384CDF9
:1006A0008230910509F48BC01CF4019749F008953C
:1006B0008330910509F405C1049709F481C10895B7
:1006C00085E80E945C0A81E40E942D0A86E80E9467
:1006D0005C0A8DE40E942D0A87E80E945C0A81E092
:1006E0000E942D0A89E80E945C0A86E40E942D0A75
:1006F0008AE80E945C0A8AE30E942D0A8DE80E9423
:100700005C0A80EB0E942D0A8CE80E945C0A80EB58
:100710000E942D0A8BE80E945C0A80EB0E942D0A41
:100720008EE80E945C0A88E40E942D0A8FE80E94ED
:100730005C0A8AE70E942D0A85EC0E945C0A80EB25
:100740000E942D0A86EC0E945C0A80EB0E942D0A12
:1007500087EC0E945C0A80EB0E942D0A88EC0E94C4
:100760005C0A81E00E942D0A89EC0E945C0A81E00B
:100770000E942D0A8AEC0E945C0A81E00E942D0AE8
:100780008BEC0E945C0A81E00E942D0A8CEC0E9496
:100790005C0A81E00E942D0A8DEC0E945C0A81E0D7
:1007A0000E942D0A8EEC0E945C0A81E00E942D0AB4
:1007B0008FEC0E945C0A81E00E942D0A089585E872
:1007C0000E945C0A86E40E942D0A86E80E945C0A68
:1007D0008DE40E942D0A87E80E945C0A81E00E9455
:1007E0002D0A89E80E945C0A89E80E945C0A86E476
:1007F0000E942D0A8AE80E945C0A8AE30E942D0A60
:100800008DE80E945C0A80EB0E942D0A8CE80E9411
:100810005C0A80EB0E942D0A8BE80E945C0A80EB48
:100820000E942D0A8EE80E945C0A88E40E942D0A2C
:100830008FE80E945C0A8AE70E942D0A85EC0E94DC
:100840005C0A80EB0E942D0A86EC0E945C0A80EB19
:100850000E942D0A87EC0E945C0A80EB0E942D0A00
:1008600088EC0E945C0A81E00E942D0A89EC0E94BB
:100870005C0A81E00E942D0A8AEC0E945C0A81E0F9
:100880000E942D0A8BEC0E945C0A81E00E942D0AD6
:100890008CEC0E945C0A81E00E942D0A8DEC0E9483
:1008A0005C0A81E00E942D0A8EEC0E945C0A81E0C5
:1008B0000E942D0A8FEC0E945C0A81E00E942D0AA2
:1008C000089585E80E945C0A81E40E942D0A86E86A
:1008D0000E945C0A83E50E942D0A87E80E945C0A58
:1008E0008BE40E942D0A89E80E945C0A84E50E943C
:1008F0002D0A8AE80E945C0A8AE30E942D0A8DE88C
:100900000E945C0A80EB0E942D0A8CE80E945C0A1F
:1009100080EB0E942D0A8BE80E945C0A80EB0E940B
:100920002D0A8EE80E945C0A82E60E942D0A8FE85A
:100930000E945C0A83E70E942D0A85EC0E945C0AF3
:1009400080EB0E942D0A86EC0E945C0A80EB0E94DC
:100950002D0A87EC0E945C0A8EE20E942D0A88EC28
:100960000E945C0A80EB0E942D0A89EC0E945C0ABE
:1009700080EB0E942D0A8AEC0E945C0A8EE20E94A3
:100980002D0A8BEC0E945C0A80EB0E942D0A8CECF5
:100990000E945C0A80EB0E942D0A8DEC0E945C0A8A
:1009A0008EE20E942D0A8EEC0E945C0A80EB0E946F
:1009B0002D0A8FEC0E945C0A80EB0E942D0A08959C
:1009C00085E80E945C0A86E40E942D0A86E80E945F
:1009D0005C0A83E50E942D0A87E80E945C0A8BE48A
:1009E0000E942D0A89E80E945C0A84E50E942D0A73
:1009F0008AE80E945C0A8AE30E942D0A8DE80E9420
:100A00005C0A80EB0E942D0A8CE80E945C0A80EB55
:100A10000E942D0A8BE80E945C0A80EB0E942D0A3E
:100A20008EE80E945C0A82E60E942D0A8FE80E94EE
:100A30005C0A83E70E942D0A85EC0E945C0A80EB29
:100A40000E942D0A86EC0E945C0A80EB0E942D0A0F
:100A500087EC0E945C0A8EE20E942D0A88EC0E94BC
:100A60005C0A80EB0E942D0A89EC0E945C0A80EBF4
:100A70000E942D0A8AEC0E945C0A8EE20E942D0AD6
:100A80008BEC0E945C0A80EB0E942D0A8CEC0E9489
:100A90005C0A80EB0E942D0A8DEC0E945C0A8EE2BB
:100AA0000E942D0A8EEC0E945C0A80EB0E942D0AA7
:0E0AB0008FEC0E945C0A80EB0E942D0A0895D4
:100ABE001F920F920FB60F921124CF92DF92EF92E8
:100ACE00FF920F931F932F933F934F935F936F93C9
:100ADE007F938F939F93AF93BF93CF93DF93EF93B8
:100AEE00FF93009178001091790010932D010093DF
:100AFE002C01C0912A01D0912B01C330D1050CF0ED
:100B0E0061C0011582E0180708F520911801309197
:100B1E00190140911A0150911B01609108017091C9
:100B2E00090180910A0190910B010E943A0C609389
:100B3E0008017093090180930A0190930B0181E0E3
:100B4E0090E090932101809320013CC08091200180
:100B5E00909121010197B1F5C0900801D090090143
:100B6E00E0900A01F0900B0120E030E0A901C701EE
:100B7E00B6010E94680C8823A9F0A7019601C7014F
:100B8E00B6010E943A0C9B01AC0160E070E080E877
:100B9E009FE30E94770C0E94400C70931F0160939C
:100BAE001E0104C010921F0110921E01109221010D
:100BBE0010922001109208011092090110920A0160
:100BCE0010920B0123970CF476C0209118013091EE
:100BDE00190140911A0150911B0160910801709109
:100BEE00090180910A0190910B010E943A0C6B0150
:100BFE007C01609308017093090180930A01909320
:100C0E000B01359911C00B30110520F480E3809350
:100C1E00310103C081E38093310181E090E0909334
:100C2E0021018093200147C08091310180933001D2
:100C3E00209120013091210121303105E1F52091E3
:100C4E00220130912301F901E050FF4F8083C90149
:100C5E00019690932301809322011092210110920C
:100C6E002001089721F4109223011092220120E016
:100C7E0030E0A901C701B6010E94680C882379F003
:100C8E00A701960160E070E080E89FE30E94770C78
:100C9E000E94400C70931F0160931E0104C01092BD
:100CAE001F0110921E01109208011092090110925C
:100CBE000A0110920B01FF91EF91DF91CF91BF913D
:100CCE00AF919F918F917F916F915F914F913F91D6
:100CDE002F911F910F91FF90EF90DF90CF900F907B
:080CEE000FBE0F901F90189536
:100CF600CF93DF93EC0160912C0170912D0180E080
:100D060090E00E94210926E636E646E65FE30E9469
:100D16007B0C0E948B0ACB010E94BA0A85EC0E94CA
:100D26005C0A80912401909125010E94FD0986ECC0
:100D36000E945C0A80912601909127010E94FD097C
:100D460087EC0E945C0A80912801909129010E94FB
:100D5600FD0988EC0E945C0A81E00E942D0A89EC5C
:100D66000E945C0A81E00E942D0A8AEC0E945C0ABD
:100D760081E00E942D0A8BEC0E945C0A81E00E94B1
:100D86002D0A8CEC0E945C0A81E00E942D0A8DECF3
:100D96000E945C0A81E00E942D0A8EEC0E945C0A89
:100DA60081E00E942D0A8FEC0E945C0A81E00E947D
:100DB6002D0A89E80E945C0A86E40E942D0A8AE8C8
:100DC6000E945C0A8AE30E942D0ACE010E94BA0A9A
:100DD6008BE80E945C0A80912401909125010E9473
:100DE600FD098CE80E945C0A8091260190912701FA
:100DF6000E94FD098DE80E945C0A8091280190916D
:0C0E060029010E94FD09DF91CF910895A1
:100E1200CF93DF93EC01CB010E94BA0A85EC0E94CA
:100E22005C0A88810E942D0A86EC0E945C0A8981F4
:100E32000E942D0A87EC0E945C0A8EE20E942D0A13
:100E420088EC0E945C0A8A810E942D0A89EC0E9429
:100E52005C0A8B810E942D0A8AEC0E945C0A8EE257
:100E62000E942D0A8BEC0E945C0A8C810E942D0A42
:100E72008CEC0E945C0A8D810E942D0A8DEC0E94EE
:100E82005C0A8EE20E942D0A8EEC0E945C0A8E8120
:100E92000E942D0A8FEC0E945C0A8F810E942D0A0B
:100EA20089E80E945C0A84E50E942D0A8AE80E9471
:100EB2005C0A8AE30E942D0A8BE80E945C0A8091F8
:100EC2002401909125010E94FD098CE80E945C0A90
:100ED20080912601909127010E94FD098DE80E94D0
:100EE2005C0A80912801909129010E94FD09DF91FD
:040EF200CF910895FF
:100EF60010C00E944E0C58F00E94470C40F029F496
:100F06005F3F29F00C945C0C51110C94560C0C9418
:100F16007F0C0E945C0B68F39923B1F3552391F380
:100F2600951B550BBB27AA2762177307840738F052
:100F36009F5F5F4F220F331F441FAA1FA9F335D0AF
:100F46000E2E3AF0E0E832D091505040E695001C63
:100F5600CAF72BD0FE2F29D0660F771F881FBB1F1D
:100F6600261737074807AB07B0E809F0BB0B802DFB
:100F7600BF01FF2793585F4F3AF09E3F510578F027
:100F86000C945C0C0C94560C5F3FE4F3983ED4F33F
:100F9600869577956795B795F7959F5FC9F7880FFB
:100FA600911D9695879597F90895E1E0660F771F4D
:100FB600881FBB1F621773078407BA0720F0621BDE
:0E0FC600730B840BBA0BEE1F88F7E0950895AD
:100FD4000FC00E94470C38F00E944E0C20F095235D
:100FE40011F00C945C0C0C947F0C11240C94560C92
:100FF4000E945C0B70F3959FC1F3950F50E0551F51
:10100400629FF001729FBB27F00DB11D639FAA2759
:10101400F00DB11DAA1F649F6627B00DA11D661FA8
:10102400829F2227B00DA11D621F739FB00DA11DC9
:10103400621F839FA00D611D221F749F3327A00D83
:10104400611D231F849F600D211D822F762F6A2F1F
:1010540011249F5750409AF0F1F088234AF0EE0F84
:10106400FF1FBB1F661F771F881F91505040A9F7B1
:101074009E3F510580F00C945C0C0C94560C5F3F21
:10108400E4F3983ED4F3869577956795B795F795ED
:10109400E7959F5FC1F7FE2B880F911D9695879565
:0410A40097F908951B
:1010A80011C00E94470C38F00E944E0C20F039F411
:1010B8009F3F19F426F40C947F0C0EF4E095E7FB9F
:1010C8000C945C0CE92F0E945C0B58F3BA1762076A
:1010D80073078407950720F079F4A6F50C94550C4E
:1010E8000EF4E0950B2EBA2FA02D0B01B90190013B
:1010F8000C01CA01A0011124FF27591B99F0593F7F
:1011080050F4503E68F11A16F040A22F232F342FC6
:101118004427585FF3CF469537952795A795F04014
:101128005395C9F77EF41F16BA0B620B730B840B29
:10113800BAF09150A1F0FF0FBB1F661F771F881FE1
:10114800C2F70EC0BA0F621F731F841F48F4879539
:1011580077956795B795F7959E3F08F0B0CF93952B
:0E116800880F08F09927EE0F97958795089548
:10117600CF93DF93EC0185EC0E945C0A83E40E9426
:101186002D0A86EC0E945C0A81E40E942D0A87ECF7
:101196000E945C0A8CE40E942D0A88EC0E945C0A7C
:1011A60083E40E942D0A89EC0E945C0A85E50E9470
:1011B6002D0A8AEC0E945C0A8CE40E942D0A8BECB4
:1011C6000E945C0A81E40E942D0A8CEC0E945C0A53
:1011D6008EE40E942D0A8DEC0E945C0A84E40E9433
:1011E6002D0A8EEC0E945C0A8FE40E942D0A8FEC79
:1011F6000E945C0A81E00E942D0ACE010E94BA0A72
:101206008BE80E945C0A80912401909125010E943E
:10121600FD098CE80E945C0A8091260190912701C5
:101226000E94FD098DE80E945C0A80912801909138
:0C12360029010E94FD09DF91CF9108956D
:10124200E89409C097FB3EF490958095709561955E
:101252007F4F8F4F9F4F9923A9F0F92F96E9BB2714
:101262009395F695879577956795B795F111F8CF90
:10127200FAF4BB0F11F460FF1BC06F5F7F4F8F4FFB
:101282009F4F16C0882311F096E911C0772321F0F1
:101292009EE8872F762F05C0662371F096E8862F89
:1012A20070E060E02AF09A95660F771F881FDAF7E0
:0A12B200880F9695879597F9089527
:1012BC008F3F910509F048F481E090E090932B0169
:1012CC0080932A010E94500308959C013A952F3F68
:1012DC00310548F482E090E090932B0180932A0131
:1012EC000E94500308959C012F5F31402F3F310520
:1012FC0048F483E090E090932B0180932A010E94A4
:10130C00500308958E5F92408230914040F484E007
:10131C0090E090932B0180932A010E945003089532
:10132C000E94BA0A89E80E945C0A80E50E942D0A94
:10133C008AE80E945C0A8AE30E942D0A8EE80E94C9
:10134C005C0A88E40E942D0A8FE80E945C0A8AE7F6
:10135C000E942D0A8BE80E945C0A809124019091D6
:10136C0025010E94FD098CE80E945C0A80912601EF
:10137C00909127010E94FD098DE80E945C0A8091E2
:0C138C002801909129010E94FD0908959C
:1013980080E80E945C0A8DE40E942D0A81E80E9480
:1013A8005C0A8FE60E942D0A82E80E945C0A84E6A5
:1013B8000E942D0A83E80E945C0A8AE30E942D0A93
:1013C80080EC0E945C0A8DE40E942D0A81EC0E9448
:1013D8005C0A83E70E942D0A82EC0E945C0A87E679
:1013E8000E942D0A83EC0E945C0A8AE30E942D0A5F
:0213F800089556
:1013FA008A30910560F5FC01EC5CFF4F0C94620C9D
:10140A0080E30E942D0A089581E30E942D0A08951F
:10141A0082E30E942D0A089583E30E942D0A08950B
:10142A0084E30E942D0A089585E30E942D0A0895F7
:10143A0086E30E942D0A089587E30E942D0A0895E3
:10144A0088E30E942D0A089589E30E942D0A0895CF
:10145A0095B1906295B920E030E022C0211531059E
:10146A0081F495B1907F95B995B1482F42954F7007
:10147A00942B95B995B1906195B995B19F7E95B91F
:10148A000DC095B1907F95B98F7095B1982B95B98C
:10149A0095B1906195B995B19F7E95B92F5F3F4FF0
:0E14AA0022303105DCF285B18F7D85B90895C1
:1014B80095B19F7D95B920E030E022C02115310516
:1014C80081F495B1907F95B995B1482F42954F70A9
:1014D800942B95B995B1906195B995B19F7E95B9C1
:1014E8000DC095B1907F95B98F7095B1982B95B92E
:1014F80095B1906195B995B19F7E95B92F5F3F4F92
:0E15080022303105DCF285B18F7D85B9089562
:101516000E94640B88F09F5798F0B92F9927B7510E
:10152600B0F0E1F0660F771F881F991F1AF0BA9581
:10153600C9F714C0B13091F00E94550CB1E008957E
:101546000C94550C672F782F8827B85F39F0B93F70
:10155600CCF3869577956795B395D9F73EF4909534
:0E1566008095709561957F4F8F4F9F4F089530
:101574001092270110922601109225011092240145
:10158400843691056CF084569109209124013091A0
:1015940025012F5F3F4F3093250120932401F0CF85
:1015A4008A30910564F00A97209126013091270131
:1015B4002F5F3F4F3093270120932601F1CF909363
:0815C40029018093280108951C
:1015CC000E94640B10F40C947F0CE894E0E0BB27B1
:1015DC009F57F0F02AED3FE049EC06C0EE0FBB0F31
:1015EC00661F771F881F28F0B23A620773078407BB
:1015FC0028F0B25A620B730B840BE3959A9572F731
:10160C00803830F49A95BB0F661F771F881FD2F76E
:06161C0090480C94F20B53
:10162200DF93CF931F930F93FF92EF92DF927B0191
:101632008C01689406C0DA2EEF010E94EA07FE01CF
:10164200E894A5912591359145915591A6F3EF0125
:101652000E945408FE019701A801DA9469F7DF900D
:0E166200EF90FF900F911F91CF91DF910895AF
:10167000990F0008550FAA0BE0E8FEEF16161706A3
:10168000E807F907C0F012161306E407F50798F00B
:10169000621B730B840B950B39F40A2661F0232B24
:1016A000242B252B21F408950A2609F4A140A695A0
:0816B0008FEF811D811D0895DB
:1016B80057FD9058440F551F59F05F3F71F04795FB
:1016C800880F97FB991F61F09F3F79F087950895E0
:1016D800121613061406551FF2CF4695F1DF08C0FF
:1016E800161617061806991FF1CF8695710561051C
:0416F80008940895B5
:1016FC00EF93E0FF07C0A2EA2AED3FE049EC5FEB75
:10170C000E9454080E94DF0B0F90039401FC905828
:08171C00ECE7F0E00C94920BE5
:101724009F938F937F936F93FF93EF939B01AC01F0
:101734000E947B0CEF91FF910E94110B2F913F911E
:081744004F915F910C947B0CA6
:10174C0097FB072E16F4009407D077FD09D00E9462
:10175C00BA0B07FC05D03EF4909581959F4F0895E8
:08176C00709561957F4F08950F
:10177400AA1BBB1B51E107C0AA1FBB1FA617B707B3
:1017840010F0A61BB70B881F991F5A95A9F78095CF
:081794009095BC01CD01089500
:10179C0095B1907F95B98F7095B1892B85B985B12D
:1017AC008F7D85B985B1806185B985B18F7E85B90D
:0217BC0008958E
:1017BE00092E0394000C11F4882352F0BB0F40F451
:1017CE00BF2B11F460FF04C06F5F7F4F8F4F9F4F91
:0217DE0008956C
:1017E0009F3F31F0915020F4879577956795B79595
:0C17F000880F911D9695879597F9089534
:1017FC008536910538F0873E23E0920728F087EE76
:0A180C0093E0089584E690E008954B
:1018160080912C0190912D010E94FE0B90932F0137
:0A18260080932E010E949609089598
:1018300082E00E94CE0B82E00E94CE0B88E00E94E4
:04184000CE0B08952E
:101844008FEE80937A0010927B0080E480937C007A
:021854000895F5
:0E18560080E00E94CE0B8CE00E94CE0B089525
:0E18640080912C0190912D010E945E09089543
:0E1872005058BB27AA270E9454080C94DF0B85
:0E1880000E948B0A6894B1110C94560C0895C6
:0E188E0000240A941616170618060906089577
:0E189C0000240A941216130614060506089579
:0E18AA00E894BB2766277727CB0197F90895AE
:0C18B80097F99F6780E870E060E00895F9
:0C18C400EE0FFF1F0590F491E02D099439
:0A18D0000E94380B08F481E008952F
:0A18DA000E94E60AE3950C947E0BD1
:0A18E4000E94380B08F48FEF0895FE
:0818EE000E947B070C94DF0B44
:0818F6000E94EA070C94DF0BCD
:0618FE009FEF80EC08954D
:041904000C9400003F
:08190800303030303030303057
:04191000D00F49406B
:04191400E7E3DA3AF1
:021918000100CC
:02191A00640067
:01191C00309A
:01191D003099
:01191E007F49
:01191F007F48
:00000001FF
