:100000000C9458000C94ED030C94ED030C94ED0348
:100010000C94ED030C94ED030C94ED030C94ED03A0
:100020000C94ED030C94ED030C94ED030C94ED0390
:100030000C94ED030C94ED030C94ED030C94ED0380
:100040000C94ED030C94ED030C94ED030C94ED0370
:100050000C94ED030C9451030C94ED030C94ED03FC
:100060000C94ED030C94ED0305A84CCDB2D44EB91D
:100070003836A9020C50B9918688083CA6AAAA2A4B
:10008000BE000000803F010001048001040108005F
:1000900007DE0108010C80010C01100007E20110CD
:1000A000011680011601190007E60119011B8000E5
:1000B00011241FBECFEFD8E0DEBFCDBFE6E8F0E0F1
:1000C00040E017C0B591A59135912591059107FDA7
:1000D0000CC095918591EF01F92FE82F05900D92B5
:1000E000A217B307D9F7FE0104C01D92A217B307E8
:1000F000E1F7EF3AF40731F70E9482000C94800098
:04010000F894FFCFA1
:100104008FEF8AB984B917B8F8940E94AE03789433
:1001140081E090E09093110180931001C09114014B
:10012400D0911501D695C795D695C7953C2EC09309
:100134001A016091160170911701072E000C880BAB
:10014400990B0E944F024B015C01C0900801D090B2
:100154000901E0900A01F0900B01A70196010E94A9
:10016400E603609300017093010180930201909370
:10017400030180911201909113010197D1F50C2F85
:10018400069510E0609104017091050180910601CB
:10019400909107019B01AC010E94BB039B01AC0140
:1001A400C501B4010E94E6039B01AC01C701B6017D
:1001B4000E94E6030E94DC032B013C01B801110FED
:1001C400880B990B0E944F02A30192010E94E6033F
:1001D4002B013C016091180170E080E090E00E94E6
:1001E4004F02A30192010E94BB030E948A02609302
:1001F40019018091100190911101019709F043C0F8
:1002040089E0831528F080911801809319013BC07F
:100214006C2F6695C62FD0E06091040170910501A2
:1002240080910601909107019B01AC010E94BB03E0
:100234009B01AC01C501B4010E94E6039B01AC0122
:10024400C701B6010E94E6030E94DC036B017C0136
:10025400BE01DD0F880B990B0E944F02A701960186
:100264000E94E6036B017C016091180170E080E05C
:1002740090E00E944F02A70196010E94BB030E94D6
:100284008A0260931901809119018BB920910C01A4
:1002940030910D0140910E0150910F0160910801C0
:1002A4007091090180910A0190910B010E94BB0396
:1002B400609308017093090180930A0190930B01E4
:1002C40060910001709101018091020190910301FC
:1002D40020E030E040E85FE30E94E10388230CF46F
:1002E4001DCF109208011092090110920A01109278
:0402F4000B0114CF17
:1002F8000FC00E94C10338F00E94C80320F0952364
:1003080011F00C94D6030C94EA0311240C94D00336
:100318000E942F0370F3959FC1F3950F50E0551F6E
:10032800629FF001729FBB27F00DB11D639FAA2742
:10033800F00DB11DAA1F649F6627B00DA11D661F91
:10034800829F2227B00DA11D621F739FB00DA11DB2
:10035800621F839FA00D611D221F749F3327A00D6C
:10036800611D231F849F600D211D822F762F6A2F08
:1003780011249F5750409AF0F1F088234AF0EE0F6D
:10038800FF1FBB1F661F771F881F91505040A9F79A
:100398009E3F510580F00C94D6030C94D0035F3F28
:1003A800E4F3983ED4F3869577956795B795F795D6
:1003B800E7959F5FC1F7FE2B880F911D969587954E
:0403C80097F9089504
:1003CC0011C00E94C10338F00E94C80320F039F418
:1003DC009F3F19F426F40C94EA030EF4E095E7FB26
:1003EC000C94D603E92F0E942F0358F3BA17620717
:1003FC0073078407950720F079F4A6F50C94CF03C6
:10040C000EF4E0950B2EBA2FA02D0B01B901900123
:10041C000C01CA01A0011124FF27591B99F0593F67
:10042C0050F4503E68F11A16F040A22F232F342FAF
:10043C004427585FF3CF469537952795A795F040FD
:10044C005395C9F77EF41F16BA0B620B730B840B12
:10045C00BAF09150A1F0FF0FBB1F661F771F881FCA
:10046C00C2F70EC0BA0F621F731F841F48F4879522
:10047C0077956795B795F7959E3F08F0B0CF939514
:0E048C00880F08F09927EE0F97958795089531
:10049A00E89409C097FB3EF4909580957095619514
:1004AA007F4F8F4F9F4F9923A9F0F92F96E9BB27CA
:1004BA009395F695879577956795B795F111F8CF46
:1004CA00FAF4BB0F11F460FF1BC06F5F7F4F8F4FB1
:1004DA009F4F16C0882311F096E911C0772321F0A7
:1004EA009EE8872F762F05C0662371F096E8862F3F
:1004FA0070E060E02AF09A95660F771F881FDAF796
:0A050A00880F9695879597F90895DC
:100514000E94370388F09F5798F0B92F9927B75155
:10052400B0F0E1F0660F771F881F991F1AF0BA9593
:10053400C9F714C0B13091F00E94CF03B1E008951F
:100544000C94CF03672F782F8827B85F39F0B93F11
:10055400CCF3869577956795B395D9F73EF4909546
:0E0564008095709561957F4F8F4F9F4F089542
:100572000E94370310F40C94EA03E894E0E0BB27EE
:100582009F57F0F02AED3FE049EC06C0EE0FBB0F9B
:10059200661F771F881F28F0B23A62077307840725
:1005A20028F0B25A620B730B840BE3959A9572F79B
:1005B200803830F49A95BB0F661F771F881FD2F7D9
:0605C20090480C94A20316
:1005C800DF93CF931F930F93FF92EF92DF927B01FC
:1005D8008C01689406C0DA2EEF010E947C01FE01AE
:1005E800E894A5912591359145915591A6F3EF0190
:1005F8000E94E601FE019701A801DA9469F7DF90ED
:0E060800EF90FF900F911F91CF91DF91089519
:10061600990F0008550FAA0BE0E8FEEF161617060D
:10062600E807F907C0F012161306E407F50798F075
:10063600621B730B840B950B39F40A2661F0232B8E
:10064600242B252B21F408950A2609F4A140A6950A
:080656008FEF811D811D089545
:10065E0057FD9058440F551F59F05F3F71F0479565
:10066E00880F97FB991F61F09F3F79F0879508954A
:10067E00121613061406551FF2CF4695F1DF08C069
:10068E00161617061806991FF1CF86957105610586
:04069E00089408951F
:1006A2001F920F920FB60F9211248F939F938091F6
:1006B20078009091790090931501809314019F9195
:0C06C2008F910F900FBE0F901F901895A5
:1006CE00EF93E0FF07C0A2EA2AED3FE049EC5FEBB3
:1006DE000E94E6010E948F030F90039401FC905834
:0806EE00E8E6F0E00C947B0348
:1006F6009F938F937F936F93FF93EF939B01AC012F
:100706000E94E603EF91FF910E94E4022F913F9130
:080716004F915F910C94E60382
:10071E00092E0394000C11F4882352F0BB0F40F401
:10072E00BF2B11F460FF04C06F5F7F4F8F4F9F4F41
:02073E0008951C
:100740009F3F31F0915020F4879577956795B79545
:0C075000880F911D9695879597F90895E4
:10075C008FEE80937A0010927B0080E480937C0073
:08076C008EE380937E000895E6
:0E0774005058BB27AA270E94E6010C948F0361
:0E07820000240A941616170618060906089594
:0E07900000240A941216130614060506089596
:0E079E00E894BB2766277727CB0197F90895CB
:0C07AC0097F99F6780E870E060E0089516
:0A07B8000E94B902E3950C94670358
:0A07C2000E940B0308F48FEF089566
:0807CC000E947C010C948F03D4
:0607D4009FEF80EC089588
:0407DA000C9400007B
:0407DE00D00F4940AF
:0407E2007233DC3A58
:0207E6006400AD
:0107E8007F91
:00000001FF
