:100000000C9458000C9485040C9485040C9485047D
:100010000C9485040C9485040C9485040C9485043C
:100020000C9485040C9485040C9485040C9485042C
:100030000C9485040C9485040C9485040C9485041C
:100040000C9485040C9485040C9485040C9485040C
:100050000C9485040C94D9030C9485040C948504A9
:100060000C9485040C94850405A84CCDB2D44EB9EB
:100070003836A9020C50B9918688083CA6AAAA2A4B
:10008000BE000000803F010001048001040108005F
:10009000090E0108010C80010C0110000912011069
:1000A0000118800118011C000916011C011E8000A6
:1000B00011241FBECFEFD8E0DEBFCDBFE6E8F0E0F1
:1000C00040E017C0B591A59135912591059107FDA7
:1000D0000CC095918591EF01F92FE82F05900D92B5
:1000E000A217B307D9F7FE0104C01D92A217B307E8
:1000F000E1F7EF3AF40731F70E9482000C94800098
:04010000F894FFCFA1
:100104008FEF8AB984B917B818B815B8F8940E9453
:100114004904789481E090E0909315018093140150
:10012400C0911601D0911701D695C795D695C7955C
:100134003C2EC0931D016091180170911901072E86
:10014400000C880B990B0E94D7024B015C01C090F4
:100154000801D0900901E0900A01F0900B01A70179
:1001640096010E947E0460930001709301018093C4
:10017400020190930301809114019091150101975C
:10018400D1F50C2F069510E06091040170910501E2
:1001940080910601909107019B01AC010E945304D8
:1001A4009B01AC01C501B4010E947E049B01AC011A
:1001B400C701B6010E947E040E9474042B013C0115
:1001C400B801110F880B990B0E94D702A301920169
:1001D4000E947E042B013C0160911B0170E080E0D1
:1001E40090E00E94D702A30192010E9453040E944E
:1001F400120360931C0180911201909113010197E5
:1002040009F041C089E0831528F080911B01809397
:100214001C0139C0C695D0E06091040170910501BC
:1002240080910601909107019B01AC010E94530447
:100234009B01AC01C501B4010E947E049B01AC0189
:10024400C701B6010E947E040E9474042B013C0184
:10025400BE01DD0F880B990B0E94D702A301920106
:100264000E947E042B013C0160911B0170E080E040
:1002740090E00E94D702A30192010E9453040E94BD
:10028400120360931C018091100190911101019758
:1002940009F076C089E08315C8F16091040170917A
:1002A400050180910601909107019B01AC010E9418
:1002B40053049B01AC01C501B4010E947E049B015F
:1002C400AC01C701B6010E947E040E9474046B0154
:1002D4007C0160911A0170E080E090E00E94D702F6
:1002E400A70196010E947E046B017C0160911B01B1
:1002F40070E080E090E00E94D702A70196010E947E
:1003040053040E94120360931C013AC020E030E0C1
:1003140040E850E460910401709105018091060168
:10032400909107010E947E049B01AC01C501B401B8
:100334000E947E049B01AC01C701B6010E947E04A9
:100344000E9474046B017C0160911A0170E080E0EA
:1003540090E00E94D702A70196010E947E046B01DF
:100364007C0160911B0170E080E090E00E94D70264
:10037400A70196010E9453040E94120360931C017A
:1003840080911C018BB920910C0130910D01409199
:100394000E0150910F016091080170910901809143
:1003A4000A0190910B010E94530460930801709319
:1003B400090180930A0190930B01609100017091EF
:1003C4000101809102019091030120E030E040E8B6
:1003D4005FE30E947904882344F01092080110928C
:1003E400090110920A0110920B01329B99CE02C0AE
:1003F4000E941704339BFCCFECE7F0E080818E7FF2
:0404040080838ECE95
:100408000FC00E94590438F00E94600420F0952320
:1004180011F00C946E040C94820411240C9468045A
:100428000E94B70370F3959FC1F3950F50E0551FD5
:10043800629FF001729FBB27F00DB11D639FAA2731
:10044800F00DB11DAA1F649F6627B00DA11D661F80
:10045800829F2227B00DA11D621F739FB00DA11DA1
:10046800621F839FA00D611D221F749F3327A00D5B
:10047800611D231F849F600D211D822F762F6A2FF7
:1004880011249F5750409AF0F1F088234AF0EE0F5C
:10049800FF1FBB1F661F771F881F91505040A9F789
:1004A8009E3F510580F00C946E040C9468045F3FE5
:1004B800E4F3983ED4F3869577956795B795F795C5
:1004C800E7959F5FC1F7FE2B880F911D969587953D
:0404D80097F90895F3
:1004DC0011C00E94590438F00E94600420F039F4D5
:1004EC009F3F19F426F40C9482040EF4E095E7FB7C
:1004FC000C946E04E92F0E94B70358F3BA176207E5
:10050C0073078407950720F079F4A6F50C9467041B
:10051C000EF4E0950B2EBA2FA02D0B01B901900112
:10052C000C01CA01A0011124FF27591B99F0593F56
:10053C0050F4503E68F11A16F040A22F232F342F9E
:10054C004427585FF3CF469537952795A795F040EC
:10055C005395C9F77EF41F16BA0B620B730B840B01
:10056C00BAF09150A1F0FF0FBB1F661F771F881FB9
:10057C00C2F70EC0BA0F621F731F841F48F4879511
:10058C0077956795B795F7959E3F08F0B0CF939503
:0E059C00880F08F09927EE0F97958795089520
:1005AA00E89409C097FB3EF4909580957095619503
:1005BA007F4F8F4F9F4F9923A9F0F92F96E9BB27B9
:1005CA009395F695879577956795B795F111F8CF35
:1005DA00FAF4BB0F11F460FF1BC06F5F7F4F8F4FA0
:1005EA009F4F16C0882311F096E911C0772321F096
:1005FA009EE8872F762F05C0662371F096E8862F2E
:10060A0070E060E02AF09A95660F771F881FDAF784
:0A061A00880F9695879597F90895CB
:100624000E94BF0388F09F5798F0B92F9927B751BC
:10063400B0F0E1F0660F771F881F991F1AF0BA9582
:10064400C9F714C0B13091F00E946704B1E0089575
:100654000C946704672F782F8827B85F39F0B93F67
:10066400CCF3869577956795B395D9F73EF4909535
:0E0674008095709561957F4F8F4F9F4F089531
:100682000E94BF0310F40C948204E894E0E0BB27BC
:100692009F57F0F02AED3FE049EC06C0EE0FBB0F8A
:1006A200661F771F881F28F0B23A62077307840714
:1006B20028F0B25A620B730B840BE3959A9572F78A
:1006C200803830F49A95BB0F661F771F881FD2F7C8
:0606D20090480C943D0469
:1006D800DF93CF931F930F93FF92EF92DF927B01EB
:1006E8008C01689406C0DA2EEF010E940402FE0114
:1006F800E894A5912591359145915591A6F3EF017F
:100708000E946E02FE019701A801DA9469F7DF9052
:0E071800EF90FF900F911F91CF91DF91089508
:10072600990F0008550FAA0BE0E8FEEF16161706FC
:10073600E807F907C0F012161306E407F50798F064
:10074600621B730B840B950B39F40A2661F0232B7D
:10075600242B252B21F408950A2609F4A140A695F9
:080766008FEF811D811D089534
:10076E0057FD9058440F551F59F05F3F71F0479554
:10077E00880F97FB991F61F09F3F79F08795089539
:10078E00121613061406551FF2CF4695F1DF08C058
:10079E00161617061806991FF1CF86957105610575
:0407AE00089408950E
:1007B2001F920F920FB60F9211248F939F938091E5
:1007C20078009091790090931701809316019F9180
:0C07D2008F910F900FBE0F901F90189594
:1007DE00EF93E0FF07C0A2EA2AED3FE049EC5FEBA2
:1007EE000E946E020E942A040F90039401FC9058FE
:0807FE00E8E6F0E00C940304AE
:100806009F938F937F936F93FF93EF939B01AC011D
:100816000E947E04EF91FF910E946C032F913F91FD
:080826004F915F910C947E04D8
:10082E00ECE7F0E0808181608083809116019091E9
:10083E001701969587959695879580931D018093C0
:06084E001C018BB90895A6
:10085400092E0394000C11F4882352F0BB0F40F4CA
:10086400BF2B11F460FF04C06F5F7F4F8F4F9F4F0A
:020874000895E5
:100876009F3F31F0915020F4879577956795B7950E
:0C088600880F911D9695879597F90895AD
:100892008FEE80937A0010927B0080E480937C003C
:0208A2000895B7
:0E08A4005058BB27AA270E946E020C942A040B
:0E08B20000240A941616170618060906089563
:0E08C00000240A941216130614060506089565
:0E08CE00E894BB2766277727CB0197F908959A
:0C08DC0097F99F6780E870E060E00895E5
:0A08E8000E944103E3950C94EF0316
:0A08F2000E94930308F48FEF0895AD
:0808FC000E9404020C942A047E
:060904009FEF80EC089556
:04090A000C94000049
:04090E00D00F49407D
:040912007233DC3A26
:020916003200AD
:010918007F5F
:010919007F5E
:00000001FF
