:100000000C946B000C943C090C943C090C943C0936
:100010000C943C090C943C090C943C090C943C094C
:100020000C943C090C943C090C943C090C943C093C
:100030000C943C090C943C090C943C090C943C092C
:100040000C943C090C943C090C943C090C943C091C
:100050000C943C090C9479050C943C090C943C09D3
:100060000C943C090C943C09FA06FE0602070607AC
:100070000A070E07120716071A071E0705A84CCD18
:10008000B2D44EB93836A9020C50B9918688083CD2
:10009000A6AAAA2ABE000000803F010001080012A3
:1000A0007C0108010C80010C011000128401100178
:1000B0001480011401180012880118012280012205
:1000C000012400128C01240126800126012C00123B
:1000D0008E012C012E8011241FBECFEFD8E0DEBF91
:1000E000CDBFEAE9F0E040E017C0B591A5913591A8
:1000F0002591059107FD0CC095918591EF01F92F90
:10010000E82F05900D92A217B307D9F7FE0104C09E
:100110001D92A217B307E1F7E63DF40731F70E94FD
:0A012000A4020C949300F894FFCFA2
:10012A008230910509F48BC01CF4019749F00895B7
:10013A008330910509F405C1049709F481C1089532
:10014A0085E80E947F0781E40E94510786E80E94A1
:10015A007F078DE40E94510787E80E947F0781E0AC
:10016A000E94510789E80E947F0786E40E9451078E
:10017A008AE80E947F078AE30E9451078DE80E945D
:10018A007F0780EB0E9451078CE80E947F0780EB73
:10019A000E9451078BE80E947F0780EB0E9451075B
:1001AA008EE80E947F0788E40E9451078FE80E9428
:1001BA007F078AE70E94510785EC0E947F0780EB40
:1001CA000E94510786EC0E947F0780EB0E9451072C
:1001DA0087EC0E947F0780EB0E94510788EC0E94FF
:1001EA007F0781E00E94510789EC0E947F0781E026
:1001FA000E9451078AEC0E947F0781E00E94510702
:10020A008BEC0E947F0781E00E9451078CEC0E94D0
:10021A007F0781E00E9451078DEC0E947F0781E0F1
:10022A000E9451078EEC0E947F0781E00E945107CD
:10023A008FEC0E947F0781E00E945107089585E8AC
:10024A000E947F0786E40E94510786E80E947F0782
:10025A008DE40E94510787E80E947F0781E00E948F
:10026A00510789E80E947F0789E80E947F0786E490
:10027A000E9451078AE80E947F078AE30E94510779
:10028A008DE80E947F0780EB0E9451078CE80E944C
:10029A007F0780EB0E9451078BE80E947F0780EB63
:1002AA000E9451078EE80E947F0788E40E94510746
:1002BA008FE80E947F078AE70E94510785EC0E9417
:1002CA007F0780EB0E94510786EC0E947F0780EB34
:1002DA000E94510787EC0E947F0780EB0E9451071A
:1002EA0088EC0E947F0781E00E94510789EC0E94F6
:1002FA007F0781E00E9451078AEC0E947F0781E014
:10030A000E9451078BEC0E947F0781E00E945107EF
:10031A008CEC0E947F0781E00E9451078DEC0E94BD
:10032A007F0781E00E9451078EEC0E947F0781E0DF
:10033A000E9451078FEC0E947F0781E00E945107BB
:10034A00089585E80E947F0781E40E94510786E8A4
:10035A000E947F0783E50E94510787E80E947F0772
:10036A008BE40E94510789E80E947F0784E50E9476
:10037A0051078AE80E947F078AE30E9451078DE8A5
:10038A000E947F0780EB0E9451078CE80E947F073A
:10039A0080EB0E9451078BE80E947F0780EB0E9446
:1003AA0051078EE80E947F0782E60E9451078FE874
:1003BA000E947F0783E70E94510785EC0E947F070E
:1003CA0080EB0E94510786EC0E947F0780EB0E9417
:1003DA00510787EC0E947F078EE20E94510788EC42
:1003EA000E947F0780EB0E94510789EC0E947F07D9
:1003FA0080EB0E9451078AEC0E947F078EE20E94DE
:10040A0051078BEC0E947F0780EB0E9451078CEC0E
:10041A000E947F0780EB0E9451078DEC0E947F07A4
:10042A008EE20E9451078EEC0E947F0780EB0E94A9
:10043A0051078FEC0E947F0780EB0E9451070895B5
:10044A0085E80E947F0786E40E94510786E80E9499
:10045A007F0783E50E94510787E80E947F078BE4A4
:10046A000E94510789E80E947F0784E50E9451078C
:10047A008AE80E947F078AE30E9451078DE80E945A
:10048A007F0780EB0E9451078CE80E947F0780EB70
:10049A000E9451078BE80E947F0780EB0E94510758
:1004AA008EE80E947F0782E60E9451078FE80E9429
:1004BA007F0783E70E94510785EC0E947F0780EB44
:1004CA000E94510786EC0E947F0780EB0E94510729
:1004DA0087EC0E947F078EE20E94510788EC0E94F7
:1004EA007F0780EB0E94510789EC0E947F0780EB0F
:1004FA000E9451078AEC0E947F078EE20E945107F0
:10050A008BEC0E947F0780EB0E9451078CEC0E94C3
:10051A007F0780EB0E9451078DEC0E947F078EE2D5
:10052A000E9451078EEC0E947F0780EB0E945107C0
:0E053A008FEC0E947F0780EB0E94510708950E
:10054800CF93DF9300D01F92CDB7DEB78FEF8AB974
:100558008FE384B917B818B815B8F8940E94EC0856
:1005680078940E94E2080E94F5080E94C10681E082
:1005780090E00E94950000912401109125011695A4
:10058800079516950795098300932D01609126011B
:1005980070912701072E000C880B990B0E941806F2
:1005A8004B015C01C0901001D0901101E090120144
:1005B800F0901301A70196010E9435096093080184
:1005C8007093090180930A0190930B018091220195
:1005D800909123019B838A830197D1F5202E26943D
:1005E800312C60910C0170910D0180910E01909158
:1005F8000F019B01AC010E9404099B01AC01C501DC
:10060800B4010E9435099B01AC01C701B6010E94E3
:1006180035090E942B092B013C01B101330C880BD1
:10062800990B0E941806A30192010E9435092B011B
:100638003C0160912B0170E080E090E00E94180678
:10064800A30192010E9404090E94220760932C01D1
:100658008A819B81039709F041C099819A3028F4D7
:1006680080912B0180932C0139C0069510E0609190
:100678000C0170910D0180910E0190910F019B0169
:10068800AC010E9404099B01AC01C501B4010E94A0
:1006980035099B01AC01C701B6010E9435090E94CA
:1006A8002B092B013C01B801110F880B990B0E94F3
:1006B8001806A30192010E9435092B013C016091A3
:1006C8002B0170E080E090E00E941806A3019201DF
:1006D8000E9404090E94220760932C018A819B8151
:1006E800049709F076C099819A30C8F560910C0199
:1006F80070910D0180910E0190910F019B01AC0149
:100708000E9404099B01AC01C501B4010E9435098E
:100718009B01AC01C701B6010E9435090E942B0953
:100728006B017C0160912A0170E080E090E00E94FA
:100738001806A70196010E9435096B017C0160919A
:100748002B0170E080E090E00E941806A701960156
:100758000E9404090E94220760932C013AC020E0FD
:1007680030E040E850E460910C0170910D018091F7
:100778000E0190910F010E9435099B01AC01C50142
:10078800B4010E9435099B01AC01C701B6010E9462
:1007980035090E942B096B017C0160912A0170E0E8
:1007A80080E090E00E941806A70196010E94350992
:1007B8006B017C0160912B0170E080E090E00E9469
:1007C8001806A70196010E9404090E942207609357
:1007D8002C0180912C018BB92091140130911501C5
:1007E800409116015091170160911001709111010B
:1007F80080911201909113010E94040960931001E5
:100808007093110180931201909313016091080174
:100818007091090180910A0190910B0120E030E06C
:1008280040E85FE30E943009882344F010921001E9
:10083800109211011092120110921301809122015D
:1008480090912301039714F40E941A05329B93CECA
:10085800ECE7F0E080818160808302C00E94FC08A0
:10086800339BFCCF02C00E94D508349BFCCF8091FB
:100878002201909123010E9495000E94D305ECE784
:0A088800F0E080818E7F808376CE41
:100892000FC00E940A0938F00E94110920F0952326
:1008A20011F00C941F090C94390911240C941909A4
:1008B2000E944F0870F3959FC1F3950F50E0551FAA
:1008C200629FF001729FBB27F00DB11D639FAA27A3
:1008D200F00DB11DAA1F649F6627B00DA11D661FF2
:1008E200829F2227B00DA11D621F739FB00DA11D13
:1008F200621F839FA00D611D221F749F3327A00DCD
:10090200611D231F849F600D211D822F762F6A2F68
:1009120011249F5750409AF0F1F088234AF0EE0FCD
:10092200FF1FBB1F661F771F881F91505040A9F7FA
:100932009E3F510580F00C941F090C9419095F3FEA
:10094200E4F3983ED4F3869577956795B795F79536
:10095200E7959F5FC1F7FE2B880F911D96958795AE
:0409620097F9089564
:1009660011C00E940A0938F00E94110920F039F4DA
:100976009F3F19F426F40C9439090EF4E095E7FB31
:100986000C941F09E92F0E944F0858F3BA17620703
:1009960073078407950720F079F4A6F50C941809D7
:1009A6000EF4E0950B2EBA2FA02D0B01B901900184
:1009B6000C01CA01A0011124FF27591B99F0593FC8
:1009C60050F4503E68F11A16F040A22F232F342F10
:1009D6004427585FF3CF469537952795A795F0405E
:1009E6005395C9F77EF41F16BA0B620B730B840B73
:1009F600BAF09150A1F0FF0FBB1F661F771F881F2B
:100A0600C2F70EC0BA0F621F731F841F48F4879582
:100A160077956795B795F7959E3F08F0B0CF939574
:0E0A2600880F08F09927EE0F97958795089591
:100A3400609124017091250180E090E00E941606E7
:100A440026E636E646E65FE30E9435090E94220761
:100A5400CB010E94AD0785EC0E947F0780911C01A9
:100A640090911D010E94F20686EC0E947F078091FE
:100A74001E0190911F010E94F20687EC0E947F07DD
:100A840080912001909121010E94F20688EC0E943D
:100A94007F0781E00E94510789EC0E947F0781E073
:100AA4000E9451078AEC0E947F0781E00E9451074F
:100AB4008BEC0E947F0781E00E9451078CEC0E941E
:100AC4007F0781E00E9451078DEC0E947F0781E03F
:100AD4000E9451078EEC0E947F0781E00E9451071B
:0E0AE4008FEC0E947F0781E00E945107089569
:100AF2001F920F920FB60F9211242F933F938F9351
:100B02009F93EF93FF938091780090917900909357
:100B12002501809324012091220130912301233069
:100B22003105ACF1359910C00B9720F480E3809326
:100B3200290103C081E38093290181E090E0909331
:100B420019018093180123C0809129018093280103
:100B5200209118013091190121303105C1F4209101
:100B62001A0130911B01F901E050FF4F8083C90146
:100B7200019690931B0180931A0110921901109211
:100B82001801089721F410921B0110921A01FF918B
:100B9200EF919F918F913F912F910F900FBE0F90E8
:040BA2001F901895F3
:100BA60085EC0E947F0783E40E94510786EC0E9431
:100BB6007F0781E40E94510787EC0E947F078CE43F
:100BC6000E94510788EC0E947F0783E40E94510728
:100BD60089EC0E947F0785E50E9451078AEC0E94F6
:100BE6007F078CE40E9451078BEC0E947F0781E40B
:100BF6000E9451078CEC0E947F078EE40E945107E9
:100C06008DEC0E947F0784E40E9451078EEC0E94BF
:100C16007F078FE40E9451078FEC0E947F0781E0D7
:060C26000E945107089531
:100C2C00E89409C097FB3EF490958095709561957A
:100C3C007F4F8F4F9F4F9923A9F0F92F96E9BB2730
:100C4C009395F695879577956795B795F111F8CFAC
:100C5C00FAF4BB0F11F460FF1BC06F5F7F4F8F4F17
:100C6C009F4F16C0882311F096E911C0772321F00D
:100C7C009EE8872F762F05C0662371F096E8862FA5
:100C8C0070E060E02AF09A95660F771F881FDAF7FC
:0A0C9C00880F9695879597F9089543
:100CA6008F3F910509F048F481E090E0909323018D
:100CB600809322010E94950008959C013A952F3F4A
:100CC600310548F482E090E090932301809322015D
:100CD6000E94950008959C012F5F31402F3F3105FA
:100CE60048F483E090E090932301809322010E94D0
:100CF600950008958E5F92408230914040F484E0E2
:100D060090E090932301809322010E94950008951C
:100D16000E94AD0789E80E947F0780E50E9451077F
:100D26008AE80E947F078AE30E9451078EE80E94A4
:100D36007F0788E40E9451078FE80E947F078AE7B1
:100D46000E9451078BE80E947F0780911C019091B9
:100D56001D010E94F2068CE80E947F0780911E0109
:100D660090911F010E94F2068DE80E947F078091F4
:0C0D76002001909121010E94F2060895D6
:100D820080E80E947F078DE40E94510781E80E945B
:100D92007F078FE60E94510782E80E947F0784E660
:100DA2000E94510783E80E947F078AE30E9451074D
:100DB20080EC0E947F078DE40E94510781EC0E9423
:100DC2007F0783E70E94510782EC0E947F0787E634
:100DD2000E94510783EC0E947F078AE30E94510719
:020DE200089572
:100DE4008A30910560F5FC01EC5CFF4F0C942509F9
:100DF40080E30E945107089581E30E9451070895FA
:100E040082E30E945107089583E30E9451070895E5
:100E140084E30E945107089585E30E9451070895D1
:100E240086E30E945107089587E30E9451070895BD
:100E340088E30E945107089589E30E9451070895A9
:100E44000E94570888F09F5798F0B92F9927B751F7
:100E5400B0F0E1F0660F771F881F991F1AF0BA955A
:100E6400C9F714C0B13091F00E941809B1E0089597
:100E74000C941809672F782F8827B85F39F0B93F89
:100E8400CCF3869577956795B395D9F73EF490950D
:0E0E94008095709561957F4F8F4F9F4F089509
:100EA20095B1906295B920E030E021C0211531055D
:100EB20081F495B1907F95B995B1482F42954F70C5
:100EC200942B95B995B1906195B995B19F7E95B9DD
:100ED2000CC095B1907F95B995B1982B95B995B104
:100EE200906195B995B19F7E95B92F5F3F4F2230A2
:0C0EF2003105E4F285B18F7D85B90895CB
:100EFE0095B19F7D95B920E030E021C021153105D7
:100F0E0081F495B1907F95B995B1482F42954F7068
:100F1E00942B95B995B1906195B995B19F7E95B980
:100F2E000CC095B1907F95B995B1982B95B995B1A7
:100F3E00906195B995B19F7E95B92F5F3F4F223045
:0C0F4E003105E4F285B18F7D85B908956E
:100F5A0010921F0110921E0110921D0110921C0185
:100F6A00843691056CF08456910920911C013091C8
:100F7A001D012F5F3F4F30931D0120931C01F0CFBD
:100F8A008A30910564F00A9720911E0130911F0161
:100F9A002F5F3F4F30931F0120931E01F1CF909393
:080FAA0021018093200108954C
:100FB2000E94570810F40C943909E894E0E0BB272A
:100FC2009F57F0F02AED3FE049EC06C0EE0FBB0F51
:100FD200661F771F881F28F0B23A620773078407DB
:100FE20028F0B25A620B730B840BE3959A9572F751
:100FF200803830F49A95BB0F661F771F881FD2F78F
:0610020090480C94BC08AC
:10100800DF93CF931F930F93FF92EF92DF927B01B1
:101018008C01689406C0DA2EEF010E944904FE0193
:10102800E894A5912591359145915591A6F3EF0145
:101038000E94B304FE019701A801DA9469F7DF90D2
:0E104800EF90FF900F911F91CF91DF910895CF
:10105600990F0008550FAA0BE0E8FEEF16161706C3
:10106600E807F907C0F012161306E407F50798F02B
:10107600621B730B840B950B39F40A2661F0232B44
:10108600242B252B21F408950A2609F4A140A695C0
:081096008FEF811D811D0895FB
:10109E0057FD9058440F551F59F05F3F71F047951B
:1010AE00880F97FB991F61F09F3F79F08795089500
:1010BE00121613061406551FF2CF4695F1DF08C01F
:1010CE00161617061806991FF1CF8695710561053C
:0410DE0008940895D5
:1010E200EF93E0FF07C0A2EA2AED3FE049EC5FEB95
:1010F2000E94B3040E9499080F90039401FC905837
:08110200ECE7F0E00C94850815
:10110A009F938F937F936F93FF93EF939B01AC0110
:10111A000E943509EF91FF910E9404082F913F9197
:08112A004F915F910C9435090F
:10113200092E0394000C11F4882352F0BB0F40F4E3
:10114200BF2B11F460FF04C06F5F7F4F8F4F9F4F23
:021152000895FE
:1011540095B1907F95B995B1892B85B985B18F7D6E
:1011640085B985B1806185B985B18F7E85B90895CA
:101174009F3F31F0915020F4879577956795B79507
:0C118400880F911D9695879597F90895A6
:101190008536910538F0873E23E0920728F087EEE8
:0A11A00093E0089584E690E00895BE
:1011AA0080912401909125010E94C80890932701FB
:0A11BA00809326010E948B06089521
:1011C40082E00E94AA0882E00E94AA0888E00E94A5
:0411D400AA080895C8
:1011D8008FEE80937A0010927B0080E480937C00ED
:0211E800089568
:0E11EA0080E00E94AA088CE00E94AA080895E6
:0E11F80080912401909125010E9453060895D4
:0E1206005058BB27AA270E94B3040C949908E5
:0E12140000240A9416161706180609060895F7
:0E12220000240A9412161306140605060895F9
:0E123000E894BB2766277727CB0197F908952E
:0C123E0097F99F6780E870E060E0089579
:0C124A00EE0FFF1F0590F491E02D0994B9
:0A1256000E94D907E3950C9471087B
:0A1260000E942B0808F48FEF089598
:08126A000E9449040C9499084C
:061272009FEF80EC0895DF
:041278000C940000D2
:08127C003030303030303030EA
:04128400D00F4940FE
:041288007233DC3AA7
:02128C0001005F
:02128E006400FA
:01129000302D
:01129100302C
:011292007FDC
:011293007FDB
:00000001FF
