:100000000C946B000C94640B0C94640B0C94640BB8
:100010000C94640B0C94640B0C94640B0C94640BA4
:100020000C94640B0C94640B0C94640B0C94640B94
:100030000C94640B0C94640B0C94640B0C94640B84
:100040000C94640B0C94640B0C94640B0C94640B74
:100050000C94640B0C94AE040C94640B0C94640B21
:100060000C94640B0C94640B120916091A091E09EE
:10007000220926092A092E093209360905A84CCD7C
:10008000B2D44EB93836A9020C50B9918688083CD2
:10009000A6AAAA2ABE000000803F0100010800169F
:1000A000CC0108011080011001140016D4011401C4
:1000B00018800118011C0016D8011C012880012895
:1000C000012A0016DC012A012C80012C01320016C5
:1000D000DE013201348011241FBECFEFD8E0DEBF35
:1000E000CDBFEAE9F0E040E017C0B591A5913591A8
:1000F0002591059107FD0CC095918591EF01F92F90
:10010000E82F05900D92A217B307D9F7FE0104C09E
:100110001D92A217B307E1F7E63DF40731F70E94FD
:0A012000A4020C949300F894FFCFA2
:10012A008230910509F48BC01CF4019749F00895B7
:10013A008330910509F405C1049709F481C1089532
:10014A0085E80E94970981E40E94690986E80E946D
:10015A0097098DE40E94690987E80E94970981E05E
:10016A000E94690989E80E94970986E40E94690940
:10017A008AE80E9497098AE30E9469098DE80E9429
:10018A00970980EB0E9469098CE80E94970980EB25
:10019A000E9469098BE80E94970980EB0E9469090D
:1001AA008EE80E94970988E40E9469098FE80E94F4
:1001BA0097098AE70E94690985EC0E94970980EBF2
:1001CA000E94690986EC0E94970980EB0E946909DE
:1001DA0087EC0E94970980EB0E94690988EC0E94CB
:1001EA00970981E00E94690989EC0E94970981E0D8
:1001FA000E9469098AEC0E94970981E00E946909B4
:10020A008BEC0E94970981E00E9469098CEC0E949C
:10021A00970981E00E9469098DEC0E94970981E0A3
:10022A000E9469098EEC0E94970981E00E9469097F
:10023A008FEC0E94970981E00E946909089585E878
:10024A000E94970986E40E94690986E80E94970934
:10025A008DE40E94690987E80E94970981E00E945B
:10026A00690989E80E94970989E80E94970986E442
:10027A000E9469098AE80E9497098AE30E9469092B
:10028A008DE80E94970980EB0E9469098CE80E9418
:10029A00970980EB0E9469098BE80E94970980EB15
:1002AA000E9469098EE80E94970988E40E946909F8
:1002BA008FE80E9497098AE70E94690985EC0E94E3
:1002CA00970980EB0E94690986EC0E94970980EBE6
:1002DA000E94690987EC0E94970980EB0E946909CC
:1002EA0088EC0E94970981E00E94690989EC0E94C2
:1002FA00970981E00E9469098AEC0E94970981E0C6
:10030A000E9469098BEC0E94970981E00E946909A1
:10031A008CEC0E94970981E00E9469098DEC0E9489
:10032A00970981E00E9469098EEC0E94970981E091
:10033A000E9469098FEC0E94970981E00E9469096D
:10034A00089585E80E94970981E40E94690986E870
:10035A000E94970983E50E94690987E80E94970924
:10036A008BE40E94690989E80E94970984E50E9442
:10037A0069098AE80E9497098AE30E9469098DE857
:10038A000E94970980EB0E9469098CE80E949709EC
:10039A0080EB0E9469098BE80E94970980EB0E9412
:1003AA0069098EE80E94970982E60E9469098FE826
:1003BA000E94970983E70E94690985EC0E949709C0
:1003CA0080EB0E94690986EC0E94970980EB0E94E3
:1003DA00690987EC0E9497098EE20E94690988ECF4
:1003EA000E94970980EB0E94690989EC0E9497098B
:1003FA0080EB0E9469098AEC0E9497098EE20E94AA
:10040A0069098BEC0E94970980EB0E9469098CECC0
:10041A000E94970980EB0E9469098DEC0E94970956
:10042A008EE20E9469098EEC0E94970980EB0E9475
:10043A0069098FEC0E94970980EB0E946909089567
:10044A0085E80E94970986E40E94690986E80E9465
:10045A00970983E50E94690987E80E9497098BE456
:10046A000E94690989E80E94970984E50E9469093E
:10047A008AE80E9497098AE30E9469098DE80E9426
:10048A00970980EB0E9469098CE80E94970980EB22
:10049A000E9469098BE80E94970980EB0E9469090A
:1004AA008EE80E94970982E60E9469098FE80E94F5
:1004BA00970983E70E94690985EC0E94970980EBF6
:1004CA000E94690986EC0E94970980EB0E946909DB
:1004DA0087EC0E9497098EE20E94690988EC0E94C3
:1004EA00970980EB0E94690989EC0E94970980EBC1
:1004FA000E9469098AEC0E9497098EE20E946909A2
:10050A008BEC0E94970980EB0E9469098CEC0E948F
:10051A00970980EB0E9469098DEC0E9497098EE287
:10052A000E9469098EEC0E94970980EB0E94690972
:0E053A008FEC0E94970980EB0E9469090895DA
:10054800CF93DF93CDB7DEB727970FB6F894DEBF0A
:100558000FBECDBF8FEF8AB98FE384B917B818B82B
:1005680015B8F8940E94040B78940E94FA0A0E9425
:100578000D0B0E94D90881E090E00E949500209020
:100588002A0130902B013694279436942794298297
:100598002092330100912C0110912D01B801012EF8
:1005A800000C880B990B0E9430084B015C01C0902D
:1005B8001401D0901501E0901601F0901701A701E1
:1005C80096010E945D0B60930C0170930D0180935E
:1005D8000E0190930F0180912801909129019F832A
:1005E8008E83019709F03FC0622D6695662E712CA7
:1005F8006091100170911101809112019091130185
:100608009B01AC010E941C0B9B01AC01C501B4010C
:100618000E945D0B9B01AC01C701B6010E945D0BF6
:100628000E944F0B6A837B838C839D83B301770C75
:10063800880B990B0E9430082A813B814C815D818F
:100648000E945D0B2B013C016091310170E080E05C
:1006580090E00E943008A30192010E941C0B0E94A6
:100668003A09609332018E819F81029709F043C055
:100678006091100170911101809112019091130104
:100688009B01AC010E941C0B9B01AC01C701B60188
:100698000E945D0B2B013C01B801620D711D072EF4
:1006A800000C880B990B0E9430089B01AC01C30118
:1006B800B2010E945D0B0E944F0B2B013C0160911F
:1006C800300170E080E090E00E943008A3019201C0
:1006D8000E945D0B2B013C016091310170E080E0CC
:1006E80090E00E943008A30192010E941C0B0E9416
:1006F8003A09609332018E819F81039709F041C0C6
:1007080099819A3028F4809131018093320139C05F
:100718002694312C60911001709111018091120181
:10072800909113019B01AC010E941C0B9B01AC0131
:10073800C501B4010E945D0B9B01AC01C701B60164
:100748000E945D0B0E944F0B2B013C01B101330C41
:10075800880B990B0E943008A30192010E945D0B3F
:100768002B013C016091310170E080E090E00E9433
:100778003008A30192010E941C0B0E943A09609361
:1007880032018E819F81049709F076C099819A3051
:10079800C8F560911001709111018091120190913A
:1007A80013019B01AC010E941C0B9B01AC01C5010C
:1007B800B4010E945D0B9B01AC01C701B6010E9408
:1007C8005D0B0E944F0B6B017C016091300170E062
:1007D80080E090E00E943008A70196010E945D0B1E
:1007E8006B017C016091310170E080E090E00E9433
:1007F8003008A70196010E941C0B0E943A096093D9
:1008080032013AC020E030E040E850E46091100145
:100818007091110180911201909113010E945D0B5A
:100828009B01AC01C501B4010E945D0B9B01AC01A9
:10083800C701B6010E945D0B0E944F0B6B017C0142
:100848006091300170E080E090E00E943008A701DC
:1008580096010E945D0B6B017C016091310170E093
:1008680080E090E00E943008A70196010E941C0BCE
:100878000E943A0960933201809132018BB920912C
:1008880018013091190140911A0150911B01609192
:1008980014017091150180911601909117010E9421
:1008A8001C0B6093140170931501809316019093AB
:1008B800170160910C0170910D0180910E019091CA
:1008C8000F0120E030E040E85FE30E94540B8823EA
:1008D80044F0109214011092150110921601109212
:1008E80017018091280190912901039734F4809190
:1008F8001C0190911D010E94C405809128019091CE
:100908002901039744F060911C0170911D0180E05A
:1009180091E00E943906329B32CEECE7F0E080810C
:100928008160808302C00E94140B339BFCCF02C0FD
:100938000E94ED0A349BFCCF8091280190912901F7
:100948000E9495000E94EB07ECE7F0E080818E7F23
:04095800808315CEB5
:10095C001F920F920FB60F921124CF92DF92EF924B
:10096C00FF920F931F932F933F934F935F936F932C
:10097C007F938F939F93AF93BF93CF93DF93EF931B
:10098C00FF93009178001091790010932B01009344
:10099C002A01C0912801D0912901C330D1050CF056
:1009AC005BC0011582E0180708F520911801309101
:1009BC00190140911A0150911B016091080170912D
:1009CC00090180910A0190910B010E941C0B60930C
:1009DC0008017093090180930A0190930B0181E047
:1009EC0090E090931F0180931E0136C080911E01F0
:1009FC0090911F01019781F5C0900801D0900901D9
:100A0C00E0900A01F0900B0120E030E0A901C70151
:100A1C00B6010E944A0B882379F0A701960160E089
:100A2C0070E080E090E40E94590B0E94220B7093BE
:100A3C001D0160931C0104C010921D0110921C0139
:100A4C0010921F0110921E011092080110920901C0
:100A5C0010920A0110920B0123970CF476C020918E
:100A6C0018013091190140911A0150911B016091AC
:100A7C0008017091090180910A0190910B010E946B
:100A8C001C0B6B017C01609308017093090180932E
:100A9C000A0190930B01359911C00B30110520F40C
:100AAC0080E380932F0103C081E380932F0181E0C9
:100ABC0090E090931F0180931E0147C080912F01FD
:100ACC0080932E0120911E0130911F0121303105A0
:100ADC00E1F52091200130912101F901E050FF4F07
:100AEC008083C9010196909321018093200110927B
:100AFC001F0110921E01089721F4109221011092EF
:100B0C00200120E030E0A901C701B6010E944A0B88
:100B1C00882379F0A701960160E070E080E89FE3FC
:100B2C000E94590B0E94220B70931D0160931C01B3
:100B3C0004C010921D0110921C0110920801109219
:100B4C00090110920A0110920B01FF91EF91DF91B4
:100B5C00CF91BF91AF919F918F917F916F915F9149
:100B6C004F913F912F911F910F91FF90EF90DF903C
:0C0B7C00CF900F900FBE0F901F901895A7
:100B88000E94C50985EC0E949709809122019091E5
:100B980023010E940A0986EC0E949709809124018A
:100BA800909125010E940A0987EC0E94970980917B
:100BB8002601909127010E940A0988EC0E94970952
:100BC80081E00E94690989EC0E94970981E00E94EE
:100BD80069098AEC0E94970981E00E9469098BECF7
:100BE8000E94970981E00E9469098CEC0E9497098C
:100BF80081E00E9469098DEC0E94970981E00E94BA
:100C080069098EEC0E94970981E00E9469098FECBE
:100C18000E94970981E00E94690989E80E94970962
:100C280086E40E9469098AE80E9497098AE30E947B
:100C380069098BE80E94970980912201909123010C
:100C48000E940A098CE80E949709809124019091DA
:100C580025010E940A098DE80E94970980912601C2
:0A0C6800909127010E940A090895E7
:100C7200CF93DF93EC01CB010E94C50985EC0E9462
:100C8200970988810E94690986EC0E9497098981E7
:100C92000E94690987EC0E9497098EE20E94690905
:100CA20088EC0E9497098A810E94690989EC0E9456
:100CB20097098B810E9469098AEC0E9497098EE24A
:100CC2000E9469098BEC0E9497098C810E94690934
:100CD2008CEC0E9497098D810E9469098DEC0E941B
:100CE20097098EE20E9469098EEC0E9497098E8113
:100CF2000E9469098FEC0E9497098F810E946909FD
:100D020089E80E94970984E50E9469098AE80E949D
:100D120097098AE30E9469098BE80E9497098091EA
:100D22002201909123010E940A098CE80E949709EE
:100D320080912401909125010E940A098DE80E9468
:100D4200970980912601909127010E940A09DF915B
:040D5200CF910895A0
:100D560010C00E94300B58F00E94290B40F029F475
:100D66005F3F29F00C943E0B51110C94380B0C94F8
:100D7600610B0E94670A68F39923B1F3552391F337
:100D8600951B550BBB27AA2762177307840738F0F4
:100D96009F5F5F4F220F331F441FAA1FA9F335D051
:100DA6000E2E3AF0E0E832D091505040E695001C05
:100DB600CAF72BD0FE2F29D0660F771F881FBB1FBF
:100DC600261737074807AB07B0E809F0BB0B802D9D
:100DD600BF01FF2793585F4F3AF09E3F510578F0C9
:100DE6000C943E0B0C94380B5F3FE4F3983ED4F31F
:100DF600869577956795B795F7959F5FC9F7880F9D
:100E0600911D9695879597F90895E1E0660F771FEE
:100E1600881FBB1F621773078407BA0720F0621B7F
:0E0E2600730B840BBA0BEE1F88F7E09508954E
:100E34000FC00E94290B38F00E94300B20F095233C
:100E440011F00C943E0B0C94610B11240C94380B90
:100E54000E94670A70F3959FC1F3950F50E0551FE8
:100E6400629FF001729FBB27F00DB11D639FAA27FB
:100E7400F00DB11DAA1F649F6627B00DA11D661F4A
:100E8400829F2227B00DA11D621F739FB00DA11D6B
:100E9400621F839FA00D611D221F749F3327A00D25
:100EA400611D231F849F600D211D822F762F6A2FC1
:100EB40011249F5750409AF0F1F088234AF0EE0F26
:100EC400FF1FBB1F661F771F881F91505040A9F753
:100ED4009E3F510580F00C943E0B0C94380B5F3F01
:100EE400E4F3983ED4F3869577956795B795F7958F
:100EF400E7959F5FC1F7FE2B880F911D9695879507
:040F040097F90895BC
:100F080011C00E94290B38F00E94300B20F039F4F0
:100F18009F3F19F426F40C94610B0EF4E095E7FB5F
:100F28000C943E0BE92F0E94670A58F3BA17620720
:100F380073078407950720F079F4A6F50C94370B0E
:100F48000EF4E0950B2EBA2FA02D0B01B9019001DC
:100F58000C01CA01A0011124FF27591B99F0593F20
:100F680050F4503E68F11A16F040A22F232F342F68
:100F78004427585FF3CF469537952795A795F040B6
:100F88005395C9F77EF41F16BA0B620B730B840BCB
:100F9800BAF09150A1F0FF0FBB1F661F771F881F83
:100FA800C2F70EC0BA0F621F731F841F48F48795DB
:100FB80077956795B795F7959E3F08F0B0CF9395CD
:0E0FC800880F08F09927EE0F979587950895EA
:100FD60085EC0E94970983E40E94690986EC0E94C9
:100FE600970981E40E94690987EC0E9497098CE4BD
:100FF6000E94690988EC0E94970983E40E946909A6
:1010060089EC0E94970985E50E9469098AEC0E948D
:1010160097098CE40E9469098BEC0E94970981E488
:101026000E9469098CEC0E9497098EE40E94690966
:101036008DEC0E94970984E40E9469098EEC0E9457
:1010460097098FE40E9469098FEC0E94970981E055
:061056000E9469090895E3
:10105C00E89409C097FB3EF4909580957095619546
:10106C007F4F8F4F9F4F9923A9F0F92F96E9BB27FC
:10107C009395F695879577956795B795F111F8CF78
:10108C00FAF4BB0F11F460FF1BC06F5F7F4F8F4FE3
:10109C009F4F16C0882311F096E911C0772321F0D9
:1010AC009EE8872F762F05C0662371F096E8862F71
:1010BC0070E060E02AF09A95660F771F881FDAF7C8
:0A10CC00880F9695879597F908950F
:1010D6008F3F910509F048F481E090E09093290153
:1010E600809328010E94950008959C013A952F3F10
:1010F600310548F482E090E090932901809328011D
:101106000E94950008959C012F5F31402F3F3105C5
:1011160048F483E090E090932901809328010E948F
:10112600950008958E5F92408230914040F484E0AD
:1011360090E090932901809328010E9495000895DC
:101146000E94C50989E80E94970980E50E946909FD
:101156008AE80E9497098AE30E9469098EE80E943C
:10116600970988E40E9469098FE80E9497098AE72F
:101176000E9469098BE80E9497098091220190914B
:1011860023010E940A098CE80E9497098091240194
:10119600909125010E940A098DE80E949709809185
:0C11A6002601909127010E940A0908957B
:1011B20080E80E9497098DE40E94690981E80E94F3
:1011C20097098FE60E94690982E80E94970984E6DE
:1011D2000E94690983E80E9497098AE30E946909CB
:1011E20080EC0E9497098DE40E94690981EC0E94BB
:1011F200970983E70E94690982EC0E94970987E6B2
:101202000E94690983EC0E9497098AE30E94690996
:0212120008953D
:101214008A30910560F5FC01EC5CFF4F0C94440BA3
:1012240080E30E946909089581E30E946909089591
:1012340082E30E946909089583E30E94690908957D
:1012440084E30E946909089585E30E946909089569
:1012540086E30E946909089587E30E946909089555
:1012640088E30E946909089589E30E946909089541
:101274000E946F0A88F09F5798F0B92F9927B751A9
:10128400B0F0E1F0660F771F881F991F1AF0BA9526
:10129400C9F714C0B13091F00E94370BB1E0089542
:1012A4000C94370B672F782F8827B85F39F0B93F34
:1012B400CCF3869577956795B395D9F73EF49095D9
:0E12C4008095709561957F4F8F4F9F4F0895D5
:1012D20095B1906295B920E030E021C02115310529
:1012E20081F495B1907F95B995B1482F42954F7091
:1012F200942B95B995B1906195B995B19F7E95B9A9
:101302000CC095B1907F95B995B1982B95B995B1CF
:10131200906195B995B19F7E95B92F5F3F4F22306D
:0C1322003105E4F285B18F7D85B9089596
:10132E0095B19F7D95B920E030E021C021153105A2
:10133E0081F495B1907F95B995B1482F42954F7034
:10134E00942B95B995B1906195B995B19F7E95B94C
:10135E000CC095B1907F95B995B1982B95B995B173
:10136E00906195B995B19F7E95B92F5F3F4F223011
:0C137E003105E4F285B18F7D85B908953A
:10138A001092250110922401109223011092220139
:10139A00843691056CF0845691092091220130918E
:1013AA0023012F5F3F4F3093230120932201F0CF77
:1013BA008A30910564F00A97209124013091250121
:1013CA002F5F3F4F3093250120932401F1CF909353
:0813DA0027018093260108950C
:1013E2000E946F0A10F40C94610BE894E0E0BB27B2
:1013F2009F57F0F02AED3FE049EC06C0EE0FBB0F1D
:10140200661F771F881F28F0B23A620773078407A6
:1014120028F0B25A620B730B840BE3959A9572F71C
:10142200803830F49A95BB0F661F771F881FD2F75A
:0614320090480C94D40A5E
:10143800DF93CF931F930F93FF92EF92DF927B017D
:101448008C01689406C0DA2EEF010E941A07FE018B
:10145800E894A5912591359145915591A6F3EF0111
:101468000E948407FE019701A801DA9469F7DF90CA
:0E147800EF90FF900F911F91CF91DF9108959B
:10148600990F0008550FAA0BE0E8FEEF161617068F
:10149600E807F907C0F012161306E407F50798F0F7
:1014A600621B730B840B950B39F40A2661F0232B10
:1014B600242B252B21F408950A2609F4A140A6958C
:0814C6008FEF811D811D0895C7
:1014CE0057FD9058440F551F59F05F3F71F04795E7
:1014DE00880F97FB991F61F09F3F79F087950895CC
:1014EE00121613061406551FF2CF4695F1DF08C0EB
:1014FE00161617061806991FF1CF86957105610508
:04150E0008940895A0
:10151200EF93E0FF07C0A2EA2AED3FE049EC5FEB60
:101522000E9484070E94B10A0F90039401FC905814
:08153200ECE7F0E00C949D0AC7
:10153A009F938F937F936F93FF93EF939B01AC01DC
:10154A000E945D0BEF91FF910E941C0A2F913F911F
:08155A004F915F910C945D0BB1
:10156200092E0394000C11F4882352F0BB0F40F4AF
:10157200BF2B11F460FF04C06F5F7F4F8F4F9F4FEF
:021582000895CA
:1015840095B1907F95B995B1892B85B985B18F7D3A
:1015940085B985B1806185B985B18F7E85B9089596
:1015A4009F3F31F0915020F4879577956795B795D3
:0C15B400880F911D9695879597F9089572
:1015C0008536910538F0873E23E0920728F087EEB4
:0A15D00093E0089584E690E008958A
:1015DA0080912A0190912B010E94E00A90932D019B
:0A15EA0080932C010E94A3080895CD
:1015F40082E00E94C20A82E00E94C20A88E00E943D
:04160400C20A089579
:101608008FEE80937A0010927B0080E480937C00B8
:02161800089533
:0E161A0080E00E94C20A8CE00E94C20A08957D
:0E16280080912A0190912B010E946B08089579
:0E1636005058BB27AA270E9484070C94B10AC3
:0E1644000E943A096894B1110C94380B089575
:0E16520000240A9416161706180609060895B5
:0E16600000240A9412161306140605060895B7
:0E166E00E894BB2766277727CB0197F90895EC
:0C167C0097F99F6780E870E060E0089537
:0C168800EE0FFF1F0590F491E02D099477
:0A1694000E94430A08F481E0089563
:0A169E000E94F109E3950C94890AFB
:0A16A8000E94430A08F48FEF089532
:0816B2000E94AB060C94B10A82
:0816BA000E941A070C94B10A0A
:0616C2009FEF80EC08958B
:0416C8000C9400007E
:0816CC00303030303030303096
:0416D400D00F4940AA
:0416D8007233DC3A53
:0216DC0001000B
:0216DE006400A6
:0116E00030D9
:0116E10030D8
:0116E2007F88
:0116E3007F87
:00000001FF
