:100000000C946B000C947D0B0C947D0B0C947D0B6D
:100010000C947D0B0C947D0B0C947D0B0C947D0B40
:100020000C947D0B0C947D0B0C947D0B0C947D0B30
:100030000C947D0B0C947D0B0C947D0B0C947D0B20
:100040000C947D0B0C947D0B0C947D0B0C947D0B10
:100050000C947D0B0C94AE040C947D0B0C947D0BD6
:100060000C947D0B0C947D0B2B092F093309370958
:100070003B093F09430947094B094F0905A84CCDE6
:10008000B2D44EB93836A9020C50B9918688083CD2
:10009000A6AAAA2ABE000000803F0100010800169F
:1000A000FE0108011080011001140017060114015F
:1000B00018800118011C00170A011C012880012862
:1000C000012A00170E012A012C80012C0132001791
:1000D00010013201348011241FBECFEFD8E0DEBF03
:1000E000CDBFEAE9F0E040E017C0B591A5913591A8
:1000F0002591059107FD0CC095918591EF01F92F90
:10010000E82F05900D92A217B307D9F7FE0104C09E
:100110001D92A217B307E1F7E63DF40731F70E94FD
:0A012000A4020C949300F894FFCFA2
:10012A008230910509F48BC01CF4019749F00895B7
:10013A008330910509F405C1049709F481C1089532
:10014A0085E80E94B00981E40E94820986E80E943B
:10015A00B0098DE40E94820987E80E94B00981E013
:10016A000E94820989E80E94B00986E40E948209F5
:10017A008AE80E94B0098AE30E9482098DE80E94F7
:10018A00B00980EB0E9482098CE80E94B00980EBDA
:10019A000E9482098BE80E94B00980EB0E948209C2
:1001AA008EE80E94B00988E40E9482098FE80E94C2
:1001BA00B0098AE70E94820985EC0E94B00980EBA7
:1001CA000E94820986EC0E94B00980EB0E94820993
:1001DA0087EC0E94B00980EB0E94820988EC0E9499
:1001EA00B00981E00E94820989EC0E94B00981E08D
:1001FA000E9482098AEC0E94B00981E00E94820969
:10020A008BEC0E94B00981E00E9482098CEC0E946A
:10021A00B00981E00E9482098DEC0E94B00981E058
:10022A000E9482098EEC0E94B00981E00E94820934
:10023A008FEC0E94B00981E00E948209089585E846
:10024A000E94B00986E40E94820986E80E94B009E9
:10025A008DE40E94820987E80E94B00981E00E9429
:10026A00820989E80E94B00989E80E94B00986E4F7
:10027A000E9482098AE80E94B0098AE30E948209E0
:10028A008DE80E94B00980EB0E9482098CE80E94E6
:10029A00B00980EB0E9482098BE80E94B00980EBCA
:1002AA000E9482098EE80E94B00988E40E948209AD
:1002BA008FE80E94B0098AE70E94820985EC0E94B1
:1002CA00B00980EB0E94820986EC0E94B00980EB9B
:1002DA000E94820987EC0E94B00980EB0E94820981
:1002EA0088EC0E94B00981E00E94820989EC0E9490
:1002FA00B00981E00E9482098AEC0E94B00981E07B
:10030A000E9482098BEC0E94B00981E00E94820956
:10031A008CEC0E94B00981E00E9482098DEC0E9457
:10032A00B00981E00E9482098EEC0E94B00981E046
:10033A000E9482098FEC0E94B00981E00E94820922
:10034A00089585E80E94B00981E40E94820986E83E
:10035A000E94B00983E50E94820987E80E94B009D9
:10036A008BE40E94820989E80E94B00984E50E9410
:10037A0082098AE80E94B0098AE30E9482098DE80C
:10038A000E94B00980EB0E9482098CE80E94B009A1
:10039A0080EB0E9482098BE80E94B00980EB0E94E0
:1003AA0082098EE80E94B00982E60E9482098FE8DB
:1003BA000E94B00983E70E94820985EC0E94B00975
:1003CA0080EB0E94820986EC0E94B00980EB0E94B1
:1003DA00820987EC0E94B0098EE20E94820988ECA9
:1003EA000E94B00980EB0E94820989EC0E94B00940
:1003FA0080EB0E9482098AEC0E94B0098EE20E9478
:10040A0082098BEC0E94B00980EB0E9482098CEC75
:10041A000E94B00980EB0E9482098DEC0E94B0090B
:10042A008EE20E9482098EEC0E94B00980EB0E9443
:10043A0082098FEC0E94B00980EB0E94820908951C
:10044A0085E80E94B00986E40E94820986E80E9433
:10045A00B00983E50E94820987E80E94B0098BE40B
:10046A000E94820989E80E94B00984E50E948209F3
:10047A008AE80E94B0098AE30E9482098DE80E94F4
:10048A00B00980EB0E9482098CE80E94B00980EBD7
:10049A000E9482098BE80E94B00980EB0E948209BF
:1004AA008EE80E94B00982E60E9482098FE80E94C3
:1004BA00B00983E70E94820985EC0E94B00980EBAB
:1004CA000E94820986EC0E94B00980EB0E94820990
:1004DA0087EC0E94B0098EE20E94820988EC0E9491
:1004EA00B00980EB0E94820989EC0E94B00980EB76
:1004FA000E9482098AEC0E94B0098EE20E94820957
:10050A008BEC0E94B00980EB0E9482098CEC0E945D
:10051A00B00980EB0E9482098DEC0E94B0098EE23C
:10052A000E9482098EEC0E94B00980EB0E94820927
:0E053A008FEC0E94B00980EB0E9482090895A8
:10054800CF93DF93CDB7DEB727970FB6F894DEBF0A
:100558000FBECDBF8FEF8AB98FE384B917B818B82B
:1005680015B8F8940E941D0B78940E94130B0E94F2
:10057800260B0E94F20881E090E00E9495002090EE
:100588002A0130902B013694279436942794298297
:100598002092330100912C0110912D01B801012EF8
:1005A800000C880B990B0E9449084B015C01C09014
:1005B8001401D0901501E0901601F0901701A701E1
:1005C80096010E94760B60930C0170930D01809345
:1005D8000E0190930F0180912801909129019F832A
:1005E8008E83019709F03FC0622D6695662E712CA7
:1005F8006091100170911101809112019091130185
:100608009B01AC010E94350B9B01AC01C501B401F3
:100618000E94760B9B01AC01C701B6010E94760BC4
:100628000E94680B6A837B838C839D83B301770C5C
:10063800880B990B0E9449082A813B814C815D8176
:100648000E94760B2B013C016091310170E080E043
:1006580090E00E944908A30192010E94350B0E9474
:100668005309609332018E819F81029709F043C03C
:100678006091100170911101809112019091130104
:100688009B01AC010E94350B9B01AC01C701B6016F
:100698000E94760B2B013C01B801620D711D072EDB
:1006A800000C880B990B0E9449089B01AC01C301FF
:1006B800B2010E94760B0E94680B2B013C016091ED
:1006C800300170E080E090E00E944908A3019201A7
:1006D8000E94760B2B013C016091310170E080E0B3
:1006E80090E00E944908A30192010E94350B0E94E4
:1006F8005309609332018E819F81039709F041C0AD
:1007080099819A3028F4809131018093320139C05F
:100718002694312C60911001709111018091120181
:10072800909113019B01AC010E94350B9B01AC0118
:10073800C501B4010E94760B9B01AC01C701B6014B
:100748000E94760B0E94680B2B013C01B101330C0F
:10075800880B990B0E944908A30192010E94760B0D
:100768002B013C016091310170E080E090E00E9433
:100778004908A30192010E94350B0E945309609316
:1007880032018E819F81049709F076C099819A3051
:10079800C8F560911001709111018091120190913A
:1007A80013019B01AC010E94350B9B01AC01C501F3
:1007B800B4010E94760B9B01AC01C701B6010E94EF
:1007C800760B0E94680B6B017C016091300170E030
:1007D80080E090E00E944908A70196010E94760BEC
:1007E8006B017C016091310170E080E090E00E9433
:1007F8004908A70196010E94350B0E94530960938E
:1008080032013AC020E030E040E850E46091100145
:100818007091110180911201909113010E94760B41
:100828009B01AC01C501B4010E94760B9B01AC0190
:10083800C701B6010E94760B0E94680B6B017C0110
:100848006091300170E080E090E00E944908A701C3
:1008580096010E94760B6B017C016091310170E07A
:1008680080E090E00E944908A70196010E94350B9C
:100878000E94530960933201809132018BB9209113
:1008880018013091190140911A0150911B01609192
:1008980014017091150180911601909117010E9421
:1008A800350B609314017093150180931601909392
:1008B800170160910C0170910D0180910E019091CA
:1008C8000F0120E030E040E85FE30E946D0B8823D1
:1008D80044F0109214011092150110921601109212
:1008E80017018091280190912901039734F4809190
:1008F8001C0190911D010E94C405809128019091CE
:100908002901039744F060911C0170911D0180E05A
:1009180091E00E945206329B32CEECE7F0E08081F3
:100928008160808302C00E942D0B339BFCCF02C0E4
:100938000E94060B349BFCCF8091280190912901DD
:100948000E9495000E940408ECE7F0E080818E7F09
:04095800808315CEB5
:10095C001F920F920FB60F921124CF92DF92EF924B
:10096C00FF920F931F932F933F934F935F936F932C
:10097C007F938F939F93AF93BF93CF93DF93EF931B
:10098C00FF93009178001091790010932B01009344
:10099C002A01C0912801D0912901C330D1050CF056
:1009AC005BC0011582E0180708F520911801309101
:1009BC00190140911A0150911B016091080170912D
:1009CC00090180910A0190910B010E94350B6093F3
:1009DC0008017093090180930A0190930B0181E047
:1009EC0090E090931F0180931E0136C080911E01F0
:1009FC0090911F01019781F5C0900801D0900901D9
:100A0C00E0900A01F0900B0120E030E0A901C70151
:100A1C00B6010E94630B882379F0A701960160E070
:100A2C0070E080E090E40E94720B0E943B0B70938C
:100A3C001D0160931C0104C010921D0110921C0139
:100A4C0010921F0110921E011092080110920901C0
:100A5C0010920A0110920B0123970CF476C020918E
:100A6C0018013091190140911A0150911B016091AC
:100A7C0008017091090180910A0190910B010E946B
:100A8C00350B6B017C016093080170930901809315
:100A9C000A0190930B01359911C00B30110520F40C
:100AAC0080E380932F0103C081E380932F0181E0C9
:100ABC0090E090931F0180931E0147C080912F01FD
:100ACC0080932E0120911E0130911F0121303105A0
:100ADC00E1F52091200130912101F901E050FF4F07
:100AEC008083C9010196909321018093200110927B
:100AFC001F0110921E01089721F4109221011092EF
:100B0C00200120E030E0A901C701B6010E94630B6F
:100B1C00882379F0A701960160E070E080E89FE3FC
:100B2C000E94720B0E943B0B70931D0160931C0181
:100B3C0004C010921D0110921C0110920801109219
:100B4C00090110920A0110920B01FF91EF91DF91B4
:100B5C00CF91BF91AF919F918F917F916F915F9149
:100B6C004F913F912F911F910F91FF90EF90DF903C
:0C0B7C00CF900F900FBE0F901F901895A7
:100B8800CF93DF93EC0160912A0170912B0180E0F3
:100B980090E00E94470826E636E646E65FE30E94B4
:100BA800760B0E945309CB010E94DE0985EC0E9456
:100BB800B00980912201909123010E94230986ECBB
:100BC8000E94B00980912401909125010E94230977
:100BD80087EC0E94B00980912601909127010E941C
:100BE800230988EC0E94B00981E00E94820989ECFF
:100BF8000E94B00981E00E9482098AEC0E94B00933
:100C080081E00E9482098BEC0E94B00981E00E9479
:100C180082098CEC0E94B00981E00E9482098DEC67
:100C28000E94B00981E00E9482098EEC0E94B009FE
:100C380081E00E9482098FEC0E94B00981E00E9445
:100C4800820989E80E94B00986E40E9482098AE83C
:100C58000E94B0098AE30E948209CE010E94DE093F
:100C68008BE80E94B00980912201909123010E9493
:100C780023098CE80E94B0098091240190912501F4
:100C88000E9423098DE80E94B00980912601909165
:0C0C980027010E942309DF91CF910895ED
:100CA400CF93DF93EC01CB010E94DE0985EC0E9417
:100CB400B00988810E94820986EC0E94B00989816A
:100CC4000E94820987EC0E94B0098EE20E94820988
:100CD40088EC0E94B0098A810E94820989EC0E94F2
:100CE400B0098B810E9482098AEC0E94B0098EE2CD
:100CF4000E9482098BEC0E94B0098C810E948209B7
:100D04008CEC0E94B0098D810E9482098DEC0E94B6
:100D1400B0098EE20E9482098EEC0E94B0098E8195
:100D24000E9482098FEC0E94B0098F810E9482097F
:100D340089E80E94B00984E50E9482098AE80E9439
:100D4400B0098AE30E9482098BE80E94B00980916D
:100D54002201909123010E9423098CE80E94B0098A
:100D640080912401909125010E9423098DE80E941D
:100D7400B00980912601909127010E942309DF91F7
:040D8400CF9108956E
:100D880010C00E94490B58F00E94420B40F029F411
:100D98005F3F29F00C94570B51110C94510B0C9494
:100DA8007A0B0E94800A68F39923B1F3552391F3D3
:100DB800951B550BBB27AA2762177307840738F0C2
:100DC8009F5F5F4F220F331F441FAA1FA9F335D01F
:100DD8000E2E3AF0E0E832D091505040E695001CD3
:100DE800CAF72BD0FE2F29D0660F771F881FBB1F8D
:100DF800261737074807AB07B0E809F0BB0B802D6B
:100E0800BF01FF2793585F4F3AF09E3F510578F096
:100E18000C94570B0C94510B5F3FE4F3983ED4F3BA
:100E2800869577956795B795F7959F5FC9F7880F6A
:100E3800911D9695879597F90895E1E0660F771FBC
:100E4800881FBB1F621773078407BA0720F0621B4D
:0E0E5800730B840BBA0BEE1F88F7E09508951C
:100E66000FC00E94420B38F00E94490B20F09523D8
:100E760011F00C94570B0C947A0B11240C94510B13
:100E86000E94800A70F3959FC1F3950F50E0551F9D
:100E9600629FF001729FBB27F00DB11D639FAA27C9
:100EA600F00DB11DAA1F649F6627B00DA11D661F18
:100EB600829F2227B00DA11D621F739FB00DA11D39
:100EC600621F839FA00D611D221F749F3327A00DF3
:100ED600611D231F849F600D211D822F762F6A2F8F
:100EE60011249F5750409AF0F1F088234AF0EE0FF4
:100EF600FF1FBB1F661F771F881F91505040A9F721
:100F06009E3F510580F00C94570B0C94510B5F3F9C
:100F1600E4F3983ED4F3869577956795B795F7955C
:100F2600E7959F5FC1F7FE2B880F911D96958795D4
:040F360097F908958A
:100F3A0011C00E94420B38F00E94490B20F039F48C
:100F4A009F3F19F426F40C947A0B0EF4E095E7FB14
:100F5A000C94570BE92F0E94800A58F3BA176207BC
:100F6A0073078407950720F079F4A6F50C94500BC3
:100F7A000EF4E0950B2EBA2FA02D0B01B9019001AA
:100F8A000C01CA01A0011124FF27591B99F0593FEE
:100F9A0050F4503E68F11A16F040A22F232F342F36
:100FAA004427585FF3CF469537952795A795F04084
:100FBA005395C9F77EF41F16BA0B620B730B840B99
:100FCA00BAF09150A1F0FF0FBB1F661F771F881F51
:100FDA00C2F70EC0BA0F621F731F841F48F48795A9
:100FEA0077956795B795F7959E3F08F0B0CF93959B
:0E0FFA00880F08F09927EE0F979587950895B8
:1010080085EC0E94B00983E40E94820986EC0E9464
:10101800B00981E40E94820987EC0E94B0098CE43F
:101028000E94820988EC0E94B00983E40E94820928
:1010380089EC0E94B00985E50E9482098AEC0E9429
:10104800B0098CE40E9482098BEC0E94B00981E40B
:101058000E9482098CEC0E94B0098EE40E948209E9
:101068008DEC0E94B00984E40E9482098EEC0E94F3
:10107800B0098FE40E9482098FEC0E94B00981E0D8
:061088000E948209089598
:10108E00E89409C097FB3EF4909580957095619514
:10109E007F4F8F4F9F4F9923A9F0F92F96E9BB27CA
:1010AE009395F695879577956795B795F111F8CF46
:1010BE00FAF4BB0F11F460FF1BC06F5F7F4F8F4FB1
:1010CE009F4F16C0882311F096E911C0772321F0A7
:1010DE009EE8872F762F05C0662371F096E8862F3F
:1010EE0070E060E02AF09A95660F771F881FDAF796
:0A10FE00880F9695879597F90895DD
:101108008F3F910509F048F481E090E09093290120
:10111800809328010E94950008959C013A952F3FDD
:10112800310548F482E090E09093290180932801EA
:101138000E94950008959C012F5F31402F3F310593
:1011480048F483E090E090932901809328010E945D
:10115800950008958E5F92408230914040F484E07B
:1011680090E090932901809328010E9495000895AA
:101178000E94DE0989E80E94B00980E50E94820980
:101188008AE80E94B0098AE30E9482098EE80E94D8
:10119800B00988E40E9482098FE80E94B0098AE7B2
:1011A8000E9482098BE80E94B009809122019091E7
:1011B80023010E9423098CE80E94B0098091240130
:1011C800909125010E9423098DE80E94B009809121
:0C11D8002601909127010E942309089530
:1011E40080E80E94B0098DE40E94820981E80E948F
:1011F400B0098FE60E94820982E80E94B00984E661
:101204000E94820983E80E94B0098AE30E9482094D
:1012140080EC0E94B0098DE40E94820981EC0E9456
:10122400B00983E70E94820982EC0E94B00987E634
:101234000E94820983EC0E94B0098AE30E94820919
:0212440008950B
:101246008A30910560F5FC01EC5CFF4F0C945D0B58
:1012560080E30E948209089581E30E94820908952D
:1012660082E30E948209089583E30E948209089519
:1012760084E30E948209089585E30E948209089505
:1012860086E30E948209089587E30E9482090895F1
:1012960088E30E948209089589E30E9482090895DD
:1012A6000E94880A88F09F5798F0B92F9927B7515E
:1012B600B0F0E1F0660F771F881F991F1AF0BA95F4
:1012C600C9F714C0B13091F00E94500BB1E00895F7
:1012D6000C94500B672F782F8827B85F39F0B93FE9
:1012E600CCF3869577956795B395D9F73EF49095A7
:0E12F6008095709561957F4F8F4F9F4F0895A3
:1013040095B1906295B920E030E021C021153105F6
:1013140081F495B1907F95B995B1482F42954F705E
:10132400942B95B995B1906195B995B19F7E95B976
:101334000CC095B1907F95B995B1982B95B995B19D
:10134400906195B995B19F7E95B92F5F3F4F22303B
:0C1354003105E4F285B18F7D85B9089564
:1013600095B19F7D95B920E030E021C02115310570
:1013700081F495B1907F95B995B1482F42954F7002
:10138000942B95B995B1906195B995B19F7E95B91A
:101390000CC095B1907F95B995B1982B95B995B141
:1013A000906195B995B19F7E95B92F5F3F4F2230DF
:0C13B0003105E4F285B18F7D85B9089508
:1013BC001092250110922401109223011092220107
:1013CC00843691056CF0845691092091220130915C
:1013DC0023012F5F3F4F3093230120932201F0CF45
:1013EC008A30910564F00A972091240130912501EF
:1013FC002F5F3F4F3093250120932401F1CF909321
:08140C002701809326010895D9
:101414000E94880A10F40C947A0BE894E0E0BB274D
:101424009F57F0F02AED3FE049EC06C0EE0FBB0FEA
:10143400661F771F881F28F0B23A62077307840774
:1014440028F0B25A620B730B840BE3959A9572F7EA
:10145400803830F49A95BB0F661F771F881FD2F728
:0614640090480C94ED0A13
:10146A00DF93CF931F930F93FF92EF92DF927B014B
:10147A008C01689406C0DA2EEF010E943307FE0140
:10148A00E894A5912591359145915591A6F3EF01DF
:10149A000E949D07FE019701A801DA9469F7DF907F
:0E14AA00EF90FF900F911F91CF91DF91089569
:1014B800990F0008550FAA0BE0E8FEEF161617065D
:1014C800E807F907C0F012161306E407F50798F0C5
:1014D800621B730B840B950B39F40A2661F0232BDE
:1014E800242B252B21F408950A2609F4A140A6955A
:0814F8008FEF811D811D089595
:1015000057FD9058440F551F59F05F3F71F04795B4
:10151000880F97FB991F61F09F3F79F08795089599
:10152000121613061406551FF2CF4695F1DF08C0B8
:10153000161617061806991FF1CF869571056105D5
:04154000089408956E
:10154400EF93E0FF07C0A2EA2AED3FE049EC5FEB2E
:101554000E949D070E94CA0A0F90039401FC9058B0
:08156400ECE7F0E00C94B60A7C
:10156C009F938F937F936F93FF93EF939B01AC01AA
:10157C000E94760BEF91FF910E94350A2F913F91BB
:08158C004F915F910C94760B66
:10159400092E0394000C11F4882352F0BB0F40F47D
:1015A400BF2B11F460FF04C06F5F7F4F8F4F9F4FBD
:0215B400089598
:1015B60095B1907F95B995B1892B85B985B18F7D08
:1015C60085B985B1806185B985B18F7E85B9089564
:1015D6009F3F31F0915020F4879577956795B795A1
:0C15E600880F911D9695879597F9089540
:1015F2008536910538F0873E23E0920728F087EE82
:0A16020093E0089584E690E0089557
:10160C0080912A0190912B010E94F90A90932D014F
:0A161C0080932C010E94BC08089581
:1016260082E00E94DB0A82E00E94DB0A88E00E94D8
:04163600DB0A08952E
:10163A008FEE80937A0010927B0080E480937C0086
:02164A00089501
:0E164C0080E00E94DB0A8CE00E94DB0A089519
:0E165A0080912A0190912B010E94840808952E
:0E1668005058BB27AA270E949D070C94CA0A5F
:0E1676000E9453096894B1110C94510B089511
:0E16840000240A941616170618060906089583
:0E16920000240A941216130614060506089585
:0E16A000E894BB2766277727CB0197F90895BA
:0C16AE0097F99F6780E870E060E0089505
:0C16BA00EE0FFF1F0590F491E02D099445
:0A16C6000E945C0A08F481E0089518
:0A16D0000E940A0AE3950C94A20A96
:0A16DA000E945C0A08F48FEF0895E7
:0816E4000E94C4060C94CA0A1E
:0816EC000E9433070C94CA0AA6
:0616F4009FEF80EC089559
:0416FA000C9400004C
:0816FE00303030303030303064
:04170600D00F494077
:04170A007233DC3A20
:02170E000100D8
:02171000640073
:0117120030A6
:0117130030A5
:011714007F55
:011715007F54
:00000001FF
