:100000000C946B000C94830C0C94830C0C94830C58
:100010000C94830C0C94830C0C94830C0C94830C24
:100020000C94830C0C94830C0C94830C0C94830C14
:100030000C94830C0C94830C0C94830C0C94830C04
:100040000C94830C0C94830C0C94830C0C94830CF4
:100050000C94830C0C945F050C94830C0C94830C0F
:100060000C94830C0C94830C060A0A0A0E0A120ADA
:10007000160A1A0A1E0A220A260A2A0A05A84CCDBE
:10008000B2D44EB93836A9020C50B9918688083CD2
:10009000A6AAAA2ABE000000803F0100010800199C
:1000A0000A01080110800110011400191201140145
:1000B00018800118011C001916011C012A80012A50
:1000C000012C00191A012C012E80012E0134001977
:1000D0001C013401368011241FBECFEFD8E0DEBFF3
:1000E000CDBFEAE9F0E040E017C0B591A5913591A8
:1000F0002591059107FD0CC095918591EF01F92F90
:10010000E82F05900D92A217B307D9F7FE0104C09E
:100110001D92A217B307E1F7E63DF40731F70E94FD
:0A01200095000C949300F894FFCFB3
:10012A008FEF8AB984B917B818B815B8F8940E942D
:10013A00230C78940E94190C0E942C0C0E94CD0961
:10014A0081E090E00E94500385B18F7B85B985B12B
:10015A00806885B922C0329B20C0ECE7F0E080813C
:10016A008160808302C00E94330C339BFCCF02C0A3
:10017A000E940C0C349BFCCF80912A0190912B0198
:10018A000E94500380911E0190911F010E94BC0899
:10019A00ECE7F0E080818E7F8083349BDCCF809116
:1001AA002C0190912D019695879596958795809328
:1001BA00350160912E0170912F01072E000C880BDA
:1001CA00990B0E9424092091140130911501409144
:1001DA001601509117010E947C0C60930C017093D8
:1001EA000D0180930E0190930F0180912A01909145
:1001FA002B0103979CF480911E0190911F01019796
:10020A000A9728F010921D0110921C011AC081E071
:10021A0090E090931D0180931C0113C080911E01F0
:10022A0090911F0108978934910528F010921D01B9
:10023A0010921C0106C081E090E090931D0180930A
:10024A001C0180911C0190911D01892B69F48091F8
:10025A001E0190911F010E94BC0885B18F7B85B950
:10026A0085B1806885B9EEC185B18F7785B985B1C9
:10027A00806485B9C0912A01D0912B01C130D10582
:10028A0009F04AC0609135016695E62EF12C60911D
:10029A0010017091110180911201909113019B013B
:1002AA00AC010E943B0C4B015C0160912E017091E4
:1002BA002F01072E000C880B990B0E942409A50117
:1002CA0094010E947C0C20911401309115014091F7
:1002DA001601509117010E947C0C0E946E0C4B0172
:1002EA005C01B701FF0C880B990B0E942409A50138
:1002FA0094010E947C0C6B017C016091330170E0D7
:10030A0080E090E00E942409A70196010E943B0C1C
:10031A000E948C0A60933401C230D10509F057C09B
:10032A006091100170911101809112019091130155
:10033A009B01AC010E943B0C2091140130911501E4
:10034A0040911601509117010E947C0C6B017C01AF
:10035A0090913501969520912E0130912F01929F0F
:10036A00A001939F500D1124CA016FEF70E00E9403
:10037A00A70B620F731F072E000C880B990B0E94A4
:10038A0024099B01AC01C701B6010E947C0C0E94A2
:10039A006E0C6B017C016091320170E080E090E0AC
:1003AA000E942409A70196010E947C0C6B017C0122
:1003BA006091330170E080E090E00E942409A70177
:1003CA0096010E943B0C0E948C0A60933401C33050
:1003DA00D10509F051C0609135016A3028F4809145
:1003EA0033018093340148C06695E62EF12C609162
:1003FA0010017091110180911201909113019B01DA
:10040A00AC010E943B0C4B015C0160912E01709182
:10041A002F01072E000C880B990B0E942409A501B5
:10042A0094010E947C0C2091140130911501409195
:10043A001601509117010E947C0C0E946E0C4B0110
:10044A005C01B701FF0C880B990B0E942409A501D6
:10045A0094010E947C0C6B017C016091330170E075
:10046A0080E090E00E942409A70196010E943B0CBB
:10047A000E948C0A60933401249709F094C08091F9
:10048A0035018A3008F047C060911001709111015E
:10049A0080911201909113019B01AC010E943B0CC7
:1004AA006B017C0160912E0170912F01072E000CC7
:1004BA00880B990B0E942409A70196010E947C0CC3
:1004CA0020911401309115014091160150911701A4
:1004DA000E947C0C0E946E0C6B017C0160913201BF
:1004EA0070E080E090E00E942409A70196010E9432
:1004FA007C0C6B017C016091330170E080E090E03C
:10050A000E942409A70196010E943B0C0E948C0AB2
:10051A006093340148C020E030E040E850E4609144
:10052A0010017091110180911201909113010E94A2
:10053A007C0C6B017C0160912E0170912F01072EBA
:10054A00000C880B990B0E942409A70196010E94AE
:10055A007C0C2091140130911501409116015091A3
:10056A0017010E947C0C0E946E0C6B017C01609149
:10057A00320170E080E090E00E942409A701960110
:10058A000E947C0C6B017C016091330170E080E079
:10059A0090E00E942409A70196010E943B0C0E9448
:1005AA008C0A60933401809134018BB9209118012F
:1005BA003091190140911A0150911B016091140167
:1005CA007091150180911601909117010E943B0CC0
:1005DA00609314017093150180931601909317018B
:1005EA0060910C0170910D0180910E0190910F01A3
:1005FA0020E030E040E85FE30E94730C882344F077
:10060A0010921401109215011092160110921701FE
:10061A0080912A0190912B01039734F480911E0155
:10062A0090911F010E947C0680912A0190912B01D2
:10063A00039744F060911E0170911F0180E091E0E0
:10064A000E940A07329BABCD85B18F7B85B985B1F4
:10065A00806885B9ECE7F0E080818160808302C020
:10066A000E94330C339BFCCF02C00E940C0C349BBB
:10067A00FCCF80912A0190912B010E945003809116
:10068A001E0190911F010E94BC08ECE7F0E08081F6
:06069A008E7F808384CDF9
:1006A0008230910509F48BC01CF4019749F008953C
:1006B0008330910509F405C1049709F481C10895B7
:1006C00085E80E945D0A81E40E942E0A86E80E9465
:1006D0005D0A8DE40E942E0A87E80E945D0A81E08F
:1006E0000E942E0A89E80E945D0A86E40E942E0A72
:1006F0008AE80E945D0A8AE30E942E0A8DE80E9421
:100700005D0A80EB0E942E0A8CE80E945D0A80EB55
:100710000E942E0A8BE80E945D0A80EB0E942E0A3E
:100720008EE80E945D0A88E40E942E0A8FE80E94EB
:100730005D0A8AE70E942E0A85EC0E945D0A80EB22
:100740000E942E0A86EC0E945D0A80EB0E942E0A0F
:1007500087EC0E945D0A80EB0E942E0A88EC0E94C2
:100760005D0A81E00E942E0A89EC0E945D0A81E008
:100770000E942E0A8AEC0E945D0A81E00E942E0AE5
:100780008BEC0E945D0A81E00E942E0A8CEC0E9494
:100790005D0A81E00E942E0A8DEC0E945D0A81E0D4
:1007A0000E942E0A8EEC0E945D0A81E00E942E0AB1
:1007B0008FEC0E945D0A81E00E942E0A089585E870
:1007C0000E945D0A86E40E942E0A86E80E945D0A65
:1007D0008DE40E942E0A87E80E945D0A81E00E9453
:1007E0002E0A89E80E945D0A89E80E945D0A86E473
:1007F0000E942E0A8AE80E945D0A8AE30E942E0A5D
:100800008DE80E945D0A80EB0E942E0A8CE80E940F
:100810005D0A80EB0E942E0A8BE80E945D0A80EB45
:100820000E942E0A8EE80E945D0A88E40E942E0A29
:100830008FE80E945D0A8AE70E942E0A85EC0E94DA
:100840005D0A80EB0E942E0A86EC0E945D0A80EB16
:100850000E942E0A87EC0E945D0A80EB0E942E0AFD
:1008600088EC0E945D0A81E00E942E0A89EC0E94B9
:100870005D0A81E00E942E0A8AEC0E945D0A81E0F6
:100880000E942E0A8BEC0E945D0A81E00E942E0AD3
:100890008CEC0E945D0A81E00E942E0A8DEC0E9481
:1008A0005D0A81E00E942E0A8EEC0E945D0A81E0C2
:1008B0000E942E0A8FEC0E945D0A81E00E942E0A9F
:1008C000089585E80E945D0A81E40E942E0A86E868
:1008D0000E945D0A83E50E942E0A87E80E945D0A55
:1008E0008BE40E942E0A89E80E945D0A84E50E943A
:1008F0002E0A8AE80E945D0A8AE30E942E0A8DE889
:100900000E945D0A80EB0E942E0A8CE80E945D0A1C
:1009100080EB0E942E0A8BE80E945D0A80EB0E9409
:100920002E0A8EE80E945D0A82E60E942E0A8FE857
:100930000E945D0A83E70E942E0A85EC0E945D0AF0
:1009400080EB0E942E0A86EC0E945D0A80EB0E94DA
:100950002E0A87EC0E945D0A8EE20E942E0A88EC25
:100960000E945D0A80EB0E942E0A89EC0E945D0ABB
:1009700080EB0E942E0A8AEC0E945D0A8EE20E94A1
:100980002E0A8BEC0E945D0A80EB0E942E0A8CECF2
:100990000E945D0A80EB0E942E0A8DEC0E945D0A87
:1009A0008EE20E942E0A8EEC0E945D0A80EB0E946D
:1009B0002E0A8FEC0E945D0A80EB0E942E0A089599
:1009C00085E80E945D0A86E40E942E0A86E80E945D
:1009D0005D0A83E50E942E0A87E80E945D0A8BE487
:1009E0000E942E0A89E80E945D0A84E50E942E0A70
:1009F0008AE80E945D0A8AE30E942E0A8DE80E941E
:100A00005D0A80EB0E942E0A8CE80E945D0A80EB52
:100A10000E942E0A8BE80E945D0A80EB0E942E0A3B
:100A20008EE80E945D0A82E60E942E0A8FE80E94EC
:100A30005D0A83E70E942E0A85EC0E945D0A80EB26
:100A40000E942E0A86EC0E945D0A80EB0E942E0A0C
:100A500087EC0E945D0A8EE20E942E0A88EC0E94BA
:100A60005D0A80EB0E942E0A89EC0E945D0A80EBF1
:100A70000E942E0A8AEC0E945D0A8EE20E942E0AD3
:100A80008BEC0E945D0A80EB0E942E0A8CEC0E9487
:100A90005D0A80EB0E942E0A8DEC0E945D0A8EE2B8
:100AA0000E942E0A8EEC0E945D0A80EB0E942E0AA4
:0E0AB0008FEC0E945D0A80EB0E942E0A0895D2
:100ABE001F920F920FB60F921124CF92DF92EF92E8
:100ACE00FF920F931F932F933F934F935F936F93C9
:100ADE007F938F939F93AF93BF93CF93DF93EF93B8
:100AEE00FF93009178001091790010932D010093DF
:100AFE002C01C0912A01D0912B01C330D1050CF0ED
:100B0E005BC0011582E0180708F52091180130919D
:100B1E00190140911A0150911B01609108017091C9
:100B2E00090180910A0190910B010E943B0C609388
:100B3E0008017093090180930A0190930B0181E0E3
:100B4E0090E0909321018093200136C08091200186
:100B5E0090912101019781F5C0900801D090090173
:100B6E00E0900A01F0900B0120E030E0A901C701EE
:100B7E00B6010E94690C882379F0A701960160E006
:100B8E0070E080E89FE30E94780C0E94410C709305
:100B9E001F0160931E0104C010921F0110921E01CE
:100BAE001092210110922001109208011092090159
:100BBE0010920A0110920B0123970CF47DC0209124
:100BCE0018013091190140911A0150911B01609149
:100BDE0008017091090180910A0190910B010E9408
:100BEE003B0C6B017C0160930801709309018093AB
:100BFE000A0190930B01359911C00B30110520F4A9
:100C0E0080E38093310103C081E38093310181E061
:100C1E0090E090932101809320014EC0809131018C
:100C2E008093300120912001309121012130310536
:100C3E0009F042C02091220130912301F901E050C8
:100C4E00FF4F8083C9010196909323018093220167
:100C5E001092210110922001089721F41092230185
:100C6E001092220120E030E0A901C701B6010E94D6
:100C7E00690C8823A9F0A7019601C701B6010E944D
:100C8E003B0C9B01AC0160E070E080E89FE30E94AA
:100C9E00780C0E94410C70931F0160931E0104C0DA
:100CAE0010921F0110921E0110920801109209015C
:100CBE0010920A0110920B01FF91EF91DF91CF91EB
:100CCE00BF91AF919F918F917F916F915F914F9156
:100CDE003F912F911F910F91FF90EF90DF90CF904A
:0A0CEE000F900FBE0F901F90189595
:100CF800CF93DF93EC0160912C0170912D0180E07E
:100D080090E00E94220926E636E646E65FE30E9466
:100D18007C0C0E948C0ACB010E94BB0A85EC0E94C5
:100D28005D0A80912401909125010E94FE0986ECBC
:100D38000E945D0A80912601909127010E94FE0978
:100D480087EC0E945D0A80912801909129010E94F8
:100D5800FE0988EC0E945D0A81E00E942E0A89EC57
:100D68000E945D0A81E00E942E0A8AEC0E945D0AB8
:100D780081E00E942E0A8BEC0E945D0A81E00E94AD
:100D88002E0A8CEC0E945D0A81E00E942E0A8DECEE
:100D98000E945D0A81E00E942E0A8EEC0E945D0A84
:100DA80081E00E942E0A8FEC0E945D0A81E00E9479
:100DB8002E0A89E80E945D0A86E40E942E0A8AE8C3
:100DC8000E945D0A8AE30E942E0ACE010E94BB0A95
:100DD8008BE80E945D0A80912401909125010E9470
:100DE800FE098CE80E945D0A8091260190912701F6
:100DF8000E94FE098DE80E945D0A80912801909169
:0C0E080029010E94FE09DF91CF9108959E
:100E1400CF93DF93EC01CB010E94BB0A85EC0E94C7
:100E24005D0A88810E942E0A86EC0E945D0A8981EF
:100E34000E942E0A87EC0E945D0A8EE20E942E0A0E
:100E440088EC0E945D0A8A810E942E0A89EC0E9425
:100E54005D0A8B810E942E0A8AEC0E945D0A8EE252
:100E64000E942E0A8BEC0E945D0A8C810E942E0A3D
:100E74008CEC0E945D0A8D810E942E0A8DEC0E94EA
:100E84005D0A8EE20E942E0A8EEC0E945D0A8E811B
:100E94000E942E0A8FEC0E945D0A8F810E942E0A06
:100EA40089E80E945D0A84E50E942E0A8AE80E946D
:100EB4005D0A8AE30E942E0A8BE80E945D0A8091F3
:100EC4002401909125010E94FE098CE80E945D0A8C
:100ED40080912601909127010E94FE098DE80E94CD
:100EE4005D0A80912801909129010E94FE09DF91F9
:040EF400CF910895FD
:100EF80010C00E944F0C58F00E94480C40F029F492
:100F08005F3F29F00C945D0C51110C94570C0C9414
:100F1800800C0E945D0B68F39923B1F3552391F37C
:100F2800951B550BBB27AA2762177307840738F050
:100F38009F5F5F4F220F331F441FAA1FA9F335D0AD
:100F48000E2E3AF0E0E832D091505040E695001C61
:100F5800CAF72BD0FE2F29D0660F771F881FBB1F1B
:100F6800261737074807AB07B0E809F0BB0B802DF9
:100F7800BF01FF2793585F4F3AF09E3F510578F025
:100F88000C945D0C0C94570C5F3FE4F3983ED4F33B
:100F9800869577956795B795F7959F5FC9F7880FF9
:100FA800911D9695879597F90895E1E0660F771F4B
:100FB800881FBB1F621773078407BA0720F0621BDC
:0E0FC800730B840BBA0BEE1F88F7E0950895AB
:100FD6000FC00E94480C38F00E944F0C20F0952359
:100FE60011F00C945D0C0C94800C11240C94570C8D
:100FF6000E945D0B70F3959FC1F3950F50E0551F4E
:10100600629FF001729FBB27F00DB11D639FAA2757
:10101600F00DB11DAA1F649F6627B00DA11D661FA6
:10102600829F2227B00DA11D621F739FB00DA11DC7
:10103600621F839FA00D611D221F749F3327A00D81
:10104600611D231F849F600D211D822F762F6A2F1D
:1010560011249F5750409AF0F1F088234AF0EE0F82
:10106600FF1FBB1F661F771F881F91505040A9F7AF
:101076009E3F510580F00C945D0C0C94570C5F3F1D
:10108600E4F3983ED4F3869577956795B795F795EB
:10109600E7959F5FC1F7FE2B880F911D9695879563
:0410A60097F9089519
:1010AA0011C00E94480C38F00E944F0C20F039F40D
:1010BA009F3F19F426F40C94800C0EF4E095E7FB9C
:1010CA000C945D0CE92F0E945D0B58F3BA17620766
:1010DA0073078407950720F079F4A6F50C94560C4B
:1010EA000EF4E0950B2EBA2FA02D0B01B901900139
:1010FA000C01CA01A0011124FF27591B99F0593F7D
:10110A0050F4503E68F11A16F040A22F232F342FC4
:10111A004427585FF3CF469537952795A795F04012
:10112A005395C9F77EF41F16BA0B620B730B840B27
:10113A00BAF09150A1F0FF0FBB1F661F771F881FDF
:10114A00C2F70EC0BA0F621F731F841F48F4879537
:10115A0077956795B795F7959E3F08F0B0CF939529
:0E116A00880F08F09927EE0F97958795089546
:10117800CF93DF93EC0185EC0E945D0A83E40E9423
:101188002E0A86EC0E945D0A81E40E942E0A87ECF2
:101198000E945D0A8CE40E942E0A88EC0E945D0A77
:1011A80083E40E942E0A89EC0E945D0A85E50E946C
:1011B8002E0A8AEC0E945D0A8CE40E942E0A8BECAF
:1011C8000E945D0A81E40E942E0A8CEC0E945D0A4E
:1011D8008EE40E942E0A8DEC0E945D0A84E40E942F
:1011E8002E0A8EEC0E945D0A8FE40E942E0A8FEC74
:1011F8000E945D0A81E00E942E0ACE010E94BB0A6D
:101208008BE80E945D0A80912401909125010E943B
:10121800FE098CE80E945D0A8091260190912701C1
:101228000E94FE098DE80E945D0A80912801909134
:0C12380029010E94FE09DF91CF9108956A
:10124400E89409C097FB3EF490958095709561955C
:101254007F4F8F4F9F4F9923A9F0F92F96E9BB2712
:101264009395F695879577956795B795F111F8CF8E
:10127400FAF4BB0F11F460FF1BC06F5F7F4F8F4FF9
:101284009F4F16C0882311F096E911C0772321F0EF
:101294009EE8872F762F05C0662371F096E8862F87
:1012A40070E060E02AF09A95660F771F881FDAF7DE
:0A12B400880F9695879597F9089525
:1012BE008F3F910509F048F481E090E090932B0167
:1012CE0080932A010E94500308959C013A952F3F66
:1012DE00310548F482E090E090932B0180932A012F
:1012EE000E94500308959C012F5F31402F3F31051E
:1012FE0048F483E090E090932B0180932A010E94A2
:10130E00500308958E5F92408230914040F484E005
:10131E0090E090932B0180932A010E945003089530
:10132E000E94BB0A89E80E945D0A80E50E942E0A8F
:10133E008AE80E945D0A8AE30E942E0A8EE80E94C5
:10134E005D0A88E40E942E0A8FE80E945D0A8AE7F1
:10135E000E942E0A8BE80E945D0A809124019091D2
:10136E0025010E94FE098CE80E945D0A80912601EB
:10137E00909127010E94FE098DE80E945D0A8091DE
:0C138E002801909129010E94FE09089599
:10139A0080E80E945D0A8DE40E942E0A81E80E947C
:1013AA005D0A8FE60E942E0A82E80E945D0A84E6A0
:1013BA000E942E0A83E80E945D0A8AE30E942E0A8E
:1013CA0080EC0E945D0A8DE40E942E0A81EC0E9444
:1013DA005D0A83E70E942E0A82EC0E945D0A87E674
:1013EA000E942E0A83EC0E945D0A8AE30E942E0A5A
:0213FA00089554
:1013FC008A30910560F5FC01EC5CFF4F0C94630C9A
:10140C0080E30E942E0A089581E30E942E0A08951B
:10141C0082E30E942E0A089583E30E942E0A089507
:10142C0084E30E942E0A089585E30E942E0A0895F3
:10143C0086E30E942E0A089587E30E942E0A0895DF
:10144C0088E30E942E0A089589E30E942E0A0895CB
:10145C0095B1906295B920E030E022C0211531059C
:10146C0081F495B1907F95B995B1482F42954F7005
:10147C00942B95B995B1906195B995B19F7E95B91D
:10148C000DC095B1907F95B98F7095B1982B95B98A
:10149C0095B1906195B995B19F7E95B92F5F3F4FEE
:0E14AC0022303105DCF285B18F7D85B90895BF
:1014BA0095B19F7D95B920E030E022C02115310514
:1014CA0081F495B1907F95B995B1482F42954F70A7
:1014DA00942B95B995B1906195B995B19F7E95B9BF
:1014EA000DC095B1907F95B98F7095B1982B95B92C
:1014FA0095B1906195B995B19F7E95B92F5F3F4F90
:0E150A0022303105DCF285B18F7D85B9089560
:101518000E94650B88F09F5798F0B92F9927B7510B
:10152800B0F0E1F0660F771F881F991F1AF0BA957F
:10153800C9F714C0B13091F00E94560CB1E008957B
:101548000C94560C672F782F8827B85F39F0B93F6D
:10155800CCF3869577956795B395D9F73EF4909532
:0E1568008095709561957F4F8F4F9F4F08952E
:101576001092270110922601109225011092240143
:10158600843691056CF0845691092091240130919E
:1015960025012F5F3F4F3093250120932401F0CF83
:1015A6008A30910564F00A9720912601309127012F
:1015B6002F5F3F4F3093270120932601F1CF909361
:0815C60029018093280108951A
:1015CE000E94650B10F40C94800CE894E0E0BB27AD
:1015DE009F57F0F02AED3FE049EC06C0EE0FBB0F2F
:1015EE00661F771F881F28F0B23A620773078407B9
:1015FE0028F0B25A620B730B840BE3959A9572F72F
:10160E00803830F49A95BB0F661F771F881FD2F76C
:06161E0090480C94F30B50
:10162400DF93CF931F930F93FF92EF92DF927B018F
:101634008C01689406C0DA2EEF010E94EB07FE01CC
:10164400E894A5912591359145915591A6F3EF0123
:101654000E945508FE019701A801DA9469F7DF900A
:0E166400EF90FF900F911F91CF91DF910895AD
:10167200990F0008550FAA0BE0E8FEEF16161706A1
:10168200E807F907C0F012161306E407F50798F009
:10169200621B730B840B950B39F40A2661F0232B22
:1016A200242B252B21F408950A2609F4A140A6959E
:0816B2008FEF811D811D0895D9
:1016BA0057FD9058440F551F59F05F3F71F04795F9
:1016CA00880F97FB991F61F09F3F79F087950895DE
:1016DA00121613061406551FF2CF4695F1DF08C0FD
:1016EA00161617061806991FF1CF8695710561051A
:0416FA0008940895B3
:1016FE00EF93E0FF07C0A2EA2AED3FE049EC5FEB73
:10170E000E9455080E94E00B0F90039401FC905824
:08171E00ECE7F0E00C94930BE2
:101726009F938F937F936F93FF93EF939B01AC01EE
:101736000E947C0CEF91FF910E94120B2F913F911A
:081746004F915F910C947C0CA3
:10174E0097FB072E16F4009407D077FD09D00E9460
:10175E00BB0B07FC05D03EF4909581959F4F0895E5
:08176E00709561957F4F08950D
:10177600AA1BBB1B51E107C0AA1FBB1FA617B707B1
:1017860010F0A61BB70B881F991F5A95A9F78095CD
:081796009095BC01CD010895FE
:10179E0095B1907F95B98F7095B1892B85B985B12B
:1017AE008F7D85B985B1806185B985B18F7E85B90B
:0217BE0008958C
:1017C000092E0394000C11F4882352F0BB0F40F44F
:1017D000BF2B11F460FF04C06F5F7F4F8F4F9F4F8F
:0217E00008956A
:1017E2009F3F31F0915020F4879577956795B79593
:0C17F200880F911D9695879597F9089532
:1017FE008536910538F0873E23E0920728F087EE74
:0A180E0093E0089584E690E0089549
:1018180080912C0190912D010E94FF0B90932F0134
:0A18280080932E010E949709089595
:1018320082E00E94CF0B82E00E94CF0B88E00E94E0
:04184200CF0B08952B
:101846008FEE80937A0010927B0080E480937C0078
:021856000895F3
:0E18580080E00E94CF0B8CE00E94CF0B089521
:0E18660080912C0190912D010E945F09089540
:0E1874005058BB27AA270E9455080C94E00B81
:0E1882000E948C0A6894B1110C94570C0895C2
:0E18900000240A941616170618060906089575
:0E189E0000240A941216130614060506089577
:0E18AC00E894BB2766277727CB0197F90895AC
:0C18BA0097F99F6780E870E060E00895F7
:0C18C600EE0FFF1F0590F491E02D099437
:0A18D2000E94390B08F481E008952C
:0A18DC000E94E70AE3950C947F0BCD
:0A18E6000E94390B08F48FEF0895FB
:0818F0000E947C070C94E00B40
:0818F8000E94EB070C94E00BC9
:061900009FEF80EC08954A
:041906000C9400003D
:08190A00303030303030303055
:04191200D00F494069
:04191600E7E3DA3AEF
:02191A000100CA
:02191C00640065
:01191E003098
:01191F003097
:011920007F47
:011921007F46
:00000001FF
