:100000000C946B000C941D0C0C941D0C0C941D0C8A
:100010000C941D0C0C941D0C0C941D0C0C941D0CBC
:100020000C941D0C0C941D0C0C941D0C0C941D0CAC
:100030000C941D0C0C941D0C0C941D0C0C941D0C9C
:100040000C941D0C0C941D0C0C941D0C0C941D0C8C
:100050000C941D0C0C9426050C941D0C0C941D0C7A
:100060000C941D0C0C941D0CA309A709AB09AF0936
:10007000B309B709BB09BF09C309C70905A84CCD16
:10008000B2D44EB93836A9020C50B9918688083CD2
:10009000A6AAAA2ABE000000803F0100010800189D
:1000A0003E010801108001100114001846011401DE
:1000B00018800118011C00184A011C012A80012A1D
:1000C000012C00184E012C012E80012E0134001845
:1000D00050013401368011241FBECFEFD8E0DEBFBF
:1000E000CDBFEAE9F0E040E017C0B591A5913591A8
:1000F0002591059107FD0CC095918591EF01F92F90
:10010000E82F05900D92A217B307D9F7FE0104C09E
:100110001D92A217B307E1F7E63DF40731F70E94FD
:0A01200095000C949300F894FFCFB3
:10012A008FEF8AB984B980E887B918B8F8940E9421
:10013A00BD0B78940E94B30B0E94C60B0E946A09F9
:10014A0081E090E00E94170380912C0190912D018B
:10015A0096958795969587958093350160912E019E
:10016A0070912F01072E000C880B990B0E94C10871
:10017A0020911401309115014091160150911701F7
:10018A000E94160C60930C0170930D0180930E016E
:10019A0090930F0180912A0190912B0103979CF46F
:1001AA0080911E0190911F0101970A9728F01092E1
:1001BA001D0110921C011AC081E090E090931D016C
:1001CA0080931C0113C080911E0190911F01089712
:1001DA008934910528F010921D0110921C0106C065
:1001EA0081E090E090931D0180931C0180911C0195
:1001FA0090911D01892B61F480911E0190911F013C
:10020A000E943C060E947C0888B18F7788B9EBC1AE
:10021A0088B1806888B9C0912A01D0912B01C13078
:10022A00D10509F04AC0609135016695E62EF12C98
:10023A006091100170911101809112019091130146
:10024A009B01AC010E94D50B4B015C0160912E0110
:10025A0070912F01072E000C880B990B0E94C10880
:10026A00A50194010E94160C2091140130911501E8
:10027A0040911601509117010E94160C0E94080C19
:10028A004B015C01B701FF0C880B990B0E94C10856
:10029A00A50194010E94160C6B017C016091330147
:1002AA0070E080E090E00E94C108A70196010E94D8
:1002BA00D50B0E94CB0960933401C230D10509F0F5
:1002CA0057C06091100170911101809112019091B3
:1002DA0013019B01AC010E94D50B209114013091AE
:1002EA00150140911601509117010E94160C6B01DD
:1002FA007C0190913501969520912E0130912F0124
:10030A00929FA001939F500D1124CA016FEF70E0D4
:10031A000E94420B620F731F072E000C880B990B69
:10032A000E94C1089B01AC01C701B6010E94160CCC
:10033A000E94080C6B017C016091320170E080E040
:10034A0090E00E94C108A70196010E94160C6B0159
:10035A007C016091330170E080E090E00E94C10866
:10036A00A70196010E94D50B0E94CB096093340124
:10037A00C330D10509F051C0609135016A3028F4C3
:10038A00809133018093340148C06695E62EF12CA2
:10039A0060911001709111018091120190911301E5
:1003AA009B01AC010E94D50B4B015C0160912E01AF
:1003BA0070912F01072E000C880B990B0E94C1081F
:1003CA00A50194010E94160C209114013091150187
:1003DA0040911601509117010E94160C0E94080CB8
:1003EA004B015C01B701FF0C880B990B0E94C108F5
:1003FA00A50194010E94160C6B017C0160913301E6
:10040A0070E080E090E00E94C108A70196010E9476
:10041A00D50B0E94CB0960933401249709F094C04C
:10042A00809135018A3008F047C0609110017091BF
:10043A00110180911201909113019B01AC010E945C
:10044A00D50B6B017C0160912E0170912F01072E53
:10045A00000C880B990B0E94C108A70196010E9403
:10046A00160C2091140130911501409116015091FA
:10047A0017010E94160C0E94080C6B017C01609106
:10048A00320170E080E090E00E94C108A701960165
:10049A000E94160C6B017C016091330170E080E0D0
:1004AA0090E00E94C108A70196010E94D50B0E9404
:1004BA00CB096093340148C020E030E040E850E4C2
:1004CA0060911001709111018091120190911301B4
:1004DA000E94160C6B017C0160912E0170912F0114
:1004EA00072E000C880B990B0E94C108A7019601E0
:1004FA000E94160C209114013091150140911601A9
:10050A00509117010E94160C0E94080C6B017C0185
:10051A006091320170E080E090E00E94C108A7017A
:10052A0096010E94160C6B017C016091330170E008
:10053A0080E090E00E94C108A70196010E94D50BB5
:10054A000E94CB0960933401809134018BB92091C8
:10055A0018013091190140911A0150911B016091C3
:10056A0014017091150180911601909117010E9452
:10057A00D50B609314017093150180931601909323
:10058A00170160910C0170910D0180910E019091FB
:10059A000F0120E030E040E85FE30E940D0C882361
:1005AA0044F0109214011092150110921601109243
:1005BA00170180912A0190912B01039734F48091BD
:1005CA001E0190911F010E943C0680912A01909180
:1005DA002B01039744F060911E0170911F0180E086
:1005EA0091E00E94CA06329BAFCDECE7F0E0808131
:1005FA008160808302C00E94CD0B339BFCCF02C076
:10060A000E94A60B349BFCCF80912A0190912B016A
:10061A000E9417030E947C08ECE7F0E080818E7F3D
:04062A00808392CD6A
:10062E008230910509F48BC01CF4019749F00895AE
:10063E008330910509F405C1049709F481C1089529
:10064E0085E80E94280A81E40E94FA0986E80E9441
:10065E00280A8DE40E94FA0987E80E94280A81E0A0
:10066E000E94FA0989E80E94280A86E40E94FA0983
:10067E008AE80E94280A8AE30E94FA098DE80E94FD
:10068E00280A80EB0E94FA098CE80E94280A80EB67
:10069E000E94FA098BE80E94280A80EB0E94FA0950
:1006AE008EE80E94280A88E40E94FA098FE80E94C8
:1006BE00280A8AE70E94FA0985EC0E94280A80EB34
:1006CE000E94FA0986EC0E94280A80EB0E94FA0921
:1006DE0087EC0E94280A80EB0E94FA0988EC0E949F
:1006EE00280A81E00E94FA0989EC0E94280A81E01A
:1006FE000E94FA098AEC0E94280A81E00E94FA09F7
:10070E008BEC0E94280A81E00E94FA098CEC0E9470
:10071E00280A81E00E94FA098DEC0E94280A81E0E5
:10072E000E94FA098EEC0E94280A81E00E94FA09C2
:10073E008FEC0E94280A81E00E94FA09089585E84C
:10074E000E94280A86E40E94FA0986E80E94280A76
:10075E008DE40E94FA0987E80E94280A81E00E942F
:10076E00FA0989E80E94280A89E80E94280A86E484
:10077E000E94FA098AE80E94280A8AE30E94FA096E
:10078E008DE80E94280A80EB0E94FA098CE80E94EC
:10079E00280A80EB0E94FA098BE80E94280A80EB57
:1007AE000E94FA098EE80E94280A88E40E94FA093B
:1007BE008FE80E94280A8AE70E94FA0985EC0E94B7
:1007CE00280A80EB0E94FA0986EC0E94280A80EB28
:1007DE000E94FA0987EC0E94280A80EB0E94FA090F
:1007EE0088EC0E94280A81E00E94FA0989EC0E9496
:1007FE00280A81E00E94FA098AEC0E94280A81E008
:10080E000E94FA098BEC0E94280A81E00E94FA09E4
:10081E008CEC0E94280A81E00E94FA098DEC0E945D
:10082E00280A81E00E94FA098EEC0E94280A81E0D3
:10083E000E94FA098FEC0E94280A81E00E94FA09B0
:10084E00089585E80E94280A81E40E94FA0986E844
:10085E000E94280A83E50E94FA0987E80E94280A66
:10086E008BE40E94FA0989E80E94280A84E50E9416
:10087E00FA098AE80E94280A8AE30E94FA098DE89A
:10088E000E94280A80EB0E94FA098CE80E94280A2E
:10089E0080EB0E94FA098BE80E94280A80EB0E94E6
:1008AE00FA098EE80E94280A82E60E94FA098FE869
:1008BE000E94280A83E70E94FA0985EC0E94280A02
:1008CE0080EB0E94FA0986EC0E94280A80EB0E94B7
:1008DE00FA0987EC0E94280A8EE20E94FA0988EC37
:1008EE000E94280A80EB0E94FA0989EC0E94280ACD
:1008FE0080EB0E94FA098AEC0E94280A8EE20E947E
:10090E00FA098BEC0E94280A80EB0E94FA098CEC03
:10091E000E94280A80EB0E94FA098DEC0E94280A98
:10092E008EE20E94FA098EEC0E94280A80EB0E9449
:10093E00FA098FEC0E94280A80EB0E94FA090895AA
:10094E0085E80E94280A86E40E94FA0986E80E9439
:10095E00280A83E50E94FA0987E80E94280A8BE498
:10096E000E94FA0989E80E94280A84E50E94FA0981
:10097E008AE80E94280A8AE30E94FA098DE80E94FA
:10098E00280A80EB0E94FA098CE80E94280A80EB64
:10099E000E94FA098BE80E94280A80EB0E94FA094D
:1009AE008EE80E94280A82E60E94FA098FE80E94C9
:1009BE00280A83E70E94FA0985EC0E94280A80EB38
:1009CE000E94FA0986EC0E94280A80EB0E94FA091E
:1009DE0087EC0E94280A8EE20E94FA0988EC0E9497
:1009EE00280A80EB0E94FA0989EC0E94280A80EB03
:1009FE000E94FA098AEC0E94280A8EE20E94FA09E5
:100A0E008BEC0E94280A80EB0E94FA098CEC0E9463
:100A1E00280A80EB0E94FA098DEC0E94280A8EE2C9
:100A2E000E94FA098EEC0E94280A80EB0E94FA09B5
:0E0A3E008FEC0E94280A80EB0E94FA090895AE
:100A4C001F920F920FB60F921124CF92DF92EF925A
:100A5C00FF920F931F932F933F934F935F936F933B
:100A6C007F938F939F93AF93BF93CF93DF93EF932A
:100A7C00FF93009178001091790010932D01009351
:100A8C002C01C0912A01D0912B01C330D1050CF05F
:100A9C005BC0011582E0180708F520911801309110
:100AAC00190140911A0150911B016091080170913C
:100ABC00090180910A0190910B010E94D50B609362
:100ACC0008017093090180930A0190930B0181E056
:100ADC0090E0909321018093200136C080912001F9
:100AEC0090912101019781F5C0900801D0900901E6
:100AFC00E0900A01F0900B0120E030E0A901C70161
:100B0C00B6010E94030C882379F0A701960160E0DE
:100B1C0070E080E090E40E94120C0E94DB0B70935A
:100B2C001F0160931E0104C010921F0110921E0140
:100B3C0010922101109220011092080110920901CB
:100B4C0010920A0110920B0123970CF476C020919D
:100B5C0018013091190140911A0150911B016091BB
:100B6C0008017091090180910A0190910B010E947A
:100B7C00D50B6B017C016093080170930901809384
:100B8C000A0190930B01359911C00B30110520F41B
:100B9C0080E38093310103C081E38093310181E0D4
:100BAC0090E0909321018093200147C08091310106
:100BBC0080933001209120013091210121303105A9
:100BCC00E1F52091220130912301F901E050FF4F12
:100BDC008083C90101969093230180932201109286
:100BEC00210110922001089721F4109223011092F8
:100BFC00220120E030E0A901C701B6010E94030CDC
:100C0C00882379F0A701960160E070E080E89FE30B
:100C1C000E94120C0E94DB0B70931F0160931E014B
:100C2C0004C010921F0110921E0110920801109224
:100C3C00090110920A0110920B01FF91EF91DF91C3
:100C4C00CF91BF91AF919F918F917F916F915F9158
:100C5C004F913F912F911F910F91FF90EF90DF904B
:0C0C6C00CF900F900FBE0F901F901895B6
:100C7800CF93DF93EC0160912C0170912D0180E0FE
:100C880090E00E94BF0826E636E646E65FE30E944B
:100C9800160C0E94CB09CB010E94560A85EC0E94D3
:100CA800280A80912401909125010E949B0986ECD5
:100CB8000E94280A80912601909127010E949B0991
:100CC80087EC0E94280A80912801909129010E94AE
:100CD8009B0988EC0E94280A81E00E94FA0989ECA5
:100CE8000E94280A81E00E94FA098AEC0E94280AD8
:100CF80081E00E94FA098BEC0E94280A81E00E9498
:100D0800FA098CEC0E94280A81E00E94FA098DEC0D
:100D18000E94280A81E00E94FA098EEC0E94280AA3
:100D280081E00E94FA098FEC0E94280A81E00E9463
:100D3800FA0989E80E94280A86E40E94FA098AE8E2
:100D48000E94280A8AE30E94FA09CE010E94560AE4
:100D58008BE80E94280A80912401909125010E9425
:100D68009B098CE80E94280A80912601909127010E
:100D78000E949B098DE80E94280A80912801909181
:0C0D880029010E949B09DF91CF91089582
:100D9400CF93DF93EC01CB010E94560A85EC0E94AD
:100DA400280A88810E94FA0986EC0E94280A89810F
:100DB4000E94FA0987EC0E94280A8EE20E94FA092E
:100DC40088EC0E94280A8A810E94FA0989EC0E9410
:100DD400280A8B810E94FA098AEC0E94280A8EE272
:100DE4000E94FA098BEC0E94280A8C810E94FA095D
:100DF4008CEC0E94280A8D810E94FA098DEC0E94D5
:100E0400280A8EE20E94FA098EEC0E94280A8E813A
:100E14000E94FA098FEC0E94280A8F810E94FA0925
:100E240089E80E94280A84E50E94FA098AE80E9457
:100E3400280A8AE30E94FA098BE80E94280A809112
:100E44002401909125010E949B098CE80E94280AA4
:100E540080912601909127010E949B098DE80E94B0
:100E6400280A80912801909129010E949B09DF9111
:040E7400CF9108957D
:100E780010C00E94E90B58F00E94E20B40F029F4E0
:100E88005F3F29F00C94F70B51110C94F10B0C9463
:100E98001A0C0E94F80A68F39923B1F3552391F3C9
:100EA800951B550BBB27AA2762177307840738F0D1
:100EB8009F5F5F4F220F331F441FAA1FA9F335D02E
:100EC8000E2E3AF0E0E832D091505040E695001CE2
:100ED800CAF72BD0FE2F29D0660F771F881FBB1F9C
:100EE800261737074807AB07B0E809F0BB0B802D7A
:100EF800BF01FF2793585F4F3AF09E3F510578F0A6
:100F08000C94F70B0C94F10B5F3FE4F3983ED4F389
:100F1800869577956795B795F7959F5FC9F7880F79
:100F2800911D9695879597F90895E1E0660F771FCB
:100F3800881FBB1F621773078407BA0720F0621B5C
:0E0F4800730B840BBA0BEE1F88F7E09508952B
:100F56000FC00E94E20B38F00E94E90B20F09523A7
:100F660011F00C94F70B0C941A0C11240C94F10B41
:100F76000E94F80A70F3959FC1F3950F50E0551F34
:100F8600629FF001729FBB27F00DB11D639FAA27D8
:100F9600F00DB11DAA1F649F6627B00DA11D661F27
:100FA600829F2227B00DA11D621F739FB00DA11D48
:100FB600621F839FA00D611D221F749F3327A00D02
:100FC600611D231F849F600D211D822F762F6A2F9E
:100FD60011249F5750409AF0F1F088234AF0EE0F03
:100FE600FF1FBB1F661F771F881F91505040A9F730
:100FF6009E3F510580F00C94F70B0C94F10B5F3F6C
:10100600E4F3983ED4F3869577956795B795F7956B
:10101600E7959F5FC1F7FE2B880F911D96958795E3
:0410260097F9089599
:10102A0011C00E94E20B38F00E94E90B20F039F45B
:10103A009F3F19F426F40C941A0C0EF4E095E7FB82
:10104A000C94F70BE92F0E94F80A58F3BA176207B3
:10105A0073078407950720F079F4A6F50C94F00B32
:10106A000EF4E0950B2EBA2FA02D0B01B9019001B9
:10107A000C01CA01A0011124FF27591B99F0593FFD
:10108A0050F4503E68F11A16F040A22F232F342F45
:10109A004427585FF3CF469537952795A795F04093
:1010AA005395C9F77EF41F16BA0B620B730B840BA8
:1010BA00BAF09150A1F0FF0FBB1F661F771F881F60
:1010CA00C2F70EC0BA0F621F731F841F48F48795B8
:1010DA0077956795B795F7959E3F08F0B0CF9395AA
:0E10EA00880F08F09927EE0F979587950895C7
:1010F80085EC0E94280A83E40E94FA0986EC0E9483
:10110800280A81E40E94FA0987EC0E94280A8CE4E4
:101118000E94FA0988EC0E94280A83E40E94FA09CE
:1011280089EC0E94280A85E50E94FA098AEC0E9447
:10113800280A8CE40E94FA098BEC0E94280A81E4B0
:101148000E94FA098CEC0E94280A8EE40E94FA098F
:101158008DEC0E94280A84E40E94FA098EEC0E9411
:10116800280A8FE40E94FA098FEC0E94280A81E07D
:061178000E94FA0908952F
:10117E00E89409C097FB3EF4909580957095619523
:10118E007F4F8F4F9F4F9923A9F0F92F96E9BB27D9
:10119E009395F695879577956795B795F111F8CF55
:1011AE00FAF4BB0F11F460FF1BC06F5F7F4F8F4FC0
:1011BE009F4F16C0882311F096E911C0772321F0B6
:1011CE009EE8872F762F05C0662371F096E8862F4E
:1011DE0070E060E02AF09A95660F771F881FDAF7A5
:0A11EE00880F9695879597F90895EC
:1011F8008F3F910509F048F481E090E090932B012E
:1012080080932A010E94170308959C013A952F3F65
:10121800310548F482E090E090932B0180932A01F5
:101228000E94170308959C012F5F31402F3F31051D
:1012380048F483E090E090932B0180932A010E9468
:10124800170308958E5F92408230914040F484E005
:1012580090E090932B0180932A010E941703089530
:101268000E94560A89E80E94280A80E50E94FA0925
:101278008AE80E94280A8AE30E94FA098EE80E94F6
:10128800280A88E40E94FA098FE80E94280A8AE757
:101298000E94FA098BE80E94280A80912401909103
:1012A80025010E949B098CE80E94280A809126014A
:1012B800909127010E949B098DE80E94280A80913D
:0C12C8002801909129010E949B090895C3
:1012D40080E80E94280A8DE40E94FA0981E80E94AD
:1012E400280A8FE60E94FA0982E80E94280A84E606
:1012F4000E94FA0983E80E94280A8AE30E94FA09F4
:1013040080EC0E94280A8DE40E94FA0981EC0E9474
:10131400280A83E70E94FA0982EC0E94280A87E6D9
:101324000E94FA0983EC0E94280A8AE30E94FA09BF
:0213340008951A
:101336008A30910560F5FC01EC5CFF4F0C94FD0BC7
:1013460080E30E94FA09089581E30E94FA0908954C
:1013560082E30E94FA09089583E30E94FA09089538
:1013660084E30E94FA09089585E30E94FA09089524
:1013760086E30E94FA09089587E30E94FA09089510
:1013860088E30E94FA09089589E30E94FA090895FC
:101396000E94000B88F09F5798F0B92F9927B751F4
:1013A600B0F0E1F0660F771F881F991F1AF0BA9503
:1013B600C9F714C0B13091F00E94F00BB1E0089566
:1013C6000C94F00B672F782F8827B85F39F0B93F58
:1013D600CCF3869577956795B395D9F73EF49095B6
:0E13E6008095709561957F4F8F4F9F4F0895B2
:1013F40095B1906295B920E030E021C02115310506
:1014040081F495B1907F95B995B1482F42954F706D
:10141400942B95B995B1906195B995B19F7E95B985
:101424000CC095B1907F95B995B1982B95B995B1AC
:10143400906195B995B19F7E95B92F5F3F4F22304A
:0C1444003105E4F285B18F7D85B9089573
:1014500095B19F7D95B920E030E021C0211531057F
:1014600081F495B1907F95B995B1482F42954F7011
:10147000942B95B995B1906195B995B19F7E95B929
:101480000CC095B1907F95B995B1982B95B995B150
:10149000906195B995B19F7E95B92F5F3F4F2230EE
:0C14A0003105E4F285B18F7D85B9089517
:1014AC00109227011092260110922501109224010E
:1014BC00843691056CF08456910920912401309169
:1014CC0025012F5F3F4F3093250120932401F0CF4E
:1014DC008A30910564F00A972091260130912701FA
:1014EC002F5F3F4F3093270120932601F1CF90932C
:0814FC002901809328010895E5
:101504000E94000B10F40C941A0CE894E0E0BB2742
:101514009F57F0F02AED3FE049EC06C0EE0FBB0FF9
:10152400661F771F881F28F0B23A62077307840783
:1015340028F0B25A620B730B840BE3959A9572F7F9
:10154400803830F49A95BB0F661F771F881FD2F737
:0615540090480C948D0B81
:10155A00DF93CF931F930F93FF92EF92DF927B015A
:10156A008C01689406C0DA2EEF010E94AB07FE01D7
:10157A00E894A5912591359145915591A6F3EF01EE
:10158A000E941508FE019701A801DA9469F7DF9015
:0E159A00EF90FF900F911F91CF91DF91089578
:1015A800990F0008550FAA0BE0E8FEEF161617066C
:1015B800E807F907C0F012161306E407F50798F0D4
:1015C800621B730B840B950B39F40A2661F0232BED
:1015D800242B252B21F408950A2609F4A140A69569
:0815E8008FEF811D811D0895A4
:1015F00057FD9058440F551F59F05F3F71F04795C4
:10160000880F97FB991F61F09F3F79F087950895A8
:10161000121613061406551FF2CF4695F1DF08C0C7
:10162000161617061806991FF1CF869571056105E4
:04163000089408957D
:10163400EF93E0FF07C0A2EA2AED3FE049EC5FEB3D
:101644000E9415080E946A0B0F90039401FC9058A5
:08165400ECE7F0E00C942E0B12
:10165C009F938F937F936F93FF93EF939B01AC01B9
:10166C000E94160CEF91FF910E94AD0A2F913F91B1
:08167C004F915F910C94160CD4
:1016840097FB072E16F4009407D077FD09D00E942B
:10169400560B07FC05D03EF4909581959F4F089515
:0816A400709561957F4F0895D8
:1016AC00AA1BBB1B51E107C0AA1FBB1FA617B7077C
:1016BC0010F0A61BB70B881F991F5A95A9F7809598
:0816CC009095BC01CD010895C9
:1016D400092E0394000C11F4882352F0BB0F40F43C
:1016E400BF2B11F460FF04C06F5F7F4F8F4F9F4F7C
:0216F400089557
:1016F60095B1907F95B995B1892B85B985B18F7DC7
:1017060085B985B1806185B985B18F7E85B9089522
:101716009F3F31F0915020F4879577956795B7955F
:0C172600880F911D9695879597F90895FE
:101732008536910538F0873E23E0920728F087EE40
:0A17420093E0089584E690E0089516
:10174C0080912C0190912D010E94990B90932F0167
:0A175C0080932E010E9434090895C5
:1017660082E00E947B0B82E00E947B0B88E00E9455
:041776007B0B08954C
:10177A008FEE80937A0010927B0080E480937C0045
:02178A000895C0
:0E178C0080E00E947B0B8CE00E947B0B089596
:0E179A0080912C0190912D010E94FC08089571
:0E17A8005058BB27AA270E9415080C946A0B04
:0E17B6000E94CB096894B1110C94F10B0895B8
:0E17C40000240A941616170618060906089542
:0E17D20000240A941216130614060506089544
:0E17E000E894BB2766277727CB0197F9089579
:0C17EE0097F99F6780E870E060E00895C4
:0C17FA00EE0FFF1F0590F491E02D099404
:0A1806000E94D40A08F481E008955E
:0A1810000E94820AE3950C941A0B63
:0A181A000E94D40A08F48FEF08952D
:081824000E943C070C946A0BC2
:08182C000E94AB070C946A0B4B
:061834009FEF80EC089517
:04183A000C9400000A
:08183E00303030303030303022
:04184600D00F494036
:04184A007233DC3ADF
:02184E00010097
:02185000640032
:011852003065
:011853003064
:011854007F14
:011855007F13
:00000001FF
