:100000000C946B000C9496090C9496090C94960928
:100010000C9496090C9496090C9496090C949609E4
:100020000C9496090C9496090C9496090C949609D4
:100030000C9496090C9496090C9496090C949609C4
:100040000C9496090C9496090C9496090C949609B4
:100050000C9496090C9483050C9496090C949609BB
:100060000C9496090C949609540758075C0760078E
:10007000640768076C0770077407780705A84CCDFC
:10008000B2D44EB93836A9020C50B9918688083CD2
:10009000A6AAAA2ABE000000803F010001080013A2
:1000A000300108010C80010C01100013380110010F
:1000B00014800114011800133C0118012280012250
:1000C000012400134001240126800126012C001385
:1000D00042012C012E8011241FBECFEFD8E0DEBFDD
:1000E000CDBFEAE9F0E040E017C0B591A5913591A8
:1000F0002591059107FD0CC095918591EF01F92F90
:10010000E82F05900D92A217B307D9F7FE0104C09E
:100110001D92A217B307E1F7E63DF40731F70E94FD
:0A012000A4020C949300F894FFCFA2
:10012A008230910509F48BC01CF4019749F00895B7
:10013A008330910509F405C1049709F481C1089532
:10014A0085E80E94D90781E40E94AB0786E80E94ED
:10015A00D9078DE40E94AB0787E80E94D90781E09E
:10016A000E94AB0789E80E94D90786E40E94AB0780
:10017A008AE80E94D9078AE30E94AB078DE80E94A9
:10018A00D90780EB0E94AB078CE80E94D90780EB65
:10019A000E94AB078BE80E94D90780EB0E94AB074D
:1001AA008EE80E94D90788E40E94AB078FE80E9474
:1001BA00D9078AE70E94AB0785EC0E94D90780EB32
:1001CA000E94AB0786EC0E94D90780EB0E94AB071E
:1001DA0087EC0E94D90780EB0E94AB0788EC0E944B
:1001EA00D90781E00E94AB0789EC0E94D90781E018
:1001FA000E94AB078AEC0E94D90781E00E94AB07F4
:10020A008BEC0E94D90781E00E94AB078CEC0E941C
:10021A00D90781E00E94AB078DEC0E94D90781E0E3
:10022A000E94AB078EEC0E94D90781E00E94AB07BF
:10023A008FEC0E94D90781E00E94AB07089585E8F8
:10024A000E94D90786E40E94AB0786E80E94D90774
:10025A008DE40E94AB0787E80E94D90781E00E94DB
:10026A00AB0789E80E94D90789E80E94D90786E482
:10027A000E94AB078AE80E94D9078AE30E94AB076B
:10028A008DE80E94D90780EB0E94AB078CE80E9498
:10029A00D90780EB0E94AB078BE80E94D90780EB55
:1002AA000E94AB078EE80E94D90788E40E94AB0738
:1002BA008FE80E94D9078AE70E94AB0785EC0E9463
:1002CA00D90780EB0E94AB0786EC0E94D90780EB26
:1002DA000E94AB0787EC0E94D90780EB0E94AB070C
:1002EA0088EC0E94D90781E00E94AB0789EC0E9442
:1002FA00D90781E00E94AB078AEC0E94D90781E006
:10030A000E94AB078BEC0E94D90781E00E94AB07E1
:10031A008CEC0E94D90781E00E94AB078DEC0E9409
:10032A00D90781E00E94AB078EEC0E94D90781E0D1
:10033A000E94AB078FEC0E94D90781E00E94AB07AD
:10034A00089585E80E94D90781E40E94AB0786E8F0
:10035A000E94D90783E50E94AB0787E80E94D90764
:10036A008BE40E94AB0789E80E94D90784E50E94C2
:10037A00AB078AE80E94D9078AE30E94AB078DE897
:10038A000E94D90780EB0E94AB078CE80E94D9072C
:10039A0080EB0E94AB078BE80E94D90780EB0E9492
:1003AA00AB078EE80E94D90782E60E94AB078FE866
:1003BA000E94D90783E70E94AB0785EC0E94D90700
:1003CA0080EB0E94AB0786EC0E94D90780EB0E9463
:1003DA00AB0787EC0E94D9078EE20E94AB0788EC34
:1003EA000E94D90780EB0E94AB0789EC0E94D907CB
:1003FA0080EB0E94AB078AEC0E94D9078EE20E942A
:10040A00AB078BEC0E94D90780EB0E94AB078CEC00
:10041A000E94D90780EB0E94AB078DEC0E94D90796
:10042A008EE20E94AB078EEC0E94D90780EB0E94F5
:10043A00AB078FEC0E94D90780EB0E94AB070895A7
:10044A0085E80E94D90786E40E94AB0786E80E94E5
:10045A00D90783E50E94AB0787E80E94D9078BE496
:10046A000E94AB0789E80E94D90784E50E94AB077E
:10047A008AE80E94D9078AE30E94AB078DE80E94A6
:10048A00D90780EB0E94AB078CE80E94D90780EB62
:10049A000E94AB078BE80E94D90780EB0E94AB074A
:1004AA008EE80E94D90782E60E94AB078FE80E9475
:1004BA00D90783E70E94AB0785EC0E94D90780EB36
:1004CA000E94AB0786EC0E94D90780EB0E94AB071B
:1004DA0087EC0E94D9078EE20E94AB0788EC0E9443
:1004EA00D90780EB0E94AB0789EC0E94D90780EB01
:1004FA000E94AB078AEC0E94D9078EE20E94AB07E2
:10050A008BEC0E94D90780EB0E94AB078CEC0E940F
:10051A00D90780EB0E94AB078DEC0E94D9078EE2C7
:10052A000E94AB078EEC0E94D90780EB0E94AB07B2
:0E053A008FEC0E94D90780EB0E94AB0708955A
:10054800CF93DF9300D01F92CDB7DEB78FEF8AB974
:100558008FE384B917B818B815B8F8940E944609FB
:1005680078940E943C090E944F090E941B0781E071
:1005780090E00E94950000912401109125011695A4
:10058800079516950795098300932D01609126011B
:1005980070912701072E000C880B990B0E94720698
:1005A8004B015C01C0901001D0901101E090120144
:1005B800F0901301A70196010E948F09609308012A
:1005C8007093090180930A0190930B018091220195
:1005D800909123019B838A830197D1F5202E26943D
:1005E800312C60910C0170910D0180910E01909158
:1005F8000F019B01AC010E945E099B01AC01C50182
:10060800B4010E948F099B01AC01C701B6010E9489
:100618008F090E9485092B013C01B101330C880B1D
:10062800990B0E947206A30192010E948F092B0167
:100638003C0160912B0170E080E090E00E9472061E
:10064800A30192010E945E090E947C0760932C011D
:100658008A819B81039709F041C099819A3028F4D7
:1006680080912B0180932C0139C0069510E0609190
:100678000C0170910D0180910E0190910F019B0169
:10068800AC010E945E099B01AC01C501B4010E9446
:100698008F099B01AC01C701B6010E948F090E9416
:1006A80085092B013C01B801110F880B990B0E9499
:1006B8007206A30192010E948F092B013C016091EF
:1006C8002B0170E080E090E00E947206A301920185
:1006D8000E945E090E947C0760932C018A819B819D
:1006E800049709F076C099819A30C8F560910C0199
:1006F80070910D0180910E0190910F019B01AC0149
:100708000E945E099B01AC01C501B4010E948F09DA
:100718009B01AC01C701B6010E948F090E9485099F
:100728006B017C0160912A0170E080E090E00E94FA
:100738007206A70196010E948F096B017C016091E6
:100748002B0170E080E090E00E947206A7019601FC
:100758000E945E090E947C0760932C013AC020E049
:1007680030E040E850E460910C0170910D018091F7
:100778000E0190910F010E948F099B01AC01C501E8
:10078800B4010E948F099B01AC01C701B6010E9408
:100798008F090E9485096B017C0160912A0170E034
:1007A80080E090E00E947206A70196010E948F09DE
:1007B8006B017C0160912B0170E080E090E00E9469
:1007C8007206A70196010E945E090E947C07609349
:1007D8002C0180912C018BB92091140130911501C5
:1007E800409116015091170160911001709111010B
:1007F80080911201909113010E945E09609310018B
:100808007093110180931201909313016091080174
:100818007091090180910A0190910B0120E030E06C
:1008280040E85FE30E948A09882344F0109210018F
:10083800109211011092120110921301809122015D
:1008480090912301039714F40E94240580912201BA
:1008580090912301039724F080E091E00E94DD0548
:10086800329B89CEECE7F0E080818160808302C012
:100878000E945609339BFCCF02C00E942F09349B6B
:10088800FCCF80912201909123010E9495000E9443
:0E0898002D06ECE7F0E080818E7F80836CCE31
:1008A6000FC00E94640938F00E946B0920F095235E
:1008B60011F00C9479090C94930911240C94730982
:1008C6000E94A90870F3959FC1F3950F50E0551F3C
:1008D600629FF001729FBB27F00DB11D639FAA278F
:1008E600F00DB11DAA1F649F6627B00DA11D661FDE
:1008F600829F2227B00DA11D621F739FB00DA11DFF
:10090600621F839FA00D611D221F749F3327A00DB8
:10091600611D231F849F600D211D822F762F6A2F54
:1009260011249F5750409AF0F1F088234AF0EE0FB9
:10093600FF1FBB1F661F771F881F91505040A9F7E6
:100946009E3F510580F00C9479090C9473095F3F22
:10095600E4F3983ED4F3869577956795B795F79522
:10096600E7959F5FC1F7FE2B880F911D969587959A
:0409760097F9089550
:10097A0011C00E94640938F00E946B0920F039F412
:10098A009F3F19F426F40C9493090EF4E095E7FBC3
:10099A000C947909E92F0E94A90858F3BA1762073B
:1009AA0073078407950720F079F4A6F50C94720969
:1009BA000EF4E0950B2EBA2FA02D0B01B901900170
:1009CA000C01CA01A0011124FF27591B99F0593FB4
:1009DA0050F4503E68F11A16F040A22F232F342FFC
:1009EA004427585FF3CF469537952795A795F0404A
:1009FA005395C9F77EF41F16BA0B620B730B840B5F
:100A0A00BAF09150A1F0FF0FBB1F661F771F881F16
:100A1A00C2F70EC0BA0F621F731F841F48F487956E
:100A2A0077956795B795F7959E3F08F0B0CF939560
:0E0A3A00880F08F09927EE0F9795879508957D
:100A4800609124017091250180E090E00E94700679
:100A580026E636E646E65FE30E948F090E947C0799
:100A6800CB010E94070885EC0E94D90780911C01E0
:100A780090911D010E944C0786EC0E94D907809135
:100A88001E0190911F010E944C0787EC0E94D90714
:100A980080912001909121010E944C0788EC0E94CE
:100AA800D90781E00E94AB0789EC0E94D90781E051
:100AB8000E94AB078AEC0E94D90781E00E94AB072D
:100AC8008BEC0E94D90781E00E94AB078CEC0E9456
:100AD800D90781E00E94AB078DEC0E94D90781E01D
:100AE8000E94AB078EEC0E94D90781E00E94AB07F9
:0E0AF8008FEC0E94D90781E00E94AB070895A1
:100B06001F920F920FB60F9211242F933F938F933C
:100B16009F93EF93FF938091780090917900909343
:100B26002501809324012091220130912301233055
:100B36003105ACF1359910C00B9720F480E3809312
:100B4600290103C081E38093290181E090E090931D
:100B560019018093180123C08091290180932801EF
:100B6600209118013091190121303105C1F42091ED
:100B76001A0130911B01F901E050FF4F8083C90132
:100B8600019690931B0180931A01109219011092FD
:100B96001801089721F410921B0110921A01FF9177
:100BA600EF919F918F913F912F910F900FBE0F90D4
:040BB6001F901895DF
:100BBA00CF93DF93EC0185EC0E94D90788818C5F83
:100BCA000E94AB0786EC0E94D90789818C5F0E943C
:100BDA00AB0787EC0E94D9078EE20E94AB0788EC2C
:100BEA000E94D9078A818C5F0E94AB0789EC0E9418
:100BFA00D9078B818C5F0E94AB078AEC0E94D907C8
:100C0A008EE20E94AB078BEC0E94D9078C818C5F25
:100C1A000E94AB078CEC0E94D9078D818C5F0E94E1
:100C2A00AB078DEC0E94D9078EE20E94AB078EECCF
:100C3A000E94D9078E818C5F0E94AB078FEC0E94BD
:100C4A00D9078F818C5F0E94AB07DF91CF910895FE
:100C5A0085EC0E94D90783E40E94AB0786EC0E94C8
:100C6A00D90781E40E94AB0787EC0E94D9078CE47C
:100C7A000E94AB0788EC0E94D90783E40E94AB0765
:100C8A0089EC0E94D90785E50E94AB078AEC0E948D
:100C9A00D9078CE40E94AB078BEC0E94D90781E448
:100CAA000E94AB078CEC0E94D9078EE40E94AB0726
:100CBA008DEC0E94D90784E40E94AB078EEC0E9457
:100CCA00D9078FE40E94AB078FEC0E94D90781E015
:060CDA000E94AB07089523
:100CE000E89409C097FB3EF49095809570956195C6
:100CF0007F4F8F4F9F4F9923A9F0F92F96E9BB277C
:100D00009395F695879577956795B795F111F8CFF7
:100D1000FAF4BB0F11F460FF1BC06F5F7F4F8F4F62
:100D20009F4F16C0882311F096E911C0772321F058
:100D30009EE8872F762F05C0662371F096E8862FF0
:100D400070E060E02AF09A95660F771F881FDAF747
:0A0D5000880F9695879597F908958E
:100D5A008F3F910509F048F481E090E090932301D8
:100D6A00809322010E94950008959C013A952F3F95
:100D7A00310548F482E090E09093230180932201A8
:100D8A000E94950008959C012F5F31402F3F310545
:100D9A0048F483E090E090932301809322010E941B
:100DAA00950008958E5F92408230914040F484E02D
:100DBA0090E090932301809322010E949500089568
:100DCA000E94070889E80E94D90780E50E94AB07BC
:100DDA008AE80E94D9078AE30E94AB078EE80E943C
:100DEA00D90788E40E94AB078FE80E94D9078AE7EF
:100DFA000E94AB078BE80E94D90780911C01909151
:100E0A001D010E944C078CE80E94D90780911E019F
:100E1A0090911F010E944C078DE80E94D90780918A
:0C0E2A002001909121010E944C070895C6
:100E360080E80E94D9078DE40E94AB0781E80E94F2
:100E4600D9078FE60E94AB0782E80E94D90784E69D
:100E56000E94AB0783E80E94D9078AE30E94AB078A
:100E660080EC0E94D9078DE40E94AB0781EC0E94BA
:100E7600D90783E70E94AB0782EC0E94D90787E671
:100E86000E94AB0783EC0E94D9078AE30E94AB0756
:020E96000895BD
:100E98008A30910560F5FC01EC5CFF4F0C947F09EA
:100EA80080E30E94AB07089581E30E94AB07089591
:100EB80082E30E94AB07089583E30E94AB0708957D
:100EC80084E30E94AB07089585E30E94AB07089569
:100ED80086E30E94AB07089587E30E94AB07089555
:100EE80088E30E94AB07089589E30E94AB07089541
:100EF8000E94B10888F09F5798F0B92F9927B751E9
:100F0800B0F0E1F0660F771F881F991F1AF0BA95A5
:100F1800C9F714C0B13091F00E947209B1E0089588
:100F28000C947209672F782F8827B85F39F0B93F7A
:100F3800CCF3869577956795B395D9F73EF4909558
:0E0F48008095709561957F4F8F4F9F4F089554
:100F560095B1906295B920E030E021C021153105A8
:100F660081F495B1907F95B995B1482F42954F7010
:100F7600942B95B995B1906195B995B19F7E95B928
:100F86000CC095B1907F95B995B1982B95B995B14F
:100F9600906195B995B19F7E95B92F5F3F4F2230ED
:0C0FA6003105E4F285B18F7D85B9089516
:100FB20095B19F7D95B920E030E021C02115310522
:100FC20081F495B1907F95B995B1482F42954F70B4
:100FD200942B95B995B1906195B995B19F7E95B9CC
:100FE2000CC095B1907F95B995B1982B95B995B1F3
:100FF200906195B995B19F7E95B92F5F3F4F223091
:0C1002003105E4F285B18F7D85B90895B9
:10100E0010921F0110921E0110921D0110921C01D0
:10101E00843691056CF08456910920911C01309113
:10102E001D012F5F3F4F30931D0120931C01F0CF08
:10103E008A30910564F00A9720911E0130911F01AC
:10104E002F5F3F4F30931F0120931E01F1CF9093DE
:08105E00210180932001089597
:101066000E94B10810F40C949309E894E0E0BB27C1
:101076009F57F0F02AED3FE049EC06C0EE0FBB0F9C
:10108600661F771F881F28F0B23A62077307840726
:1010960028F0B25A620B730B840BE3959A9572F79C
:1010A600803830F49A95BB0F661F771F881FD2F7DA
:0610B60090480C9416099D
:1010BC00DF93CF931F930F93FF92EF92DF927B01FD
:1010CC008C01689406C0DA2EEF010E945304FE01D5
:1010DC00E894A5912591359145915591A6F3EF0191
:1010EC000E94BD04FE019701A801DA9469F7DF9014
:0E10FC00EF90FF900F911F91CF91DF9108951B
:10110A00990F0008550FAA0BE0E8FEEF161617060E
:10111A00E807F907C0F012161306E407F50798F076
:10112A00621B730B840B950B39F40A2661F0232B8F
:10113A00242B252B21F408950A2609F4A140A6950B
:08114A008FEF811D811D089546
:1011520057FD9058440F551F59F05F3F71F0479566
:10116200880F97FB991F61F09F3F79F0879508954B
:10117200121613061406551FF2CF4695F1DF08C06A
:10118200161617061806991FF1CF86957105610587
:041192000894089520
:10119600EF93E0FF07C0A2EA2AED3FE049EC5FEBE0
:1011A6000E94BD040E94F3080F90039401FC90581E
:0811B600ECE7F0E00C94DF0807
:1011BE009F938F937F936F93FF93EF939B01AC015C
:1011CE000E948F09EF91FF910E945E082F913F912F
:0811DE004F915F910C948F0901
:1011E600092E0394000C11F4882352F0BB0F40F42F
:1011F600BF2B11F460FF04C06F5F7F4F8F4F9F4F6F
:02120600089549
:1012080095B1907F95B995B1892B85B985B18F7DB9
:1012180085B985B1806185B985B18F7E85B9089515
:101228009F3F31F0915020F4879577956795B79552
:0C123800880F911D9695879597F90895F1
:101244008536910538F0873E23E0920728F087EE33
:0A12540093E0089584E690E0089509
:10125E0080912401909125010E94220990932701EB
:0A126E00809326010E94E506089512
:1012780082E00E94040982E00E94040988E00E943A
:0412880004090895B8
:10128C008FEE80937A0010927B0080E480937C0038
:02129C000895B3
:0E129E0080E00E9404098CE00E94040908957B
:0E12AC0080912401909125010E94AD060895C5
:0E12BA005058BB27AA270E94BD040C94F308CD
:0E12C80000240A941616170618060906089543
:0E12D60000240A941216130614060506089545
:0E12E400E894BB2766277727CB0197F908957A
:0C12F20097F99F6780E870E060E00895C5
:0C12FE00EE0FFF1F0590F491E02D099405
:0A130A000E943308E3950C94CB0811
:0A1314000E94850808F48FEF089589
:08131E000E9453040C94F30833
:061326009FEF80EC08952A
:04132C000C9400001D
:08133000303030303030303035
:04133800D00F494049
:04133C007233DC3AF2
:021340000100AA
:02134200640045
:011344003078
:011345003077
:011346007F27
:011347007F26
:00000001FF
