:100000000C9462000C9425080C9425080C94250887
:100010000C9425080C9425080C9425080C942508AC
:100020000C9425080C9425080C9425080C9425089C
:100030000C9425080C9425080C9425080C9425088C
:100040000C9425080C9425080C9425080C9425087C
:100050000C9425080C9444070C9425080C9425084E
:100060000C9425080C942508F905FD0501060506E4
:1000700009060D061106150619061D0605A84CCD24
:10008000B2D44EB93836A9020C50B9918688083CD2
:10009000A6AAAA2ABE000000803F01000104800138
:1000A00004010800104E0108010C80010C0112002F
:1000B0001052011201148001140118001058011887
:1000C000011A800011241FBECFEFD8E0DEBFCDBFE4
:1000D000EAE9F0E040E017C0B591A591359125918E
:1000E000059107FD0CC095918591EF01F92FE82F3F
:1000F00005900D92A217B307D9F7FE0104C01D9217
:10010000A217B307E1F7E33CF40731F70E949B0223
:080110000C948A00F894FFCF63
:100118008230910509F48BC01CF4019749F00895C9
:100128008330910509F405C1049709F481C1089544
:1001380085E80E947E0681E40E94500686E80E94B7
:100148007E068DE40E94500687E80E947E0681E0C4
:100158000E94500689E80E947E0686E40E945006A6
:100168008AE80E947E068AE30E9450068DE80E9473
:100178007E0680EB0E9450068CE80E947E0680EB8B
:100188000E9450068BE80E947E0680EB0E94500673
:100198008EE80E947E0688E40E9450068FE80E943E
:1001A8007E068AE70E94500685EC0E947E0680EB58
:1001B8000E94500686EC0E947E0680EB0E94500644
:1001C80087EC0E947E0680EB0E94500688EC0E9415
:1001D8007E0681E00E94500689EC0E947E0681E03E
:1001E8000E9450068AEC0E947E0681E00E9450061A
:1001F8008BEC0E947E0681E00E9450068CEC0E94E7
:100208007E0681E00E9450068DEC0E947E0681E009
:100218000E9450068EEC0E947E0681E00E945006E5
:100228008FEC0E947E0681E00E945006089585E8C2
:100238000E947E0686E40E94500686E80E947E069A
:100248008DE40E94500687E80E947E0681E00E94A5
:10025800500689E80E947E0689E80E947E0686E4A8
:100268000E9450068AE80E947E068AE30E94500691
:100278008DE80E947E0680EB0E9450068CE80E9462
:100288007E0680EB0E9450068BE80E947E0680EB7B
:100298000E9450068EE80E947E0688E40E9450065E
:1002A8008FE80E947E068AE70E94500685EC0E942D
:1002B8007E0680EB0E94500686EC0E947E0680EB4C
:1002C8000E94500687EC0E947E0680EB0E94500632
:1002D80088EC0E947E0681E00E94500689EC0E940C
:1002E8007E0681E00E9450068AEC0E947E0681E02C
:1002F8000E9450068BEC0E947E0681E00E94500608
:100308008CEC0E947E0681E00E9450068DEC0E94D3
:100318007E0681E00E9450068EEC0E947E0681E0F7
:100328000E9450068FEC0E947E0681E00E945006D3
:10033800089585E80E947E0681E40E94500686E8BA
:100348000E947E0683E50E94500687E80E947E068A
:100358008BE40E94500689E80E947E0684E50E948C
:1003680050068AE80E947E068AE30E9450068DE8BD
:100378000E947E0680EB0E9450068CE80E947E0652
:1003880080EB0E9450068BE80E947E0680EB0E945C
:1003980050068EE80E947E0682E60E9450068FE88C
:1003A8000E947E0683E70E94500685EC0E947E0626
:1003B80080EB0E94500686EC0E947E0680EB0E942D
:1003C800500687EC0E947E068EE20E94500688EC5A
:1003D8000E947E0680EB0E94500689EC0E947E06F1
:1003E80080EB0E9450068AEC0E947E068EE20E94F4
:1003F80050068BEC0E947E0680EB0E9450068CEC27
:100408000E947E0680EB0E9450068DEC0E947E06BC
:100418008EE20E9450068EEC0E947E0680EB0E94BF
:1004280050068FEC0E947E0680EB0E9450060895CD
:1004380085E80E947E0686E40E94500686E80E94AF
:100448007E0683E50E94500687E80E947E068BE4BC
:100458000E94500689E80E947E0684E50E945006A4
:100468008AE80E947E068AE30E9450068DE80E9470
:100478007E0680EB0E9450068CE80E947E0680EB88
:100488000E9450068BE80E947E0680EB0E94500670
:100498008EE80E947E0682E60E9450068FE80E943F
:1004A8007E0683E70E94500685EC0E947E0680EB5C
:1004B8000E94500686EC0E947E0680EB0E94500641
:1004C80087EC0E947E068EE20E94500688EC0E940D
:1004D8007E0680EB0E94500689EC0E947E0680EB27
:1004E8000E9450068AEC0E947E068EE20E94500608
:1004F8008BEC0E947E0680EB0E9450068CEC0E94DA
:100508007E0680EB0E9450068DEC0E947E068EE2ED
:100518000E9450068EEC0E947E0680EB0E945006D8
:0E0528008FEC0E947E0680EB0E945006089524
:10053600CF93DF9300D01F92CDB7DEB78FEF8AB986
:100546008FE384B917B818B815B8F8940E94D50780
:1005560078940E94CB070E94DE070E94C00581E0C6
:1005660090E00E948C0000911201109113011695E3
:100576000795169507950983009319016091140153
:1005860070911501072E000C880B990B0E944D05E2
:100596004B015C01C0900801D0900901E0900A016E
:1005A600F0900B01A70196010E941E0860930001BE
:1005B60070930101809302019093030180911001D1
:1005C600909111019B838A830197D1F5202E269461
:1005D600312C609104017091050180910601909182
:1005E60007019B01AC010E94ED079B01AC01C5010F
:1005F600B4010E941E089B01AC01C701B6010E940E
:100606001E080E9414082B013C01B101330C880B13
:10061600990B0E944D05A30192010E941E082B0111
:100626003C016091170170E080E090E00E944D056A
:10063600A30192010E94ED070E9421066093180112
:100646008A819B81039709F041C099819A3028F4E9
:10065600809117018093180139C0069510E06091CA
:1006660004017091050180910601909107019B019B
:10067600AC010E94ED079B01AC01C501B4010E94CB
:100686001E089B01AC01C701B6010E941E080E940C
:1006960014082B013C01B801110F880B990B0E941D
:1006A6004D05A30192010E941E082B013C01609199
:1006B600170170E080E090E00E944D05A3019201D1
:1006C6000E94ED070E942106609318018A819B8192
:1006D600049709F076C099819A30C8F560910401B3
:1006E6007091050180910601909107019B01AC0173
:1006F6000E94ED079B01AC01C501B4010E941E08D2
:100706009B01AC01C701B6010E941E080E94140895
:100716006B017C016091160170E080E090E00E9420
:100726004D05A70196010E941E086B017C01609190
:10073600170170E080E090E00E944D05A701960148
:100746000E94ED070E942106609318013AC020E03E
:1007560030E040E850E46091040170910501809119
:100766000601909107010E941E089B01AC01C5017C
:10077600B4010E941E089B01AC01C701B6010E948C
:100786001E080E9414086B017C016091160170E03E
:1007960080E090E00E944D05A70196010E941E0888
:1007A6006B017C016091170170E080E090E00E948F
:1007B6004D05A70196010E94ED070E942106609350
:1007C6001801809118018BB920910C0130910D010F
:1007D60040910E0150910F0160910801709109013D
:1007E60080910A0190910B010E94ED076093080128
:1007F6007093090180930A0190930B0160910001A7
:1008060070910101809102019091030120E030E096
:1008160040E85FE30E941908882344F0109208011B
:100826001092090110920A0110920B01329B9BCE85
:10083600ECE7F0E080818160808302C00E94E507DA
:10084600339BFCCF02C00E94BE07349BFCCFECE773
:0A085600F0E080818E7F808386CE63
:100860000FC00E94F30738F00E94FA0720F095238A
:1008700011F00C9408080C94220811240C9402081E
:100880000E94220770F3959FC1F3950F50E0551F0A
:10089000629FF001729FBB27F00DB11D639FAA27D5
:1008A000F00DB11DAA1F649F6627B00DA11D661F24
:1008B000829F2227B00DA11D621F739FB00DA11D45
:1008C000621F839FA00D611D221F749F3327A00DFF
:1008D000611D231F849F600D211D822F762F6A2F9B
:1008E00011249F5750409AF0F1F088234AF0EE0F00
:1008F000FF1FBB1F661F771F881F91505040A9F72D
:100900009E3F510580F00C9408080C9402085F3F4C
:10091000E4F3983ED4F3869577956795B795F79568
:10092000E7959F5FC1F7FE2B880F911D96958795E0
:0409300097F9089596
:1009340011C00E94F30738F00E94FA0720F039F43E
:100944009F3F19F426F40C9422080EF4E095E7FB7B
:100954000C940808E92F0E94220758F3BA1762077B
:1009640073078407950720F079F4A6F50C94010821
:100974000EF4E0950B2EBA2FA02D0B01B9019001B6
:100984000C01CA01A0011124FF27591B99F0593FFA
:1009940050F4503E68F11A16F040A22F232F342F42
:1009A4004427585FF3CF469537952795A795F04090
:1009B4005395C9F77EF41F16BA0B620B730B840BA5
:1009C400BAF09150A1F0FF0FBB1F661F771F881F5D
:1009D400C2F70EC0BA0F621F731F841F48F48795B5
:1009E40077956795B795F7959E3F08F0B0CF9395A7
:0E09F400880F08F09927EE0F979587950895C4
:100A0200EF92FF920F931F93CF93DF93EC01E12CB0
:100A1200F12CC456D1098FEFE81AF80AC436D10571
:100A2200C4F700E010E02A970F5F1F4FCA30D105CC
:100A3200D4F789E80E947E0680E50E9450068AE883
:100A42000E947E068AE30E9450068EE80E947E067D
:100A520088E40E9450068FE80E947E068AE70E9480
:100A620050068BE80E947E06C7010E94F1058CE8C1
:100A72000E947E06C8010E94F1058DE80E947E0652
:100A8200CE010E94F105DF91CF911F910F91FF904E
:040A9200EF90089544
:100A9600E89409C097FB3EF4909580957095619512
:100AA6007F4F8F4F9F4F9923A9F0F92F96E9BB27C8
:100AB6009395F695879577956795B795F111F8CF44
:100AC600FAF4BB0F11F460FF1BC06F5F7F4F8F4FAF
:100AD6009F4F16C0882311F096E911C0772321F0A5
:100AE6009EE8872F762F05C0662371F096E8862F3D
:100AF60070E060E02AF09A95660F771F881FDAF794
:0A0B0600880F9695879597F90895DA
:100B10008F3F910509F048F481E090E09093110136
:100B2000809310010E948C0008959C013A952F3FFC
:100B3000310548F482E090E0909311018093100118
:100B40000E948C0008959C012F5F31402F3F31059A
:100B500048F483E090E090931101809310010E948B
:100B60008C0008958E5F92408230914040F484E082
:100B700090E090931101809310010E948C000895E1
:100B800080E80E947E068DE40E94500681E80E9463
:100B90007E068FE60E94500682E80E947E0684E66A
:100BA0000E94500683E80E947E068AE30E94500657
:100BB00080EC0E947E068DE40E94500681EC0E942B
:100BC0007E0683E70E94500682EC0E947E0687E63E
:100BD0000E94500683EC0E947E068AE30E94500623
:020BE000089576
:100BE2008A30910560F5FC01EC5CFF4F0C940E0815
:100BF20080E30E945006089581E30E945006089502
:100C020082E30E945006089583E30E9450060895ED
:100C120084E30E945006089585E30E9450060895D9
:100C220086E30E945006089587E30E9450060895C5
:100C320088E30E945006089589E30E9450060895B1
:100C42000E942A0788F09F5798F0B92F9927B75129
:100C5200B0F0E1F0660F771F881F991F1AF0BA955E
:100C6200C9F714C0B13091F00E940108B1E00895B3
:100C72000C940108672F782F8827B85F39F0B93FA5
:100C8200CCF3869577956795B395D9F73EF4909511
:0E0C92008095709561957F4F8F4F9F4F08950D
:100CA00095B1906295B920E030E021C02115310561
:100CB00081F495B1907F95B995B1482F42954F70C9
:100CC000942B95B995B1906195B995B19F7E95B9E1
:100CD0000CC095B1907F95B995B1982B95B995B108
:100CE000906195B995B19F7E95B92F5F3F4F2230A6
:0C0CF0003105E4F285B18F7D85B90895CF
:100CFC0095B19F7D95B920E030E021C021153105DB
:100D0C0081F495B1907F95B995B1482F42954F706C
:100D1C00942B95B995B1906195B995B19F7E95B984
:100D2C000CC095B1907F95B995B1982B95B995B1AB
:100D3C00906195B995B19F7E95B92F5F3F4F223049
:0C0D4C003105E4F285B18F7D85B9089572
:100D58000E942A0710F40C942208E894E0E0BB27CC
:100D68009F57F0F02AED3FE049EC06C0EE0FBB0FAD
:100D7800661F771F881F28F0B23A62077307840737
:100D880028F0B25A620B730B840BE3959A9572F7AD
:100D9800803830F49A95BB0F661F771F881FD2F7EB
:060DA80090480C94A50721
:100DAE00DF93CF931F930F93FF92EF92DF927B010E
:100DBE008C01689406C0DA2EEF010E943004FE0109
:100DCE00E894A5912591359145915591A6F3EF01A2
:100DDE000E949A04FE019701A801DA9469F7DF9048
:0E0DEE00EF90FF900F911F91CF91DF9108952C
:100DFC00990F0008550FAA0BE0E8FEEF1616170620
:100E0C00E807F907C0F012161306E407F50798F087
:100E1C00621B730B840B950B39F40A2661F0232BA0
:100E2C00242B252B21F408950A2609F4A140A6951C
:080E3C008FEF811D811D089557
:100E440057FD9058440F551F59F05F3F71F0479577
:100E5400880F97FB991F61F09F3F79F0879508955C
:100E6400121613061406551FF2CF4695F1DF08C07B
:100E7400161617061806991FF1CF86957105610598
:040E84000894089531
:100E88001F920F920FB60F9211248F939F93809108
:100E980078009091790090931301809312019F91AB
:0C0EA8008F910F900FBE0F901F901895B7
:100EB400EF93E0FF07C0A2EA2AED3FE049EC5FEBC5
:100EC4000E949A040E9482070F90039401FC905898
:080ED400ECE7F0E00C946E075E
:100EDC009F938F937F936F93FF93EF939B01AC0141
:100EEC000E941E08EF91FF910E94D7062F913F910F
:080EFC004F915F910C941E0858
:100F0400092E0394000C11F4882352F0BB0F40F413
:100F1400BF2B11F460FF04C06F5F7F4F8F4F9F4F53
:020F240008952E
:100F260095B1907F95B995B1892B85B985B18F7D9E
:100F360085B985B1806185B985B18F7E85B90895FA
:100F46009F3F31F0915020F4879577956795B79537
:0C0F5600880F911D9695879597F90895D6
:100F62008536910538F0873E23E0920728F087EE18
:0A0F720093E0089584E690E00895EE
:100F7C0080911201909113010E94B1079093150179
:0A0F8C00809314010E9401050895EE
:100F960082E00E94930782E00E94930788E00E9405
:040FA6009307089510
:100FAA008FEE80937A0010927B0080E480937C001D
:020FBA00089598
:0E0FBC0080E00E9493078CE00E949307089546
:0E0FCA0080911201909113010E9488050895F4
:0E0FD8005058BB27AA270E949A040C94820747
:0E0FE60000240A941616170618060906089528
:0E0FF40000240A94121613061406050608952A
:0E100200E894BB2766277727CB0197F908955E
:0C10100097F99F6780E870E060E00895A9
:0C101C00EE0FFF1F0590F491E02D0994E9
:0A1028000E94AC06E3950C945A07F1
:0A1032000E94FE0608F48FEF0895F7
:08103C000E9430040C948207AD
:061044009FEF80EC08950F
:04104A000C94000002
:04104E00D00F494036
:041052007233DC3ADF
:02105600010097
:02105800640032
:01105A007F16
:01105B007F15
:00000001FF
