:100000000C946B000C947C0C0C947C0C0C947C0C6D
:100010000C947C0C0C947C0C0C947C0C0C947C0C40
:100020000C947C0C0C947C0C0C947C0C0C947C0C30
:100030000C947C0C0C947C0C0C947C0C0C947C0C20
:100040000C947C0C0C947C0C0C947C0C0C947C0C10
:100050000C947C0C0C945F050C947C0C0C947C0C24
:100060000C947C0C0C947C0CFF09030A070A0B0A05
:100070000F0A130A170A1B0A1F0A230A05A84CCDE8
:10008000B2D44EB93836A9020C50B9918688083CD2
:10009000A6AAAA2ABE000000803F0100010800189D
:1000A000FC01080110800110011400190401140161
:1000B00018800118011C001908011C012A80012A5E
:1000C000012C00190C012C012E80012E0134001985
:1000D0000E013401368011241FBECFEFD8E0DEBF01
:1000E000CDBFEAE9F0E040E017C0B591A5913591A8
:1000F0002591059107FD0CC095918591EF01F92F90
:10010000E82F05900D92A217B307D9F7FE0104C09E
:100110001D92A217B307E1F7E63DF40731F70E94FD
:0A01200095000C949300F894FFCFB3
:10012A008FEF8AB984B917B818B815B8F8940E942D
:10013A001C0C78940E94120C0E94250C0E94C6097D
:10014A0081E090E00E94500385B18F7B85B985B12B
:10015A00806885B922C0329B20C0ECE7F0E080813C
:10016A008160808302C00E942C0C339BFCCF02C0AA
:10017A000E94050C349BFCCF80912A0190912B019F
:10018A000E94500380911E0190911F010E94B508A0
:10019A00ECE7F0E080818E7F8083349BDCCF809116
:1001AA002C0190912D019695879596958795809328
:1001BA00350160912E0170912F01072E000C880BDA
:1001CA00990B0E941D09209114013091150140914B
:1001DA001601509117010E94750C60930C017093DF
:1001EA000D0180930E0190930F0180912A01909145
:1001FA002B0103979CF480911E0190911F01019796
:10020A000A9728F010921D0110921C011AC081E071
:10021A0090E090931D0180931C0113C080911E01F0
:10022A0090911F0108978934910528F010921D01B9
:10023A0010921C0106C081E090E090931D0180930A
:10024A001C0180911C0190911D01892B69F48091F8
:10025A001E0190911F010E94B50885B18F7B85B957
:10026A0085B1806885B9EEC185B18F7785B985B1C9
:10027A00806485B9C0912A01D0912B01C130D10582
:10028A0009F04AC0609135016695E62EF12C60911D
:10029A0010017091110180911201909113019B013B
:1002AA00AC010E94340C4B015C0160912E017091EB
:1002BA002F01072E000C880B990B0E941D09A5011E
:1002CA0094010E94750C20911401309115014091FE
:1002DA001601509117010E94750C0E94670C4B0180
:1002EA005C01B701FF0C880B990B0E941D09A5013F
:1002FA0094010E94750C6B017C016091330170E0DE
:10030A0080E090E00E941D09A70196010E94340C2A
:10031A000E94850A60933401C230D10509F057C0A2
:10032A006091100170911101809112019091130155
:10033A009B01AC010E94340C2091140130911501EB
:10034A0040911601509117010E94750C6B017C01B6
:10035A0090913501969520912E0130912F01929F0F
:10036A00A001939F500D1124CA016FEF70E00E9403
:10037A00A00B620F731F072E000C880B990B0E94AB
:10038A001D099B01AC01C701B6010E94750C0E94B0
:10039A00670C6B017C016091320170E080E090E0B3
:1003AA000E941D09A70196010E94750C6B017C0130
:1003BA006091330170E080E090E00E941D09A7017E
:1003CA0096010E94340C0E94850A60933401C3305E
:1003DA00D10509F051C0609135016A3028F4809145
:1003EA0033018093340148C06695E62EF12C609162
:1003FA0010017091110180911201909113019B01DA
:10040A00AC010E94340C4B015C0160912E01709189
:10041A002F01072E000C880B990B0E941D09A501BC
:10042A0094010E94750C209114013091150140919C
:10043A001601509117010E94750C0E94670C4B011E
:10044A005C01B701FF0C880B990B0E941D09A501DD
:10045A0094010E94750C6B017C016091330170E07C
:10046A0080E090E00E941D09A70196010E94340CC9
:10047A000E94850A60933401249709F094C0809100
:10048A0035018A3008F047C060911001709111015E
:10049A0080911201909113019B01AC010E94340CCE
:1004AA006B017C0160912E0170912F01072E000CC7
:1004BA00880B990B0E941D09A70196010E94750CD1
:1004CA0020911401309115014091160150911701A4
:1004DA000E94750C0E94670C6B017C0160913201CD
:1004EA0070E080E090E00E941D09A70196010E9439
:1004FA00750C6B017C016091330170E080E090E043
:10050A000E941D09A70196010E94340C0E94850AC7
:10051A006093340148C020E030E040E850E4609144
:10052A0010017091110180911201909113010E94A2
:10053A00750C6B017C0160912E0170912F01072EC1
:10054A00000C880B990B0E941D09A70196010E94B5
:10055A00750C2091140130911501409116015091AA
:10056A0017010E94750C0E94670C6B017C01609157
:10057A00320170E080E090E00E941D09A701960117
:10058A000E94750C6B017C016091330170E080E080
:10059A0090E00E941D09A70196010E94340C0E9456
:1005AA00850A60933401809134018BB92091180136
:1005BA003091190140911A0150911B016091140167
:1005CA007091150180911601909117010E94340CC7
:1005DA00609314017093150180931601909317018B
:1005EA0060910C0170910D0180910E0190910F01A3
:1005FA0020E030E040E85FE30E946C0C882344F07E
:10060A0010921401109215011092160110921701FE
:10061A0080912A0190912B01039734F480911E0155
:10062A0090911F010E94750680912A0190912B01D9
:10063A00039744F060911E0170911F0180E091E0E0
:10064A000E940307329BABCD85B18F7B85B985B1FB
:10065A00806885B9ECE7F0E080818160808302C020
:10066A000E942C0C339BFCCF02C00E94050C349BC9
:10067A00FCCF80912A0190912B010E945003809116
:10068A001E0190911F010E94B508ECE7F0E08081FD
:06069A008E7F808384CDF9
:1006A0008230910509F48BC01CF4019749F008953C
:1006B0008330910509F405C1049709F481C10895B7
:1006C00085E80E94560A81E40E94270A86E80E9473
:1006D000560A8DE40E94270A87E80E94560A81E0A4
:1006E0000E94270A89E80E94560A86E40E94270A87
:1006F0008AE80E94560A8AE30E94270A8DE80E942F
:10070000560A80EB0E94270A8CE80E94560A80EB6A
:100710000E94270A8BE80E94560A80EB0E94270A53
:100720008EE80E94560A88E40E94270A8FE80E94F9
:10073000560A8AE70E94270A85EC0E94560A80EB37
:100740000E94270A86EC0E94560A80EB0E94270A24
:1007500087EC0E94560A80EB0E94270A88EC0E94D0
:10076000560A81E00E94270A89EC0E94560A81E01D
:100770000E94270A8AEC0E94560A81E00E94270AFA
:100780008BEC0E94560A81E00E94270A8CEC0E94A2
:10079000560A81E00E94270A8DEC0E94560A81E0E9
:1007A0000E94270A8EEC0E94560A81E00E94270AC6
:1007B0008FEC0E94560A81E00E94270A089585E87E
:1007C0000E94560A86E40E94270A86E80E94560A7A
:1007D0008DE40E94270A87E80E94560A81E00E9461
:1007E000270A89E80E94560A89E80E94560A86E488
:1007F0000E94270A8AE80E94560A8AE30E94270A72
:100800008DE80E94560A80EB0E94270A8CE80E941D
:10081000560A80EB0E94270A8BE80E94560A80EB5A
:100820000E94270A8EE80E94560A88E40E94270A3E
:100830008FE80E94560A8AE70E94270A85EC0E94E8
:10084000560A80EB0E94270A86EC0E94560A80EB2B
:100850000E94270A87EC0E94560A80EB0E94270A12
:1008600088EC0E94560A81E00E94270A89EC0E94C7
:10087000560A81E00E94270A8AEC0E94560A81E00B
:100880000E94270A8BEC0E94560A81E00E94270AE8
:100890008CEC0E94560A81E00E94270A8DEC0E948F
:1008A000560A81E00E94270A8EEC0E94560A81E0D7
:1008B0000E94270A8FEC0E94560A81E00E94270AB4
:1008C000089585E80E94560A81E40E94270A86E876
:1008D0000E94560A83E50E94270A87E80E94560A6A
:1008E0008BE40E94270A89E80E94560A84E50E9448
:1008F000270A8AE80E94560A8AE30E94270A8DE89E
:100900000E94560A80EB0E94270A8CE80E94560A31
:1009100080EB0E94270A8BE80E94560A80EB0E9417
:10092000270A8EE80E94560A82E60E94270A8FE86C
:100930000E94560A83E70E94270A85EC0E94560A05
:1009400080EB0E94270A86EC0E94560A80EB0E94E8
:10095000270A87EC0E94560A8EE20E94270A88EC3A
:100960000E94560A80EB0E94270A89EC0E94560AD0
:1009700080EB0E94270A8AEC0E94560A8EE20E94AF
:10098000270A8BEC0E94560A80EB0E94270A8CEC07
:100990000E94560A80EB0E94270A8DEC0E94560A9C
:1009A0008EE20E94270A8EEC0E94560A80EB0E947B
:1009B000270A8FEC0E94560A80EB0E94270A0895AE
:1009C00085E80E94560A86E40E94270A86E80E946B
:1009D000560A83E50E94270A87E80E94560A8BE49C
:1009E0000E94270A89E80E94560A84E50E94270A85
:1009F0008AE80E94560A8AE30E94270A8DE80E942C
:100A0000560A80EB0E94270A8CE80E94560A80EB67
:100A10000E94270A8BE80E94560A80EB0E94270A50
:100A20008EE80E94560A82E60E94270A8FE80E94FA
:100A3000560A83E70E94270A85EC0E94560A80EB3B
:100A40000E94270A86EC0E94560A80EB0E94270A21
:100A500087EC0E94560A8EE20E94270A88EC0E94C8
:100A6000560A80EB0E94270A89EC0E94560A80EB06
:100A70000E94270A8AEC0E94560A8EE20E94270AE8
:100A80008BEC0E94560A80EB0E94270A8CEC0E9495
:100A9000560A80EB0E94270A8DEC0E94560A8EE2CD
:100AA0000E94270A8EEC0E94560A80EB0E94270AB9
:0E0AB0008FEC0E94560A80EB0E94270A0895E0
:100ABE001F920F920FB60F921124CF92DF92EF92E8
:100ACE00FF920F931F932F933F934F935F936F93C9
:100ADE007F938F939F93AF93BF93CF93DF93EF93B8
:100AEE00FF93009178001091790010932D010093DF
:100AFE002C01C0912A01D0912B01C330D1050CF0ED
:100B0E005BC0011582E0180708F52091180130919D
:100B1E00190140911A0150911B01609108017091C9
:100B2E00090180910A0190910B010E94340C60938F
:100B3E0008017093090180930A0190930B0181E0E3
:100B4E0090E0909321018093200136C08091200186
:100B5E0090912101019781F5C0900801D090090173
:100B6E00E0900A01F0900B0120E030E0A901C701EE
:100B7E00B6010E94620C882379F0A701960160E00D
:100B8E0070E080E090E40E94710C0E943A0C709329
:100B9E001F0160931E0104C010921F0110921E01CE
:100BAE001092210110922001109208011092090159
:100BBE0010920A0110920B0123970CF476C020912B
:100BCE0018013091190140911A0150911B01609149
:100BDE0008017091090180910A0190910B010E9408
:100BEE00340C6B017C0160930801709309018093B2
:100BFE000A0190930B01359911C00B30110520F4A9
:100C0E0080E38093310103C081E38093310181E061
:100C1E0090E0909321018093200147C08091310193
:100C2E008093300120912001309121012130310536
:100C3E00E1F52091220130912301F901E050FF4F9F
:100C4E008083C90101969093230180932201109213
:100C5E00210110922001089721F410922301109285
:100C6E00220120E030E0A901C701B6010E94620C0A
:100C7E00882379F0A701960160E070E080E89FE399
:100C8E000E94710C0E943A0C70931F0160931E011A
:100C9E0004C010921F0110921E01109208011092B2
:100CAE00090110920A0110920B01FF91EF91DF9151
:100CBE00CF91BF91AF919F918F917F916F915F91E6
:100CCE004F913F912F911F910F91FF90EF90DF90D9
:0C0CDE00CF900F900FBE0F901F90189544
:100CEA00CF93DF93EC0160912C0170912D0180E08C
:100CFA0090E00E941B0926E636E646E65FE30E947C
:100D0A00750C0E94850ACB010E94B40A85EC0E94E8
:100D1A00560A80912401909125010E94F70986ECD8
:100D2A000E94560A80912601909127010E94F70994
:100D3A0087EC0E94560A80912801909129010E940D
:100D4A00F70988EC0E94560A81E00E94270A89EC7A
:100D5A000E94560A81E00E94270A8AEC0E94560ADB
:100D6A0081E00E94270A8BEC0E94560A81E00E94C9
:100D7A00270A8CEC0E94560A81E00E94270A8DEC11
:100D8A000E94560A81E00E94270A8EEC0E94560AA7
:100D9A0081E00E94270A8FEC0E94560A81E00E9495
:100DAA00270A89E80E94560A86E40E94270A8AE8E6
:100DBA000E94560A8AE30E94270ACE010E94B40AB8
:100DCA008BE80E94560A80912401909125010E9485
:100DDA00F7098CE80E94560A809126019091270112
:100DEA000E94F7098DE80E94560A80912801909185
:0C0DFA0029010E94F709DF91CF910895B4
:100E0600CF93DF93EC01CB010E94B40A85EC0E94DC
:100E1600560A88810E94270A86EC0E94560A898112
:100E26000E94270A87EC0E94560A8EE20E94270A31
:100E360088EC0E94560A8A810E94270A89EC0E9441
:100E4600560A8B810E94270A8AEC0E94560A8EE275
:100E56000E94270A8BEC0E94560A8C810E94270A60
:100E66008CEC0E94560A8D810E94270A8DEC0E9406
:100E7600560A8EE20E94270A8EEC0E94560A8E813E
:100E86000E94270A8FEC0E94560A8F810E94270A29
:100E960089E80E94560A84E50E94270A8AE80E9489
:100EA600560A8AE30E94270A8BE80E94560A809116
:100EB6002401909125010E94F7098CE80E94560AA8
:100EC60080912601909127010E94F7098DE80E94E2
:100ED600560A80912801909129010E94F709DF9115
:040EE600CF9108950B
:100EEA0010C00E94480C58F00E94410C40F029F4AE
:100EFA005F3F29F00C94560C51110C94500C0C9431
:100F0A00790C0E94560B68F39923B1F3552391F398
:100F1A00951B550BBB27AA2762177307840738F05E
:100F2A009F5F5F4F220F331F441FAA1FA9F335D0BB
:100F3A000E2E3AF0E0E832D091505040E695001C6F
:100F4A00CAF72BD0FE2F29D0660F771F881FBB1F29
:100F5A00261737074807AB07B0E809F0BB0B802D07
:100F6A00BF01FF2793585F4F3AF09E3F510578F033
:100F7A000C94560C0C94500C5F3FE4F3983ED4F357
:100F8A00869577956795B795F7959F5FC9F7880F07
:100F9A00911D9695879597F90895E1E0660F771F59
:100FAA00881FBB1F621773078407BA0720F0621BEA
:0E0FBA00730B840BBA0BEE1F88F7E0950895B9
:100FC8000FC00E94410C38F00E94480C20F0952375
:100FD80011F00C94560C0C94790C11240C94500CB0
:100FE8000E94560B70F3959FC1F3950F50E0551F63
:100FF800629FF001729FBB27F00DB11D639FAA2766
:10100800F00DB11DAA1F649F6627B00DA11D661FB4
:10101800829F2227B00DA11D621F739FB00DA11DD5
:10102800621F839FA00D611D221F749F3327A00D8F
:10103800611D231F849F600D211D822F762F6A2F2B
:1010480011249F5750409AF0F1F088234AF0EE0F90
:10105800FF1FBB1F661F771F881F91505040A9F7BD
:101068009E3F510580F00C94560C0C94500C5F3F39
:10107800E4F3983ED4F3869577956795B795F795F9
:10108800E7959F5FC1F7FE2B880F911D9695879571
:0410980097F9089527
:10109C0011C00E94410C38F00E94480C20F039F429
:1010AC009F3F19F426F40C94790C0EF4E095E7FBB1
:1010BC000C94560CE92F0E94560B58F3BA17620782
:1010CC0073078407950720F079F4A6F50C944F0C60
:1010DC000EF4E0950B2EBA2FA02D0B01B901900147
:1010EC000C01CA01A0011124FF27591B99F0593F8B
:1010FC0050F4503E68F11A16F040A22F232F342FD3
:10110C004427585FF3CF469537952795A795F04020
:10111C005395C9F77EF41F16BA0B620B730B840B35
:10112C00BAF09150A1F0FF0FBB1F661F771F881FED
:10113C00C2F70EC0BA0F621F731F841F48F4879545
:10114C0077956795B795F7959E3F08F0B0CF939537
:0E115C00880F08F09927EE0F97958795089554
:10116A00CF93DF93EC0185EC0E94560A83E40E9438
:10117A00270A86EC0E94560A81E40E94270A87EC15
:10118A000E94560A8CE40E94270A88EC0E94560A9A
:10119A0083E40E94270A89EC0E94560A85E50E9488
:1011AA00270A8AEC0E94560A8CE40E94270A8BECD2
:1011BA000E94560A81E40E94270A8CEC0E94560A71
:1011CA008EE40E94270A8DEC0E94560A84E40E944B
:1011DA00270A8EEC0E94560A8FE40E94270A8FEC97
:1011EA000E94560A81E00E94270ACE010E94B40A90
:1011FA008BE80E94560A80912401909125010E9451
:10120A00F7098CE80E94560A8091260190912701DD
:10121A000E94F7098DE80E94560A80912801909150
:0C122A0029010E94F709DF91CF9108957F
:10123600E89409C097FB3EF490958095709561956A
:101246007F4F8F4F9F4F9923A9F0F92F96E9BB2720
:101256009395F695879577956795B795F111F8CF9C
:10126600FAF4BB0F11F460FF1BC06F5F7F4F8F4F07
:101276009F4F16C0882311F096E911C0772321F0FD
:101286009EE8872F762F05C0662371F096E8862F95
:1012960070E060E02AF09A95660F771F881FDAF7EC
:0A12A600880F9695879597F9089533
:1012B0008F3F910509F048F481E090E090932B0175
:1012C00080932A010E94500308959C013A952F3F74
:1012D000310548F482E090E090932B0180932A013D
:1012E0000E94500308959C012F5F31402F3F31052C
:1012F00048F483E090E090932B0180932A010E94B0
:10130000500308958E5F92408230914040F484E013
:1013100090E090932B0180932A010E94500308953E
:101320000E94B40A89E80E94560A80E50E94270AB2
:101330008AE80E94560A8AE30E94270A8EE80E94E1
:10134000560A88E40E94270A8FE80E94560A8AE714
:101350000E94270A8BE80E94560A809124019091EE
:1013600025010E94F7098CE80E94560A8091260107
:10137000909127010E94F7098DE80E94560A8091FA
:0C1380002801909129010E94F7090895AE
:10138C0080E80E94560A8DE40E94270A81E80E9498
:10139C00560A8FE60E94270A82E80E94560A84E6C3
:1013AC000E94270A83E80E94560A8AE30E94270AB1
:1013BC0080EC0E94560A8DE40E94270A81EC0E9460
:1013CC00560A83E70E94270A82EC0E94560A87E697
:1013DC000E94270A83EC0E94560A8AE30E94270A7D
:0213EC00089562
:1013EE008A30910560F5FC01EC5CFF4F0C945C0CAF
:1013FE0080E30E94270A089581E30E94270A089538
:10140E0082E30E94270A089583E30E94270A089523
:10141E0084E30E94270A089585E30E94270A08950F
:10142E0086E30E94270A089587E30E94270A0895FB
:10143E0088E30E94270A089589E30E94270A0895E7
:10144E0095B1906295B920E030E022C021153105AA
:10145E0081F495B1907F95B995B1482F42954F7013
:10146E00942B95B995B1906195B995B19F7E95B92B
:10147E000DC095B1907F95B98F7095B1982B95B998
:10148E0095B1906195B995B19F7E95B92F5F3F4FFC
:0E149E0022303105DCF285B18F7D85B90895CD
:1014AC0095B19F7D95B920E030E022C02115310522
:1014BC0081F495B1907F95B995B1482F42954F70B5
:1014CC00942B95B995B1906195B995B19F7E95B9CD
:1014DC000DC095B1907F95B98F7095B1982B95B93A
:1014EC0095B1906195B995B19F7E95B92F5F3F4F9E
:0E14FC0022303105DCF285B18F7D85B908956F
:10150A000E945E0B88F09F5798F0B92F9927B75120
:10151A00B0F0E1F0660F771F881F991F1AF0BA958D
:10152A00C9F714C0B13091F00E944F0CB1E0089590
:10153A000C944F0C672F782F8827B85F39F0B93F82
:10154A00CCF3869577956795B395D9F73EF4909540
:0E155A008095709561957F4F8F4F9F4F08953C
:101568001092270110922601109225011092240151
:10157800843691056CF084569109209124013091AC
:1015880025012F5F3F4F3093250120932401F0CF91
:101598008A30910564F00A9720912601309127013D
:1015A8002F5F3F4F3093270120932601F1CF90936F
:0815B800290180932801089528
:1015C0000E945E0B10F40C94790CE894E0E0BB27C9
:1015D0009F57F0F02AED3FE049EC06C0EE0FBB0F3D
:1015E000661F771F881F28F0B23A620773078407C7
:1015F00028F0B25A620B730B840BE3959A9572F73D
:10160000803830F49A95BB0F661F771F881FD2F77A
:0616100090480C94EC0B65
:10161600DF93CF931F930F93FF92EF92DF927B019D
:101626008C01689406C0DA2EEF010E94E407FE01E1
:10163600E894A5912591359145915591A6F3EF0131
:101646000E944E08FE019701A801DA9469F7DF901F
:0E165600EF90FF900F911F91CF91DF910895BB
:10166400990F0008550FAA0BE0E8FEEF16161706AF
:10167400E807F907C0F012161306E407F50798F017
:10168400621B730B840B950B39F40A2661F0232B30
:10169400242B252B21F408950A2609F4A140A695AC
:0816A4008FEF811D811D0895E7
:1016AC0057FD9058440F551F59F05F3F71F0479507
:1016BC00880F97FB991F61F09F3F79F087950895EC
:1016CC00121613061406551FF2CF4695F1DF08C00B
:1016DC00161617061806991FF1CF86957105610528
:0416EC0008940895C1
:1016F000EF93E0FF07C0A2EA2AED3FE049EC5FEB81
:101700000E944E080E94D90B0F90039401FC905840
:08171000ECE7F0E00C948C0BF7
:101718009F938F937F936F93FF93EF939B01AC01FC
:101728000E94750CEF91FF910E940B0B2F913F9136
:081738004F915F910C94750CB8
:1017400097FB072E16F4009407D077FD09D00E946E
:10175000B40B07FC05D03EF4909581959F4F0895FA
:08176000709561957F4F08951B
:10176800AA1BBB1B51E107C0AA1FBB1FA617B707BF
:1017780010F0A61BB70B881F991F5A95A9F78095DB
:081788009095BC01CD0108950C
:1017900095B1907F95B98F7095B1892B85B985B139
:1017A0008F7D85B985B1806185B985B18F7E85B919
:0217B00008959A
:1017B200092E0394000C11F4882352F0BB0F40F45D
:1017C200BF2B11F460FF04C06F5F7F4F8F4F9F4F9D
:0217D200089578
:1017D4009F3F31F0915020F4879577956795B795A1
:0C17E400880F911D9695879597F9089540
:1017F0008536910538F0873E23E0920728F087EE82
:0A18000093E0089584E690E0089557
:10180A0080912C0190912D010E94F80B90932F0149
:0A181A0080932E010E9490090895AA
:1018240082E00E94C80B82E00E94C80B88E00E94FC
:04183400C80B089540
:101838008FEE80937A0010927B0080E480937C0086
:02184800089501
:0E184A0080E00E94C80B8CE00E94C80B08953D
:0E18580080912C0190912D010E945809089555
:0E1866005058BB27AA270E944E080C94D90B9D
:0E1874000E94850A6894B1110C94500C0895DE
:0E18820000240A941616170618060906089583
:0E18900000240A941216130614060506089585
:0E189E00E894BB2766277727CB0197F90895BA
:0C18AC0097F99F6780E870E060E0089505
:0C18B800EE0FFF1F0590F491E02D099445
:0A18C4000E94320B08F481E0089541
:0A18CE000E94E00AE3950C94780BE9
:0A18D8000E94320B08F48FEF089510
:0818E2000E9475070C94D90B5C
:0818EA000E94E4070C94D90BE5
:0618F2009FEF80EC089559
:0418F8000C9400004C
:0818FC00303030303030303064
:04190400D00F494077
:0419080089D2DE3A68
:02190C000100D8
:02190E00640073
:0119100030A6
:0119110030A5
:011912007F55
:011913007F54
:00000001FF
