:100000000C9458000C9482040C9482040C94820486
:100010000C9482040C9482040C9482040C94820448
:100020000C9482040C9482040C9482040C94820438
:100030000C9482040C9482040C9482040C94820428
:100040000C9482040C9482040C9482040C94820418
:100050000C9482040C94E0030C9482040C948204AB
:100060000C9482040C94820405A84CCDB2D44EB9F1
:100070003836A9020C50B9918688083CA6AAAA2A4B
:10008000BE000000803F010001048001040108005F
:1000900009080108010C80010C011000090C011075
:1000A0000118800118011C000910011C011E8000AC
:1000B00011241FBECFEFD8E0DEBFCDBFE6E8F0E0F1
:1000C00040E017C0B591A59135912591059107FDA7
:1000D0000CC095918591EF01F92FE82F05900D92B5
:1000E000A217B307D9F7FE0104C01D92A217B307E8
:1000F000E1F7EF3AF40731F70E9482000C94800098
:04010000F894FFCFA1
:10010400CF93DF9300D01F92CDB7DEB78FEF8AB9BC
:1001140084B917B8F8940E943D04789481E090E083
:1001240090931501809314012091160130911701C9
:1001340036952795369527953B832A833A813983CB
:1001440020931D016091180170911901072E000C74
:10015400880B990B0E94DE024B015C01C0900801E0
:10016400D0900901E0900A01F0900B01A7019601DB
:100174000E947B046093000170930101809302014B
:100184009093030180911401909115010197D1F589
:100194000A81069510E06091040170910501809137
:1001A4000601909107019B01AC010E944A049B0146
:1001B400AC01C501B4010E947B049B01AC01C701E1
:1001C400B6010E947B040E9471042B013C01B8011A
:1001D400110F880B990B0E94DE02A30192010E9469
:1001E4007B042B013C0160911B0170E080E090E0F6
:1001F4000E94DE02A30192010E944A040E94190394
:1002040060931C018091120190911301019709F0F0
:1002140047C089818A3028F480911B0180931C0196
:100224003FC09A819695292F30E03B832A836091C1
:1002340004017091050180910601909107019B01D1
:10024400AC010E944A049B01AC01C501B4010E94A7
:100254007B049B01AC01C701B6010E947B040E9490
:1002640071042B013C012A813B81B901330F880BB6
:10027400990B0E94DE02A30192010E947B042B01D0
:100284003C0160911B0170E080E090E00E94DE027E
:10029400A30192010E944A040E94190360931C0165
:1002A4008091100190911101019709F076C0398174
:1002B4003A30C8F5609104017091050180910601FE
:1002C400909107019B01AC010E944A049B01AC017F
:1002D400C501B4010E947B049B01AC01C701B601B6
:1002E4000E947B040E9471046B017C0160911A01DD
:1002F40070E080E090E00E94DE02A70196010E9477
:100304007B046B017C0160911B0170E080E090E054
:100314000E94DE02A70196010E944A040E9419036A
:1003240060931C013AC020E030E040E850E4609162
:1003340004017091050180910601909107010E94CA
:100344007B049B01AC01C501B4010E947B049B01A9
:10035400AC01C701B6010E947B040E9471046B01C9
:100364007C0160911A0170E080E090E00E94DE025E
:10037400A70196010E947B046B017C0160911B0123
:1003840070E080E090E00E94DE02A70196010E94E6
:100394004A040E94190360931C0180911C018BB9CB
:1003A40020910C0130910D0140910E0150910F01EB
:1003B400609108017091090180910A0190910B01EB
:1003C4000E944A04609308017093090180930A0112
:1003D40090930B01609100017091010180910201E1
:1003E4009091030120E030E040E85FE30E9476044E
:1003F400882344F0109208011092090110920A0116
:1004040010920B01329B90CE8FEF85B90E94650448
:02041400FDCF1A
:100416000FC00E94500438F00E94570420F0952324
:1004260011F00C946B040C947F0411240C945F045B
:100436000E94BE0370F3959FC1F3950F50E0551FC0
:10044600629FF001729FBB27F00DB11D639FAA2723
:10045600F00DB11DAA1F649F6627B00DA11D661F72
:10046600829F2227B00DA11D621F739FB00DA11D93
:10047600621F839FA00D611D221F749F3327A00D4D
:10048600611D231F849F600D211D822F762F6A2FE9
:1004960011249F5750409AF0F1F088234AF0EE0F4E
:1004A600FF1FBB1F661F771F881F91505040A9F77B
:1004B6009E3F510580F00C946B040C945F045F3FE3
:1004C600E4F3983ED4F3869577956795B795F795B7
:1004D600E7959F5FC1F7FE2B880F911D969587952F
:0404E60097F90895E5
:1004EA0011C00E94500438F00E94570420F039F4D9
:1004FA009F3F19F426F40C947F040EF4E095E7FB71
:10050A000C946B04E92F0E94BE0358F3BA176207D2
:10051A0073078407950720F079F4A6F50C945E0416
:10052A000EF4E0950B2EBA2FA02D0B01B901900104
:10053A000C01CA01A0011124FF27591B99F0593F48
:10054A0050F4503E68F11A16F040A22F232F342F90
:10055A004427585FF3CF469537952795A795F040DE
:10056A005395C9F77EF41F16BA0B620B730B840BF3
:10057A00BAF09150A1F0FF0FBB1F661F771F881FAB
:10058A00C2F70EC0BA0F621F731F841F48F4879503
:10059A0077956795B795F7959E3F08F0B0CF9395F5
:0E05AA00880F08F09927EE0F97958795089512
:1005B800E89409C097FB3EF49095809570956195F5
:1005C8007F4F8F4F9F4F9923A9F0F92F96E9BB27AB
:1005D8009395F695879577956795B795F111F8CF27
:1005E800FAF4BB0F11F460FF1BC06F5F7F4F8F4F92
:1005F8009F4F16C0882311F096E911C0772321F088
:100608009EE8872F762F05C0662371F096E8862F1F
:1006180070E060E02AF09A95660F771F881FDAF776
:0A062800880F9695879597F90895BD
:100632000E94C60388F09F5798F0B92F9927B751A7
:10064200B0F0E1F0660F771F881F991F1AF0BA9574
:10065200C9F714C0B13091F00E945E04B1E0089570
:100662000C945E04672F782F8827B85F39F0B93F62
:10067200CCF3869577956795B395D9F73EF4909527
:0E0682008095709561957F4F8F4F9F4F089523
:100690000E94C60310F40C947F04E894E0E0BB27AA
:1006A0009F57F0F02AED3FE049EC06C0EE0FBB0F7C
:1006B000661F771F881F28F0B23A62077307840706
:1006C00028F0B25A620B730B840BE3959A9572F77C
:1006D000803830F49A95BB0F661F771F881FD2F7BA
:0606E00090480C94310467
:1006E600DF93CF931F930F93FF92EF92DF927B01DD
:1006F6008C01689406C0DA2EEF010E940B02FE01FF
:10070600E894A5912591359145915591A6F3EF0170
:100716000E947502FE019701A801DA9469F7DF903D
:0E072600EF90FF900F911F91CF91DF910895FA
:10073400990F0008550FAA0BE0E8FEEF16161706EE
:10074400E807F907C0F012161306E407F50798F056
:10075400621B730B840B950B39F40A2661F0232B6F
:10076400242B252B21F408950A2609F4A140A695EB
:080774008FEF811D811D089526
:10077C0057FD9058440F551F59F05F3F71F0479546
:10078C00880F97FB991F61F09F3F79F0879508952B
:10079C00121613061406551FF2CF4695F1DF08C04A
:1007AC00161617061806991FF1CF86957105610567
:0407BC000894089500
:1007C0001F920F920FB60F9211248F939F938091D7
:1007D00078009091790090931701809316019F9172
:0C07E0008F910F900FBE0F901F90189586
:1007EC00EF93E0FF07C0A2EA2AED3FE049EC5FEB94
:1007FC000E9475020E941E040F90039401FC9058F5
:08080C00E8E6F0E00C940A0498
:100814009F938F937F936F93FF93EF939B01AC010F
:100824000E947B04EF91FF910E9473032F913F91EB
:080834004F915F910C947B04CD
:10083C00092E0394000C11F4882352F0BB0F40F4E2
:10084C00BF2B11F460FF04C06F5F7F4F8F4F9F4F22
:02085C000895FD
:10085E009F3F31F0915020F4879577956795B79526
:0C086E00880F911D9695879597F90895C5
:10087A008FEE80937A0010927B0080E480937C0054
:08088A008CE380937E000895C9
:0E0892005058BB27AA270E9475020C941E0422
:0E08A00000240A941616170618060906089575
:0E08AE0000240A941216130614060506089577
:0E08BC00E894BB2766277727CB0197F90895AC
:0C08CA0080911D0180931C018BB90895E2
:0C08D60097F99F6780E870E060E00895EB
:0A08E2000E944803E3950C94F6030E
:0A08EC000E949A0308F48FEF0895AC
:0808F6000E940B020C941E0489
:0608FE009FEF80EC08955D
:040904000C9400004F
:04090800D00F494083
:04090C007233DC3A2C
:020910003200B3
:010912007F65
:010913007F64
:00000001FF
