:100000000C946B000C9435090C9435090C9435094B
:100010000C9435090C9435090C9435090C94350968
:100020000C9435090C9435090C9435090C94350958
:100030000C9435090C9435090C9435090C94350948
:100040000C9435090C9435090C9435090C94350938
:100050000C9435090C9479050C9435090C943509E8
:100060000C9435090C943509F306F706FB06FF06D8
:10007000030707070B070F071307170705A84CCD42
:10008000B2D44EB93836A9020C50B9918688083CD2
:10009000A6AAAA2ABE000000803F010001080012A3
:1000A0006E0108010C80010C011000127601100194
:1000B00014800114011800127A0118012280012213
:1000C000012400127E01240126800126012C001249
:1000D00080012C012E8011241FBECFEFD8E0DEBF9F
:1000E000CDBFEAE9F0E040E017C0B591A5913591A8
:1000F0002591059107FD0CC095918591EF01F92F90
:10010000E82F05900D92A217B307D9F7FE0104C09E
:100110001D92A217B307E1F7E63DF40731F70E94FD
:0A012000A4020C949300F894FFCFA2
:10012A008230910509F48BC01CF4019749F00895B7
:10013A008330910509F405C1049709F481C1089532
:10014A0085E80E94780781E40E944A0786E80E94AF
:10015A0078078DE40E944A0787E80E94780781E0C1
:10016A000E944A0789E80E94780786E40E944A07A3
:10017A008AE80E9478078AE30E944A078DE80E946B
:10018A00780780EB0E944A078CE80E94780780EB88
:10019A000E944A078BE80E94780780EB0E944A0770
:1001AA008EE80E94780788E40E944A078FE80E9436
:1001BA0078078AE70E944A0785EC0E94780780EB55
:1001CA000E944A0786EC0E94780780EB0E944A0741
:1001DA0087EC0E94780780EB0E944A0788EC0E940D
:1001EA00780781E00E944A0789EC0E94780781E03B
:1001FA000E944A078AEC0E94780781E00E944A0717
:10020A008BEC0E94780781E00E944A078CEC0E94DE
:10021A00780781E00E944A078DEC0E94780781E006
:10022A000E944A078EEC0E94780781E00E944A07E2
:10023A008FEC0E94780781E00E944A07089585E8BA
:10024A000E94780786E40E944A0786E80E94780797
:10025A008DE40E944A0787E80E94780781E00E949D
:10026A004A0789E80E94780789E80E94780786E4A5
:10027A000E944A078AE80E9478078AE30E944A078E
:10028A008DE80E94780780EB0E944A078CE80E945A
:10029A00780780EB0E944A078BE80E94780780EB78
:1002AA000E944A078EE80E94780788E40E944A075B
:1002BA008FE80E9478078AE70E944A0785EC0E9425
:1002CA00780780EB0E944A0786EC0E94780780EB49
:1002DA000E944A0787EC0E94780780EB0E944A072F
:1002EA0088EC0E94780781E00E944A0789EC0E9404
:1002FA00780781E00E944A078AEC0E94780781E029
:10030A000E944A078BEC0E94780781E00E944A0704
:10031A008CEC0E94780781E00E944A078DEC0E94CB
:10032A00780781E00E944A078EEC0E94780781E0F4
:10033A000E944A078FEC0E94780781E00E944A07D0
:10034A00089585E80E94780781E40E944A0786E8B2
:10035A000E94780783E50E944A0787E80E94780787
:10036A008BE40E944A0789E80E94780784E50E9484
:10037A004A078AE80E9478078AE30E944A078DE8BA
:10038A000E94780780EB0E944A078CE80E9478074F
:10039A0080EB0E944A078BE80E94780780EB0E9454
:1003AA004A078EE80E94780782E60E944A078FE889
:1003BA000E94780783E70E944A0785EC0E94780723
:1003CA0080EB0E944A0786EC0E94780780EB0E9425
:1003DA004A0787EC0E9478078EE20E944A0788EC57
:1003EA000E94780780EB0E944A0789EC0E947807EE
:1003FA0080EB0E944A078AEC0E9478078EE20E94EC
:10040A004A078BEC0E94780780EB0E944A078CEC23
:10041A000E94780780EB0E944A078DEC0E947807B9
:10042A008EE20E944A078EEC0E94780780EB0E94B7
:10043A004A078FEC0E94780780EB0E944A070895CA
:10044A0085E80E94780786E40E944A0786E80E94A7
:10045A00780783E50E944A0787E80E9478078BE4B9
:10046A000E944A0789E80E94780784E50E944A07A1
:10047A008AE80E9478078AE30E944A078DE80E9468
:10048A00780780EB0E944A078CE80E94780780EB85
:10049A000E944A078BE80E94780780EB0E944A076D
:1004AA008EE80E94780782E60E944A078FE80E9437
:1004BA00780783E70E944A0785EC0E94780780EB59
:1004CA000E944A0786EC0E94780780EB0E944A073E
:1004DA0087EC0E9478078EE20E944A0788EC0E9405
:1004EA00780780EB0E944A0789EC0E94780780EB24
:1004FA000E944A078AEC0E9478078EE20E944A0705
:10050A008BEC0E94780780EB0E944A078CEC0E94D1
:10051A00780780EB0E944A078DEC0E9478078EE2EA
:10052A000E944A078EEC0E94780780EB0E944A07D5
:0E053A008FEC0E94780780EB0E944A0708951C
:10054800CF93DF9300D01F92CDB7DEB78FEF8AB974
:100558008FE384B917B818B815B8F8940E94E5085D
:1005680078940E94DB080E94EE080E94BA0681E097
:1005780090E00E94950000912401109125011695A4
:10058800079516950795098300932D01609126011B
:1005980070912701072E000C880B990B0E941106F9
:1005A8004B015C01C0901001D0901101E090120144
:1005B800F0901301A70196010E942E09609308018B
:1005C8007093090180930A0190930B018091220195
:1005D800909123019B838A830197D1F5202E26943D
:1005E800312C60910C0170910D0180910E01909158
:1005F8000F019B01AC010E94FD089B01AC01C501E4
:10060800B4010E942E099B01AC01C701B6010E94EA
:100618002E090E9424092B013C01B101330C880BDF
:10062800990B0E941106A30192010E942E092B0129
:100638003C0160912B0170E080E090E00E9411067F
:10064800A30192010E94FD080E941B0760932C01E0
:100658008A819B81039709F041C099819A3028F4D7
:1006680080912B0180932C0139C0069510E0609190
:100678000C0170910D0180910E0190910F019B0169
:10068800AC010E94FD089B01AC01C501B4010E94A8
:100698002E099B01AC01C701B6010E942E090E94D8
:1006A80024092B013C01B801110F880B990B0E94FA
:1006B8001106A30192010E942E092B013C016091B1
:1006C8002B0170E080E090E00E941106A3019201E6
:1006D8000E94FD080E941B0760932C018A819B8160
:1006E800049709F076C099819A30C8F560910C0199
:1006F80070910D0180910E0190910F019B01AC0149
:100708000E94FD089B01AC01C501B4010E942E099D
:100718009B01AC01C701B6010E942E090E94240961
:100728006B017C0160912A0170E080E090E00E94FA
:100738001106A70196010E942E096B017C016091A8
:100748002B0170E080E090E00E941106A70196015D
:100758000E94FD080E941B0760932C013AC020E00C
:1007680030E040E850E460910C0170910D018091F7
:100778000E0190910F010E942E099B01AC01C50149
:10078800B4010E942E099B01AC01C701B6010E9469
:100798002E090E9424096B017C0160912A0170E0F6
:1007A80080E090E00E941106A70196010E942E09A0
:1007B8006B017C0160912B0170E080E090E00E9469
:1007C8001106A70196010E94FD080E941B0760936D
:1007D8002C0180912C018BB92091140130911501C5
:1007E800409116015091170160911001709111010B
:1007F80080911201909113010E94FD0860931001ED
:100808007093110180931201909313016091080174
:100818007091090180910A0190910B0120E030E06C
:1008280040E85FE30E942909882344F010921001F0
:10083800109211011092120110921301809122015D
:1008480090912301039714F40E941A05329B93CECA
:10085800ECE7F0E080818160808302C00E94F508A7
:10086800339BFCCF02C00E94CE08349BFCCF809102
:100878002201909123010E9495000E94CC05ECE78B
:0A088800F0E080818E7F808376CE41
:100892000FC00E94030938F00E940A0920F0952334
:1008A20011F00C9418090C94320911240C941209B9
:1008B2000E94480870F3959FC1F3950F50E0551FB1
:1008C200629FF001729FBB27F00DB11D639FAA27A3
:1008D200F00DB11DAA1F649F6627B00DA11D661FF2
:1008E200829F2227B00DA11D621F739FB00DA11D13
:1008F200621F839FA00D611D221F749F3327A00DCD
:10090200611D231F849F600D211D822F762F6A2F68
:1009120011249F5750409AF0F1F088234AF0EE0FCD
:10092200FF1FBB1F661F771F881F91505040A9F7FA
:100932009E3F510580F00C9418090C9412095F3FF8
:10094200E4F3983ED4F3869577956795B795F79536
:10095200E7959F5FC1F7FE2B880F911D96958795AE
:0409620097F9089564
:1009660011C00E94030938F00E940A0920F039F4E8
:100976009F3F19F426F40C9432090EF4E095E7FB38
:100986000C941809E92F0E94480858F3BA17620711
:1009960073078407950720F079F4A6F50C941109DE
:1009A6000EF4E0950B2EBA2FA02D0B01B901900184
:1009B6000C01CA01A0011124FF27591B99F0593FC8
:1009C60050F4503E68F11A16F040A22F232F342F10
:1009D6004427585FF3CF469537952795A795F0405E
:1009E6005395C9F77EF41F16BA0B620B730B840B73
:1009F600BAF09150A1F0FF0FBB1F661F771F881F2B
:100A0600C2F70EC0BA0F621F731F841F48F4879582
:100A160077956795B795F7959E3F08F0B0CF939574
:0E0A2600880F08F09927EE0F97958795089591
:100A3400609124017091250180E090E00E940F06EE
:100A440026E636E646E65FE30E942E090E941B076F
:100A5400CB010E94A60785EC0E94780780911C01B7
:100A640090911D010E94EB0686EC0E94780780910C
:100A74001E0190911F010E94EB0687EC0E947807EB
:100A840080912001909121010E94EB0688EC0E9444
:100A9400780781E00E944A0789EC0E94780781E088
:100AA4000E944A078AEC0E94780781E00E944A0764
:100AB4008BEC0E94780781E00E944A078CEC0E942C
:100AC400780781E00E944A078DEC0E94780781E054
:100AD4000E944A078EEC0E94780781E00E944A0730
:0E0AE4008FEC0E94780781E00E944A07089577
:100AF2001F920F920FB60F9211242F933F938F9351
:100B02009F93EF93FF938091780090917900909357
:100B12002501809324012091220130912301233069
:100B2200310574F135990FC00B9718F41092290111
:100B320003C081E08093290181E090E09093190144
:100B4200809318011DC08091290180932801209172
:100B52001801309119012130310591F420911A01C7
:100B620030911B01F901E050FF4F80832F5F3F4F0F
:100B720030931B0120931A0110921901109218014F
:100B8200FF91EF919F918F913F912F910F900FBE07
:060B92000F901F90189562
:100B980085EC0E94780783E40E944A0786EC0E944D
:100BA800780781E40E944A0787EC0E9478078CE462
:100BB8000E944A0788EC0E94780783E40E944A074B
:100BC80089EC0E94780785E50E944A078AEC0E9412
:100BD80078078CE40E944A078BEC0E94780781E42E
:100BE8000E944A078CEC0E9478078EE40E944A070C
:100BF8008DEC0E94780784E40E944A078EEC0E94DC
:100C080078078FE40E944A078FEC0E94780781E0FA
:060C18000E944A07089546
:100C1E00E89409C097FB3EF4909580957095619588
:100C2E007F4F8F4F9F4F9923A9F0F92F96E9BB273E
:100C3E009395F695879577956795B795F111F8CFBA
:100C4E00FAF4BB0F11F460FF1BC06F5F7F4F8F4F25
:100C5E009F4F16C0882311F096E911C0772321F01B
:100C6E009EE8872F762F05C0662371F096E8862FB3
:100C7E0070E060E02AF09A95660F771F881FDAF70A
:0A0C8E00880F9695879597F9089551
:100C98008F3F910509F048F481E090E0909323019B
:100CA800809322010E94950008959C013A952F3F58
:100CB800310548F482E090E090932301809322016B
:100CC8000E94950008959C012F5F31402F3F310508
:100CD80048F483E090E090932301809322010E94DE
:100CE800950008958E5F92408230914040F484E0F0
:100CF80090E090932301809322010E94950008952B
:100D08000E94A60789E80E94780780E50E944A07A2
:100D18008AE80E9478078AE30E944A078EE80E94C0
:100D2800780788E40E944A078FE80E9478078AE7D4
:100D38000E944A078BE80E94780780911C019091D5
:100D48001D010E94EB068CE80E94780780911E0125
:100D580090911F010E94EB068DE80E947807809110
:0C0D68002001909121010E94EB060895EB
:100D740080E80E9478078DE40E944A0781E80E9477
:100D840078078FE60E944A0782E80E94780784E683
:100D94000E944A0783E80E9478078AE30E944A0770
:100DA40080EC0E9478078DE40E944A0781EC0E943F
:100DB400780783E70E944A0782EC0E94780787E657
:100DC4000E944A0783EC0E9478078AE30E944A073C
:020DD400089580
:100DD6008A30910560F5FC01EC5CFF4F0C941E090E
:100DE60080E30E944A07089581E30E944A07089516
:100DF60082E30E944A07089583E30E944A07089502
:100E060084E30E944A07089585E30E944A070895ED
:100E160086E30E944A07089587E30E944A070895D9
:100E260088E30E944A07089589E30E944A070895C5
:100E36000E94500888F09F5798F0B92F9927B7510C
:100E4600B0F0E1F0660F771F881F991F1AF0BA9568
:100E5600C9F714C0B13091F00E941109B1E00895AC
:100E66000C941109672F782F8827B85F39F0B93F9E
:100E7600CCF3869577956795B395D9F73EF490951B
:0E0E86008095709561957F4F8F4F9F4F089517
:100E940095B1906295B920E030E021C0211531056B
:100EA40081F495B1907F95B995B1482F42954F70D3
:100EB400942B95B995B1906195B995B19F7E95B9EB
:100EC4000CC095B1907F95B995B1982B95B995B112
:100ED400906195B995B19F7E95B92F5F3F4F2230B0
:0C0EE4003105E4F285B18F7D85B90895D9
:100EF00095B19F7D95B920E030E021C021153105E5
:100F000081F495B1907F95B995B1482F42954F7076
:100F1000942B95B995B1906195B995B19F7E95B98E
:100F20000CC095B1907F95B995B1982B95B995B1B5
:100F3000906195B995B19F7E95B92F5F3F4F223053
:0C0F40003105E4F285B18F7D85B908957C
:100F4C0010921F0110921E0110921D0110921C0193
:100F5C00843691056CF08456910920911C013091D6
:100F6C001D012F5F3F4F30931D0120931C01F0CFCB
:100F7C008A30910564F00A9720911E0130911F016F
:100F8C002F5F3F4F30931F0120931E01F1CF9093A1
:080F9C0021018093200108955A
:100FA4000E94500810F40C943209E894E0E0BB2746
:100FB4009F57F0F02AED3FE049EC06C0EE0FBB0F5F
:100FC400661F771F881F28F0B23A620773078407E9
:100FD40028F0B25A620B730B840BE3959A9572F75F
:100FE400803830F49A95BB0F661F771F881FD2F79D
:060FF40090480C94B508C2
:100FFA00DF93CF931F930F93FF92EF92DF927B01C0
:10100A008C01689406C0DA2EEF010E944904FE01A1
:10101A00E894A5912591359145915591A6F3EF0153
:10102A000E94B304FE019701A801DA9469F7DF90E0
:0E103A00EF90FF900F911F91CF91DF910895DD
:10104800990F0008550FAA0BE0E8FEEF16161706D1
:10105800E807F907C0F012161306E407F50798F039
:10106800621B730B840B950B39F40A2661F0232B52
:10107800242B252B21F408950A2609F4A140A695CE
:081088008FEF811D811D089509
:1010900057FD9058440F551F59F05F3F71F0479529
:1010A000880F97FB991F61F09F3F79F0879508950E
:1010B000121613061406551FF2CF4695F1DF08C02D
:1010C000161617061806991FF1CF8695710561054A
:0410D00008940895E3
:1010D400EF93E0FF07C0A2EA2AED3FE049EC5FEBA3
:1010E4000E94B3040E9492080F90039401FC90584C
:0810F400ECE7F0E00C947E082B
:1010FC009F938F937F936F93FF93EF939B01AC011F
:10110C000E942E09EF91FF910E94FD072F913F91B4
:08111C004F915F910C942E0924
:10112400092E0394000C11F4882352F0BB0F40F4F1
:10113400BF2B11F460FF04C06F5F7F4F8F4F9F4F31
:0211440008950C
:1011460095B1907F95B995B1892B85B985B18F7D7C
:1011560085B985B1806185B985B18F7E85B90895D8
:101166009F3F31F0915020F4879577956795B79515
:0C117600880F911D9695879597F90895B4
:101182008536910538F0873E23E0920728F087EEF6
:0A11920093E0089584E690E00895CC
:10119C0080912401909125010E94C1089093270110
:0A11AC00809326010E948406089536
:1011B60082E00E94A30882E00E94A30888E00E94C1
:0411C600A3080895DD
:1011CA008FEE80937A0010927B0080E480937C00FB
:0211DA00089576
:0E11DC0080E00E94A3088CE00E94A308089502
:0E11EA0080912401909125010E944C060895E9
:0E11F8005058BB27AA270E94B3040C949208FB
:0E12060000240A941616170618060906089505
:0E12140000240A941216130614060506089507
:0E122200E894BB2766277727CB0197F908953C
:0C12300097F99F6780E870E060E0089587
:0C123C00EE0FFF1F0590F491E02D0994C7
:0A1248000E94D207E3950C946A0897
:0A1252000E94240808F48FEF0895AD
:08125C000E9449040C94920861
:061264009FEF80EC0895ED
:04126A000C940000E0
:08126E003030303030303030F8
:04127600D00F49400C
:04127A007233DC3AB5
:02127E0001006D
:02128000640008
:01128200303B
:01128300303A
:011284007FEA
:011285007FE9
:00000001FF
