:100000000C9455000C9437030C9437030C9437036D
:100010000C9437030C9437030C9437030C94370378
:100020000C9437030C9437030C9437030C94370368
:100030000C9437030C9437030C9437030C94370358
:100040000C9437030C9437030C9437030C94370348
:100050000C9437030C9437030C9437030C94370338
:100060000C9437030C94370305A84CCDB2D44EB989
:100070003836A9020C50B9918688083CA6AAAA2A4B
:10008000BE000000803F010001040006720104016F
:1000900008800108010C000676010C010E80010E9B
:1000A000011000067A011001138011241FBECFEF4A
:1000B000D8E0DEBFCDBFE6E8F0E040E017C0B59184
:1000C000A59135912591059107FD0CC095918591DC
:1000D000EF01F92FE82F05900D92A217B307D9F77A
:1000E000FE0104C01D92A217B307E1F7EA3AF40734
:0E00F00031F70E947F000C947D00F894FFCF42
:1000FE008FEF8AB984B917B880E480937C00109290
:10010E007B008EE380937E0087E880937A00EAE797
:10011E00F0E080818064808380917A0084FFFCCF40
:10012E00209178003091790030930D0120930C01CD
:10013E00C90199230CF40396959587959595879506
:10014E008093120160911001062F10E090E0EC01F7
:10015E00C01BD10B609100017091010180910201D1
:10016E00909103019B01AC010E940A036B017C017B
:10017E0060910E0170910F01072E000C880B990BE8
:10018E000E94E401A70196010E9430032091040110
:10019E003091050140910601509107010E943003F4
:1001AE000E942B036B017C01BE01DD0F880B990BA6
:1001BE000E94E401A70196010E9430036B017C01AD
:1001CE00B801110F880B990B0E94E401A70196014B
:1001DE000E940A030E941F02609311016BB92091C5
:1001EE0008013091090140910A0150910B01609173
:1001FE0004017091050180910601909107010E9402
:10020E000A03609304017093050180930601909395
:04021E0007017DCF88
:100222000FC00E94100338F00E94170320F095239C
:1002320011F00C9425030C94340311240C941F0325
:100242000E94A00270F3959FC1F3950F50E0551FD5
:10025200629FF001729FBB27F00DB11D639FAA2719
:10026200F00DB11DAA1F649F6627B00DA11D661F68
:10027200829F2227B00DA11D621F739FB00DA11D89
:10028200621F839FA00D611D221F749F3327A00D43
:10029200611D231F849F600D211D822F762F6A2FDF
:1002A20011249F5750409AF0F1F088234AF0EE0F44
:1002B200FF1FBB1F661F771F881F91505040A9F771
:1002C2009E3F510580F00C9425030C941F035F3F61
:1002D200E4F3983ED4F3869577956795B795F795AD
:1002E200E7959F5FC1F7FE2B880F911D9695879525
:0402F20097F90895DB
:1002F60011C00E94100338F00E94170320F039F451
:100306009F3F19F426F40C9434030EF4E095E7FBB2
:100316000C942503E92F0E94A00258F3BA1762072E
:1003260073078407950720F079F4A6F50C941E034D
:100336000EF4E0950B2EBA2FA02D0B01B9019001FA
:100346000C01CA01A0011124FF27591B99F0593F3E
:1003560050F4503E68F11A16F040A22F232F342F86
:100366004427585FF3CF469537952795A795F040D4
:100376005395C9F77EF41F16BA0B620B730B840BE9
:10038600BAF09150A1F0FF0FBB1F661F771F881FA1
:10039600C2F70EC0BA0F621F731F841F48F48795F9
:1003A60077956795B795F7959E3F08F0B0CF9395EB
:0E03B600880F08F09927EE0F97958795089508
:1003C400E89409C097FB3EF49095809570956195EB
:1003D4007F4F8F4F9F4F9923A9F0F92F96E9BB27A1
:1003E4009395F695879577956795B795F111F8CF1D
:1003F400FAF4BB0F11F460FF1BC06F5F7F4F8F4F88
:100404009F4F16C0882311F096E911C0772321F07D
:100414009EE8872F762F05C0662371F096E8862F15
:1004240070E060E02AF09A95660F771F881FDAF76C
:0A043400880F9695879597F90895B3
:10043E000E94A80288F09F5798F0B92F9927B751BC
:10044E00B0F0E1F0660F771F881F991F1AF0BA956A
:10045E00C9F714C0B13091F00E941E03B1E00895A7
:10046E000C941E03672F782F8827B85F39F0B93F99
:10047E00CCF3869577956795B395D9F73EF490951D
:0E048E008095709561957F4F8F4F9F4F089519
:10049C000E94A80210F40C943403E894E0E0BB270B
:1004AC009F57F0F02AED3FE049EC06C0EE0FBB0F72
:1004BC00661F771F881F28F0B23A620773078407FC
:1004CC0028F0B25A620B730B840BE3959A9572F772
:1004DC00803830F49A95BB0F661F771F881FD2F7B0
:0604EC0090480C94FD0293
:1004F200DF93CF931F930F93FF92EF92DF927B01D3
:100502008C01689406C0DA2EEF010E941101FE01EF
:10051200E894A5912591359145915591A6F3EF0166
:100522000E947B01FE019701A801DA9469F7DF902E
:0E053200EF90FF900F911F91CF91DF910895F0
:1005400057FD9058440F551F59F05F3F71F0479584
:10055000880F97FB991F61F09F3F79F08795089569
:10056000121613061406551FF2CF4695F1DF08C088
:10057000161617061806991FF1CF869571056105A5
:04058000089408953E
:10058400EF93E0FF07C0A2EA2AED3FE049EC5FEBFE
:100594000E947B010E94EA020F90039401FC905890
:0805A400E8E6F0E00C94D60239
:1005AC009F938F937F936F93FF93EF939B01AC017A
:1005BC000E943003EF91FF910E9479022F913F919D
:0805CC004F915F910C94300384
:1005D400092E0394000C11F4882352F0BB0F40F44D
:1005E400BF2B11F460FF04C06F5F7F4F8F4F9F4F8D
:0205F400089568
:1005F6009F3F31F0915020F4879577956795B79591
:0C060600880F911D9695879597F908952F
:0E0612005058BB27AA270E947B010C94EA02D5
:0E06200000240A9416161706180609060895F7
:0E062E0000240A9412161306140605060895F9
:0E063C00E894BB2766277727CB0197F908952E
:0C064A0097F99F6780E870E060E0089579
:0A0656000E944E02E3950C94C202CC
:080660000E9411010C94EA0252
:060668009FEF80EC0895F5
:04066E000C940000E8
:04067200D00F49401C
:04067600BD378637CF
:02067A0064001A
:00000001FF
