:100000000C946B000C94210C0C94210C0C94210C7E
:100010000C94210C0C94210C0C94210C0C94210CAC
:100020000C94210C0C94210C0C94210C0C94210C9C
:100030000C94210C0C94210C0C94210C0C94210C8C
:100040000C94210C0C94210C0C94210C0C94210C7C
:100050000C94210C0C942A050C94210C0C94210C6A
:100060000C94210C0C94210CA709AB09AF09B3091E
:10007000B709BB09BF09C309C709CB0905A84CCDFE
:10008000B2D44EB93836A9020C50B9918688083CD2
:10009000A6AAAA2ABE000000803F0100010800189D
:1000A0004601080110800110011400184E011401CE
:1000B00018800118011C001852011C012A80012A15
:1000C000012C001856012C012E80012E013400183D
:1000D00058013401368011241FBECFEFD8E0DEBFB7
:1000E000CDBFEAE9F0E040E017C0B591A5913591A8
:1000F0002591059107FD0CC095918591EF01F92F90
:10010000E82F05900D92A217B307D9F7FE0104C09E
:100110001D92A217B307E1F7E63DF40731F70E94FD
:0A01200095000C949300F894FFCFB3
:10012A008FEF8AB984B917B818B815B8F8940E942D
:10013A00C10B78940E94B70B0E94CA0B0E946E09E9
:10014A0081E090E00E941B0380912C0190912D0187
:10015A0096958795969587958093350160912E019E
:10016A0070912F01072E000C880B990B0E94C5086D
:10017A0020911401309115014091160150911701F7
:10018A000E941A0C60930C0170930D0180930E016A
:10019A0090930F0180912A0190912B0103979CF46F
:1001AA0080911E0190911F0101970A9728F01092E1
:1001BA001D0110921C011AC081E090E090931D016C
:1001CA0080931C0113C080911E0190911F01089712
:1001DA008934910528F010921D0110921C0106C065
:1001EA0081E090E090931D0180931C0180911C0195
:1001FA0090911D01892B69F480911E0190911F0134
:10020A000E94400685B18F7B85B985B1806885B922
:10021A00EEC185B18F7785B985B1806485B9C09102
:10022A002A01D0912B01C130D10509F04AC0609151
:10023A0035016695E62EF12C60911001709111013D
:10024A0080911201909113019B01AC010E94D90B7C
:10025A004B015C0160912E0170912F01072E000C59
:10026A00880B990B0E94C508A50194010E941A0CDB
:10027A0020911401309115014091160150911701F6
:10028A000E941A0C0E940C0C4B015C01B701FF0C76
:10029A00880B990B0E94C508A50194010E941A0CAB
:1002AA006B017C016091330170E080E090E00E9474
:1002BA00C508A70196010E94D90B0E94CF09609335
:1002CA003401C230D10509F057C060911001709114
:1002DA00110180911201909113019B01AC010E94BE
:1002EA00D90B2091140130911501409116015091BA
:1002FA0017010E941A0C6B017C01909135019695A9
:10030A0020912E0130912F01929FA001939F500DB1
:10031A001124CA016FEF70E00E94460B620F731F2F
:10032A00072E000C880B990B0E94C5089B01AC0193
:10033A00C701B6010E941A0C0E940C0C6B017C01C9
:10034A006091320170E080E090E00E94C508A70148
:10035A0096010E941A0C6B017C016091330170E0D6
:10036A0080E090E00E94C508A70196010E94D90B7F
:10037A000E94CF0960933401C330D10509F051C0FE
:10038A00609135016A3028F48091330180933401F9
:10039A0048C06695E62EF12C60911001709111010A
:1003AA0080911201909113019B01AC010E94D90B1B
:1003BA004B015C0160912E0170912F01072E000CF8
:1003CA00880B990B0E94C508A50194010E941A0C7A
:1003DA002091140130911501409116015091170195
:1003EA000E941A0C0E940C0C4B015C01B701FF0C15
:1003FA00880B990B0E94C508A50194010E941A0C4A
:10040A006B017C016091330170E080E090E00E9412
:10041A00C508A70196010E94D90B0E94CF096093D3
:10042A003401249709F094C0809135018A3008F08C
:10043A0047C0609110017091110180911201909151
:10044A0013019B01AC010E94D90B6B017C016091E5
:10045A002E0170912F01072E000C880B990B0E9418
:10046A00C508A70196010E941A0C20911401309127
:10047A00150140911601509117010E941A0C0E9411
:10048A000C0C6B017C016091320170E080E090E01D
:10049A000E94C508A70196010E941A0C6B017C01F3
:1004AA006091330170E080E090E00E94C508A701E6
:1004BA0096010E94D90B0E94CF096093340148C06B
:1004CA0020E030E040E850E46091100170911101A1
:1004DA0080911201909113010E941A0C6B017C0108
:1004EA0060912E0170912F01072E000C880B990B39
:1004FA000E94C508A70196010E941A0C20911401B6
:10050A003091150140911601509117010E941A0C61
:10051A000E940C0C6B017C016091320170E080E05A
:10052A0090E00E94C508A70196010E941A0C6B016F
:10053A007C016091330170E080E090E00E94C50880
:10054A00A70196010E94D90B0E94CF09609334013A
:10055A00809134018BB92091180130911901409191
:10056A001A0150911B01609114017091150180913B
:10057A001601909117010E94D90B60931401709390
:10058A001501809316019093170160910C017091E7
:10059A000D0180910E0190910F0120E030E040E8BA
:1005AA005FE30E94110C882344F010921401109208
:1005BA001501109216011092170180912A0190914B
:1005CA002B01039734F480911E0190911F010E9420
:1005DA00400680912A0190912B01039744F0609183
:1005EA001E0170911F0180E091E00E94CE06329BAD
:1005FA00ABCDECE7F0E080818160808302C00E948D
:10060A00D10B339BFCCF02C00E94AA0B349BFCCFB8
:10061A0080912A0190912B010E941B030E9480085D
:0C062A00ECE7F0E080818E7F80838ECDB5
:100636008230910509F48BC01CF4019749F00895A6
:100646008330910509F405C1049709F481C1089521
:1006560085E80E942C0A81E40E94FE0986E80E9431
:100666002C0A8DE40E94FE0987E80E942C0A81E08C
:100676000E94FE0989E80E942C0A86E40E94FE096F
:100686008AE80E942C0A8AE30E94FE098DE80E94ED
:100696002C0A80EB0E94FE098CE80E942C0A80EB53
:1006A6000E94FE098BE80E942C0A80EB0E94FE093C
:1006B6008EE80E942C0A88E40E94FE098FE80E94B8
:1006C6002C0A8AE70E94FE0985EC0E942C0A80EB20
:1006D6000E94FE0986EC0E942C0A80EB0E94FE090D
:1006E60087EC0E942C0A80EB0E94FE0988EC0E948F
:1006F6002C0A81E00E94FE0989EC0E942C0A81E006
:100706000E94FE098AEC0E942C0A81E00E94FE09E2
:100716008BEC0E942C0A81E00E94FE098CEC0E9460
:100726002C0A81E00E94FE098DEC0E942C0A81E0D1
:100736000E94FE098EEC0E942C0A81E00E94FE09AE
:100746008FEC0E942C0A81E00E94FE09089585E83C
:100756000E942C0A86E40E94FE0986E80E942C0A62
:100766008DE40E94FE0987E80E942C0A81E00E941F
:10077600FE0989E80E942C0A89E80E942C0A86E470
:100786000E94FE098AE80E942C0A8AE30E94FE095A
:100796008DE80E942C0A80EB0E94FE098CE80E94DC
:1007A6002C0A80EB0E94FE098BE80E942C0A80EB43
:1007B6000E94FE098EE80E942C0A88E40E94FE0927
:1007C6008FE80E942C0A8AE70E94FE0985EC0E94A7
:1007D6002C0A80EB0E94FE0986EC0E942C0A80EB14
:1007E6000E94FE0987EC0E942C0A80EB0E94FE09FB
:1007F60088EC0E942C0A81E00E94FE0989EC0E9486
:100806002C0A81E00E94FE098AEC0E942C0A81E0F3
:100816000E94FE098BEC0E942C0A81E00E94FE09D0
:100826008CEC0E942C0A81E00E94FE098DEC0E944D
:100836002C0A81E00E94FE098EEC0E942C0A81E0BF
:100846000E94FE098FEC0E942C0A81E00E94FE099C
:10085600089585E80E942C0A81E40E94FE0986E834
:100866000E942C0A83E50E94FE0987E80E942C0A52
:100876008BE40E94FE0989E80E942C0A84E50E9406
:10088600FE098AE80E942C0A8AE30E94FE098DE886
:100896000E942C0A80EB0E94FE098CE80E942C0A1A
:1008A60080EB0E94FE098BE80E942C0A80EB0E94D6
:1008B600FE098EE80E942C0A82E60E94FE098FE855
:1008C6000E942C0A83E70E94FE0985EC0E942C0AEE
:1008D60080EB0E94FE0986EC0E942C0A80EB0E94A7
:1008E600FE0987EC0E942C0A8EE20E94FE0988EC23
:1008F6000E942C0A80EB0E94FE0989EC0E942C0AB9
:1009060080EB0E94FE098AEC0E942C0A8EE20E946D
:10091600FE098BEC0E942C0A80EB0E94FE098CECEF
:100926000E942C0A80EB0E94FE098DEC0E942C0A84
:100936008EE20E94FE098EEC0E942C0A80EB0E9439
:10094600FE098FEC0E942C0A80EB0E94FE09089596
:1009560085E80E942C0A86E40E94FE0986E80E9429
:100966002C0A83E50E94FE0987E80E942C0A8BE484
:100976000E94FE0989E80E942C0A84E50E94FE096D
:100986008AE80E942C0A8AE30E94FE098DE80E94EA
:100996002C0A80EB0E94FE098CE80E942C0A80EB50
:1009A6000E94FE098BE80E942C0A80EB0E94FE0939
:1009B6008EE80E942C0A82E60E94FE098FE80E94B9
:1009C6002C0A83E70E94FE0985EC0E942C0A80EB24
:1009D6000E94FE0986EC0E942C0A80EB0E94FE090A
:1009E60087EC0E942C0A8EE20E94FE0988EC0E9487
:1009F6002C0A80EB0E94FE0989EC0E942C0A80EBEF
:100A06000E94FE098AEC0E942C0A8EE20E94FE09D0
:100A16008BEC0E942C0A80EB0E94FE098CEC0E9453
:100A26002C0A80EB0E94FE098DEC0E942C0A8EE2B5
:100A36000E94FE098EEC0E942C0A80EB0E94FE09A1
:0E0A46008FEC0E942C0A80EB0E94FE0908959E
:100A54001F920F920FB60F921124CF92DF92EF9252
:100A6400FF920F931F932F933F934F935F936F9333
:100A74007F938F939F93AF93BF93CF93DF93EF9322
:100A8400FF93009178001091790010932D01009349
:100A94002C01C0912A01D0912B01C330D1050CF057
:100AA4005BC0011582E0180708F520911801309108
:100AB400190140911A0150911B0160910801709134
:100AC400090180910A0190910B010E94D90B609356
:100AD40008017093090180930A0190930B0181E04E
:100AE40090E0909321018093200136C080912001F1
:100AF40090912101019781F5C0900801D0900901DE
:100B0400E0900A01F0900B0120E030E0A901C70158
:100B1400B6010E94070C882379F0A701960160E0D2
:100B240070E080E090E40E94160C0E94DF0B70934A
:100B34001F0160931E0104C010921F0110921E0138
:100B440010922101109220011092080110920901C3
:100B540010920A0110920B0123970CF476C0209195
:100B640018013091190140911A0150911B016091B3
:100B740008017091090180910A0190910B010E9472
:100B8400D90B6B017C016093080170930901809378
:100B94000A0190930B01359911C00B30110520F413
:100BA40080E38093310103C081E38093310181E0CC
:100BB40090E0909321018093200147C080913101FE
:100BC40080933001209120013091210121303105A1
:100BD400E1F52091220130912301F901E050FF4F0A
:100BE4008083C9010196909323018093220110927E
:100BF400210110922001089721F4109223011092F0
:100C0400220120E030E0A901C701B6010E94070CCF
:100C1400882379F0A701960160E070E080E89FE303
:100C24000E94160C0E94DF0B70931F0160931E013B
:100C340004C010921F0110921E011092080110921C
:100C4400090110920A0110920B01FF91EF91DF91BB
:100C5400CF91BF91AF919F918F917F916F915F9150
:100C64004F913F912F911F910F91FF90EF90DF9043
:0C0C7400CF900F900FBE0F901F901895AE
:100C8000CF93DF93EC0160912C0170912D0180E0F6
:100C900090E00E94C30826E636E646E65FE30E943F
:100CA0001A0C0E94CF09CB010E945A0A85EC0E94BF
:100CB0002C0A80912401909125010E949F0986ECC5
:100CC0000E942C0A80912601909127010E949F0981
:100CD00087EC0E942C0A80912801909129010E94A2
:100CE0009F0988EC0E942C0A81E00E94FE0989EC91
:100CF0000E942C0A81E00E94FE098AEC0E942C0AC4
:100D000081E00E94FE098BEC0E942C0A81E00E9487
:100D1000FE098CEC0E942C0A81E00E94FE098DECF9
:100D20000E942C0A81E00E94FE098EEC0E942C0A8F
:100D300081E00E94FE098FEC0E942C0A81E00E9453
:100D4000FE0989E80E942C0A86E40E94FE098AE8CE
:100D50000E942C0A8AE30E94FE09CE010E945A0AD0
:100D60008BE80E942C0A80912401909125010E9419
:100D70009F098CE80E942C0A8091260190912701FE
:100D80000E949F098DE80E942C0A80912801909171
:0C0D900029010E949F09DF91CF91089576
:100D9C00CF93DF93EC01CB010E945A0A85EC0E94A1
:100DAC002C0A88810E94FE0986EC0E942C0A8981FB
:100DBC000E94FE0987EC0E942C0A8EE20E94FE091A
:100DCC0088EC0E942C0A8A810E94FE0989EC0E9400
:100DDC002C0A8B810E94FE098AEC0E942C0A8EE25E
:100DEC000E94FE098BEC0E942C0A8C810E94FE0949
:100DFC008CEC0E942C0A8D810E94FE098DEC0E94C5
:100E0C002C0A8EE20E94FE098EEC0E942C0A8E8126
:100E1C000E94FE098FEC0E942C0A8F810E94FE0911
:100E2C0089E80E942C0A84E50E94FE098AE80E9447
:100E3C002C0A8AE30E94FE098BE80E942C0A8091FE
:100E4C002401909125010E949F098CE80E942C0A94
:100E5C0080912601909127010E949F098DE80E94A4
:100E6C002C0A80912801909129010E949F09DF9101
:040E7C00CF91089575
:100E800010C00E94ED0B58F00E94E60B40F029F4D0
:100E90005F3F29F00C94FB0B51110C94F50B0C9453
:100EA0001E0C0E94FC0A68F39923B1F3552391F3B9
:100EB000951B550BBB27AA2762177307840738F0C9
:100EC0009F5F5F4F220F331F441FAA1FA9F335D026
:100ED0000E2E3AF0E0E832D091505040E695001CDA
:100EE000CAF72BD0FE2F29D0660F771F881FBB1F94
:100EF000261737074807AB07B0E809F0BB0B802D72
:100F0000BF01FF2793585F4F3AF09E3F510578F09D
:100F10000C94FB0B0C94F50B5F3FE4F3983ED4F379
:100F2000869577956795B795F7959F5FC9F7880F71
:100F3000911D9695879597F90895E1E0660F771FC3
:100F4000881FBB1F621773078407BA0720F0621B54
:0E0F5000730B840BBA0BEE1F88F7E095089523
:100F5E000FC00E94E60B38F00E94ED0B20F0952397
:100F6E0011F00C94FB0B0C941E0C11240C94F50B2D
:100F7E000E94FC0A70F3959FC1F3950F50E0551F28
:100F8E00629FF001729FBB27F00DB11D639FAA27D0
:100F9E00F00DB11DAA1F649F6627B00DA11D661F1F
:100FAE00829F2227B00DA11D621F739FB00DA11D40
:100FBE00621F839FA00D611D221F749F3327A00DFA
:100FCE00611D231F849F600D211D822F762F6A2F96
:100FDE0011249F5750409AF0F1F088234AF0EE0FFB
:100FEE00FF1FBB1F661F771F881F91505040A9F728
:100FFE009E3F510580F00C94FB0B0C94F50B5F3F5C
:10100E00E4F3983ED4F3869577956795B795F79563
:10101E00E7959F5FC1F7FE2B880F911D96958795DB
:04102E0097F9089591
:1010320011C00E94E60B38F00E94ED0B20F039F44B
:101042009F3F19F426F40C941E0C0EF4E095E7FB76
:101052000C94FB0BE92F0E94FC0A58F3BA176207A3
:1010620073078407950720F079F4A6F50C94F40B26
:101072000EF4E0950B2EBA2FA02D0B01B9019001B1
:101082000C01CA01A0011124FF27591B99F0593FF5
:1010920050F4503E68F11A16F040A22F232F342F3D
:1010A2004427585FF3CF469537952795A795F0408B
:1010B2005395C9F77EF41F16BA0B620B730B840BA0
:1010C200BAF09150A1F0FF0FBB1F661F771F881F58
:1010D200C2F70EC0BA0F621F731F841F48F48795B0
:1010E20077956795B795F7959E3F08F0B0CF9395A2
:0E10F200880F08F09927EE0F979587950895BF
:1011000085EC0E942C0A83E40E94FE0986EC0E9472
:101110002C0A81E40E94FE0987EC0E942C0A8CE4D0
:101120000E94FE0988EC0E942C0A83E40E94FE09BA
:1011300089EC0E942C0A85E50E94FE098AEC0E9437
:101140002C0A8CE40E94FE098BEC0E942C0A81E49C
:101150000E94FE098CEC0E942C0A8EE40E94FE097B
:101160008DEC0E942C0A84E40E94FE098EEC0E9401
:101170002C0A8FE40E94FE098FEC0E942C0A81E069
:061180000E94FE09089523
:10118600E89409C097FB3EF490958095709561951B
:101196007F4F8F4F9F4F9923A9F0F92F96E9BB27D1
:1011A6009395F695879577956795B795F111F8CF4D
:1011B600FAF4BB0F11F460FF1BC06F5F7F4F8F4FB8
:1011C6009F4F16C0882311F096E911C0772321F0AE
:1011D6009EE8872F762F05C0662371F096E8862F46
:1011E60070E060E02AF09A95660F771F881FDAF79D
:0A11F600880F9695879597F90895E4
:101200008F3F910509F048F481E090E090932B0125
:1012100080932A010E941B0308959C013A952F3F59
:10122000310548F482E090E090932B0180932A01ED
:101230000E941B0308959C012F5F31402F3F310511
:1012400048F483E090E090932B0180932A010E9460
:101250001B0308958E5F92408230914040F484E0F9
:1012600090E090932B0180932A010E941B03089524
:101270000E945A0A89E80E942C0A80E50E94FE0911
:101280008AE80E942C0A8AE30E94FE098EE80E94E6
:101290002C0A88E40E94FE098FE80E942C0A8AE743
:1012A0000E94FE098BE80E942C0A809124019091F3
:1012B00025010E949F098CE80E942C0A809126013A
:1012C000909127010E949F098DE80E942C0A80912D
:0C12D0002801909129010E949F090895B7
:1012DC0080E80E942C0A8DE40E94FE0981E80E949D
:1012EC002C0A8FE60E94FE0982E80E942C0A84E6F2
:1012FC000E94FE0983E80E942C0A8AE30E94FE09E0
:10130C0080EC0E942C0A8DE40E94FE0981EC0E9464
:10131C002C0A83E70E94FE0982EC0E942C0A87E6C5
:10132C000E94FE0983EC0E942C0A8AE30E94FE09AB
:02133C00089512
:10133E008A30910560F5FC01EC5CFF4F0C94010CBA
:10134E0080E30E94FE09089581E30E94FE0908953C
:10135E0082E30E94FE09089583E30E94FE09089528
:10136E0084E30E94FE09089585E30E94FE09089514
:10137E0086E30E94FE09089587E30E94FE09089500
:10138E0088E30E94FE09089589E30E94FE090895EC
:10139E000E94040B88F09F5798F0B92F9927B751E8
:1013AE00B0F0E1F0660F771F881F991F1AF0BA95FB
:1013BE00C9F714C0B13091F00E94F40BB1E008955A
:1013CE000C94F40B672F782F8827B85F39F0B93F4C
:1013DE00CCF3869577956795B395D9F73EF49095AE
:0E13EE008095709561957F4F8F4F9F4F0895AA
:1013FC0095B1906295B920E030E021C021153105FE
:10140C0081F495B1907F95B995B1482F42954F7065
:10141C00942B95B995B1906195B995B19F7E95B97D
:10142C000CC095B1907F95B995B1982B95B995B1A4
:10143C00906195B995B19F7E95B92F5F3F4F223042
:0C144C003105E4F285B18F7D85B908956B
:1014580095B19F7D95B920E030E021C02115310577
:1014680081F495B1907F95B995B1482F42954F7009
:10147800942B95B995B1906195B995B19F7E95B921
:101488000CC095B1907F95B995B1982B95B995B148
:10149800906195B995B19F7E95B92F5F3F4F2230E6
:0C14A8003105E4F285B18F7D85B908950F
:1014B4001092270110922601109225011092240106
:1014C400843691056CF08456910920912401309161
:1014D40025012F5F3F4F3093250120932401F0CF46
:1014E4008A30910564F00A972091260130912701F2
:1014F4002F5F3F4F3093270120932601F1CF909324
:081504002901809328010895DC
:10150C000E94040B10F40C941E0CE894E0E0BB2732
:10151C009F57F0F02AED3FE049EC06C0EE0FBB0FF1
:10152C00661F771F881F28F0B23A6207730784077B
:10153C0028F0B25A620B730B840BE3959A9572F7F1
:10154C00803830F49A95BB0F661F771F881FD2F72F
:06155C0090480C94910B75
:10156200DF93CF931F930F93FF92EF92DF927B0152
:101572008C01689406C0DA2EEF010E94AF07FE01CB
:10158200E894A5912591359145915591A6F3EF01E6
:101592000E941908FE019701A801DA9469F7DF9009
:0E15A200EF90FF900F911F91CF91DF91089570
:1015B000990F0008550FAA0BE0E8FEEF1616170664
:1015C000E807F907C0F012161306E407F50798F0CC
:1015D000621B730B840B950B39F40A2661F0232BE5
:1015E000242B252B21F408950A2609F4A140A69561
:0815F0008FEF811D811D08959C
:1015F80057FD9058440F551F59F05F3F71F04795BC
:10160800880F97FB991F61F09F3F79F087950895A0
:10161800121613061406551FF2CF4695F1DF08C0BF
:10162800161617061806991FF1CF869571056105DC
:041638000894089575
:10163C00EF93E0FF07C0A2EA2AED3FE049EC5FEB35
:10164C000E9419080E946E0B0F90039401FC905895
:08165C00ECE7F0E00C94320B06
:101664009F938F937F936F93FF93EF939B01AC01B1
:101674000E941A0CEF91FF910E94B10A2F913F91A1
:081684004F915F910C941A0CC8
:10168C0097FB072E16F4009407D077FD09D00E9423
:10169C005A0B07FC05D03EF4909581959F4F089509
:0816AC00709561957F4F0895D0
:1016B400AA1BBB1B51E107C0AA1FBB1FA617B70774
:1016C40010F0A61BB70B881F991F5A95A9F7809590
:0816D4009095BC01CD010895C1
:1016DC00092E0394000C11F4882352F0BB0F40F434
:1016EC00BF2B11F460FF04C06F5F7F4F8F4F9F4F74
:0216FC0008954F
:1016FE0095B1907F95B995B1892B85B985B18F7DBF
:10170E0085B985B1806185B985B18F7E85B908951A
:10171E009F3F31F0915020F4879577956795B79557
:0C172E00880F911D9695879597F90895F6
:10173A008536910538F0873E23E0920728F087EE38
:0A174A0093E0089584E690E008950E
:1017540080912C0190912D010E949D0B90932F015B
:0A17640080932E010E9438090895B9
:10176E0082E00E947F0B82E00E947F0B88E00E9445
:04177E007F0B089540
:101782008FEE80937A0010927B0080E480937C003D
:021792000895B8
:0E17940080E00E947F0B8CE00E947F0B089586
:0E17A20080912C0190912D010E940009089564
:0E17B0005058BB27AA270E9419080C946E0BF4
:0E17BE000E94CF096894B1110C94F50B0895A8
:0E17CC0000240A94161617061806090608953A
:0E17DA0000240A94121613061406050608953C
:0E17E800E894BB2766277727CB0197F9089571
:0C17F60097F99F6780E870E060E00895BC
:0C180200EE0FFF1F0590F491E02D0994FB
:0A180E000E94D80A08F481E0089552
:0A1818000E94860AE3950C941E0B53
:0A1822000E94D80A08F48FEF089521
:08182C000E9440070C946E0BB2
:081834000E94AF070C946E0B3B
:06183C009FEF80EC08950F
:041842000C94000002
:0818460030303030303030301A
:04184E00D00F49402E
:041852007233DC3AD7
:0218560001008F
:0218580064002A
:01185A00305D
:01185B00305C
:01185C007F0C
:01185D007F0B
:00000001FF
