:100000000C9458000C9499030C9499030C94990344
:100010000C9499030C9499030C9499030C949903F0
:100020000C9499030C9499030C9499030C949903E0
:100030000C9499030C9499030C9499030C949903D0
:100040000C9499030C9499030C9499030C949903C0
:100050000C9499030C9499030C9499030C949903B0
:100060000C9499030C94990305A84CCDB2D44EB9C5
:100070003836A9020C50B9918688083CA6AAAA2A4B
:10008000BE000000803F010001048001040108005F
:1000900007360108010C80010C011000073A01101D
:1000A0000112800112011500073E011501178000A1
:1000B00011241FBECFEFD8E0DEBFCDBFE6E8F0E0F1
:1000C00040E017C0B591A59135912591059107FDA7
:1000D0000CC095918591EF01F92FE82F05900D92B5
:1000E000A217B307D9F7FE0104C01D92A217B307E8
:1000F000E1F7EF3AF40731F70E9482000C94800098
:04010000F894FFCFA1
:100104008FEF8AB984B917B880E480937C008EE3BA
:1001140080937E0010927B00EAE7F0E087E880831A
:1001240080818064808380917A0084FFFCCFEAE739
:10013400F0E08081806480838091780090917900E0
:100144009093110180931001BC01992314F46D5F05
:100154007F4FEB01D595C795D595C795C0931601EB
:100164006091120170911301072E000C880B990BFA
:100174000E941D024B015C01C0900801D09009014E
:10018400E0900A01F0900B01A70196010E949203EE
:100194006093000170930101809302019093030125
:1001A4006C2F6695C62FD0E0609104017091050113
:1001B40080910601909107019B01AC010E946703A5
:1001C4009B01AC01C501B4010E9492039B01AC01E7
:1001D400C701B6010E9492030E9488036B017C014F
:1001E400BE01DD0F880B990B0E941D02A701960129
:1001F4000E9492036B017C016091140170E080E025
:1002040090E00E941D02A70196010E9467030E94CC
:100214005802609315016BB920910C0130910D01C6
:1002240040910E0150910F016091080170910901F4
:1002340080910A0190910B010E9467036093080169
:100244007093090180930A0190930B01609100015E
:1002540070910101809102019091030120E030E04E
:1002640040E85FE30E948D03882344F01092080164
:100274001092090110920A0110920B0180917A00E8
:1002840084FFFCCFEAE7F0E080818F7E80834FCF4C
:100294000FC00E946D0338F00E94740320F0952370
:1002A40011F00C9482030C94960311240C947C0397
:1002B4000E94FD0270F3959FC1F3950F50E0551F06
:1002C400629FF001729FBB27F00DB11D639FAA27A7
:1002D400F00DB11DAA1F649F6627B00DA11D661FF6
:1002E400829F2227B00DA11D621F739FB00DA11D17
:1002F400621F839FA00D611D221F749F3327A00DD1
:10030400611D231F849F600D211D822F762F6A2F6C
:1003140011249F5750409AF0F1F088234AF0EE0FD1
:10032400FF1FBB1F661F771F881F91505040A9F7FE
:100334009E3F510580F00C9482030C947C035F3F34
:10034400E4F3983ED4F3869577956795B795F7953A
:10035400E7959F5FC1F7FE2B880F911D96958795B2
:0403640097F9089568
:1003680011C00E946D0338F00E94740320F039F424
:100378009F3F19F426F40C9496030EF4E095E7FBDE
:100388000C948203E92F0E94FD0258F3BA17620702
:1003980073078407950720F079F4A6F50C947B037E
:1003A8000EF4E0950B2EBA2FA02D0B01B901900188
:1003B8000C01CA01A0011124FF27591B99F0593FCC
:1003C80050F4503E68F11A16F040A22F232F342F14
:1003D8004427585FF3CF469537952795A795F04062
:1003E8005395C9F77EF41F16BA0B620B730B840B77
:1003F800BAF09150A1F0FF0FBB1F661F771F881F2F
:10040800C2F70EC0BA0F621F731F841F48F4879586
:1004180077956795B795F7959E3F08F0B0CF939578
:0E042800880F08F09927EE0F97958795089595
:10043600E89409C097FB3EF4909580957095619578
:100446007F4F8F4F9F4F9923A9F0F92F96E9BB272E
:100456009395F695879577956795B795F111F8CFAA
:10046600FAF4BB0F11F460FF1BC06F5F7F4F8F4F15
:100476009F4F16C0882311F096E911C0772321F00B
:100486009EE8872F762F05C0662371F096E8862FA3
:1004960070E060E02AF09A95660F771F881FDAF7FA
:0A04A600880F9695879597F9089541
:1004B0000E94050388F09F5798F0B92F9927B751EC
:1004C000B0F0E1F0660F771F881F991F1AF0BA95F8
:1004D000C9F714C0B13091F00E947B03B1E00895D8
:1004E0000C947B03672F782F8827B85F39F0B93FCA
:1004F000CCF3869577956795B395D9F73EF49095AB
:0E0500008095709561957F4F8F4F9F4F0895A6
:10050E000E94050310F40C949603E894E0E0BB27D8
:10051E009F57F0F02AED3FE049EC06C0EE0FBB0FFF
:10052E00661F771F881F28F0B23A62077307840789
:10053E0028F0B25A620B730B840BE3959A9572F7FF
:10054E00803830F49A95BB0F661F771F881FD2F73D
:06055E0090480C945A03C2
:10056400DF93CF931F930F93FF92EF92DF927B0160
:100574008C01689406C0DA2EEF010E944A01FE0144
:10058400E894A5912591359145915591A6F3EF01F4
:100594000E94B401FE019701A801DA9469F7DF9083
:0E05A400EF90FF900F911F91CF91DF9108957E
:1005B200990F0008550FAA0BE0E8FEEF1616170672
:1005C200E807F907C0F012161306E407F50798F0DA
:1005D200621B730B840B950B39F40A2661F0232BF3
:1005E200242B252B21F408950A2609F4A140A6956F
:0805F2008FEF811D811D0895AA
:1005FA0057FD9058440F551F59F05F3F71F04795CA
:10060A00880F97FB991F61F09F3F79F087950895AE
:10061A00121613061406551FF2CF4695F1DF08C0CD
:10062A00161617061806991FF1CF869571056105EA
:04063A000894089583
:10063E00EF93E0FF07C0A2EA2AED3FE049EC5FEB43
:10064E000E94B4010E9447030F90039401FC90583E
:08065E00E8E6F0E00C94330320
:100666009F938F937F936F93FF93EF939B01AC01BF
:100676000E949203EF91FF910E94B2022F913F9147
:080686004F915F910C94920367
:10068E00092E0394000C11F4882352F0BB0F40F492
:10069E00BF2B11F460FF04C06F5F7F4F8F4F9F4FD2
:0206AE000895AD
:1006B0009F3F31F0915020F4879577956795B795D6
:0C06C000880F911D9695879597F9089575
:0E06CC005058BB27AA270E94B4010C94470384
:0E06DA0000240A94161617061806090608953D
:0E06E80000240A94121613061406050608953F
:0E06F600E894BB2766277727CB0197F9089574
:0C07040097F99F6780E870E060E00895BE
:0A0710000E948702E3950C941F037A
:0A071A000E94D90208F48FEF089541
:080724000E944A010C944703F6
:06072C009FEF80EC089530
:040732000C94000023
:04073600D00F494057
:04073A007233DC3A00
:02073E00C800F1
:010740007F39
:00000001FF
