:100000000C9458000C947A070C947A070C947A0795
:100010000C947A070C947A070C947A070C947A075C
:100020000C947A070C947A070C947A070C947A074C
:100030000C947A070C947A070C947A070C947A073C
:100040000C947A070C947A070C947A070C947A072C
:100050000C947A070C94B9060C947A070C947A07DE
:100060000C947A070C947A0705A84CCDB2D44EB9FB
:100070003836A9020C50B9918688083CA6AAAA2A4B
:10008000BE000000803F010001048001040108005F
:100090000EF80108010C80010C0112000EFC011287
:1000A00001148001140118000F020118011A8000C8
:1000B00011241FBECFEFD8E0DEBFCDBFE6E8F0E0F1
:1000C00040E017C0B591A59135912591059107FDA7
:1000D0000CC095918591EF01F92FE82F05900D92B5
:1000E000A217B307D9F7FE0104C01D92A217B307E8
:1000F000E1F7EF3AF40731F70E9491020C94800087
:04010000F894FFCFA1
:100104008230910509F48BC01CF4019749F00895DD
:100114008330910509F405C1049709F481C1089558
:1001240085E80E94F30581E40E94C50586E80E94E3
:10013400F3058DE40E94C50587E80E94F30581E07C
:100144000E94C50589E80E94F30586E40E94C5055E
:100154008AE80E94F3058AE30E94C5058DE80E949F
:10016400F30580EB0E94C5058CE80E94F30580EB43
:100174000E94C5058BE80E94F30580EB0E94C5052B
:100184008EE80E94F30588E40E94C5058FE80E946A
:10019400F3058AE70E94C50585EC0E94F30580EB10
:1001A4000E94C50586EC0E94F30580EB0E94C505FC
:1001B40087EC0E94F30580EB0E94C50588EC0E9441
:1001C400F30581E00E94C50589EC0E94F30581E0F6
:1001D4000E94C5058AEC0E94F30581E00E94C505D2
:1001E4008BEC0E94F30581E00E94C5058CEC0E9413
:1001F400F30581E00E94C5058DEC0E94F30581E0C2
:100204000E94C5058EEC0E94F30581E00E94C5059D
:100214008FEC0E94F30581E00E94C505089585E8EE
:100224000E94F30586E40E94C50586E80E94F30552
:100234008DE40E94C50587E80E94F30581E00E94D1
:10024400C50589E80E94F30589E80E94F30586E460
:100254000E94C5058AE80E94F3058AE30E94C50549
:100264008DE80E94F30580EB0E94C5058CE80E948E
:10027400F30580EB0E94C5058BE80E94F30580EB33
:100284000E94C5058EE80E94F30588E40E94C50516
:100294008FE80E94F3058AE70E94C50585EC0E9459
:1002A400F30580EB0E94C50586EC0E94F30580EB04
:1002B4000E94C50587EC0E94F30580EB0E94C505EA
:1002C40088EC0E94F30581E00E94C50589EC0E9438
:1002D400F30581E00E94C5058AEC0E94F30581E0E4
:1002E4000E94C5058BEC0E94F30581E00E94C505C0
:1002F4008CEC0E94F30581E00E94C5058DEC0E9400
:10030400F30581E00E94C5058EEC0E94F30581E0AF
:100314000E94C5058FEC0E94F30581E00E94C5058B
:10032400089585E80E94F30581E40E94C50586E8E6
:100334000E94F30583E50E94C50587E80E94F30542
:100344008BE40E94C50589E80E94F30584E50E94B8
:10035400C5058AE80E94F3058AE30E94C5058DE875
:100364000E94F30580EB0E94C5058CE80E94F3050A
:1003740080EB0E94C5058BE80E94F30580EB0E9488
:10038400C5058EE80E94F30582E60E94C5058FE844
:100394000E94F30583E70E94C50585EC0E94F305DE
:1003A40080EB0E94C50586EC0E94F30580EB0E9459
:1003B400C50587EC0E94F3058EE20E94C50588EC12
:1003C4000E94F30580EB0E94C50589EC0E94F305A9
:1003D40080EB0E94C5058AEC0E94F3058EE20E9420
:1003E400C5058BEC0E94F30580EB0E94C5058CECDF
:1003F4000E94F30580EB0E94C5058DEC0E94F30575
:100404008EE20E94C5058EEC0E94F30580EB0E94EB
:10041400C5058FEC0E94F30580EB0E94C505089585
:1004240085E80E94F30586E40E94C50586E80E94DB
:10043400F30583E50E94C50587E80E94F3058BE474
:100444000E94C50589E80E94F30584E50E94C5055C
:100454008AE80E94F3058AE30E94C5058DE80E949C
:10046400F30580EB0E94C5058CE80E94F30580EB40
:100474000E94C5058BE80E94F30580EB0E94C50528
:100484008EE80E94F30582E60E94C5058FE80E946B
:10049400F30583E70E94C50585EC0E94F30580EB14
:1004A4000E94C50586EC0E94F30580EB0E94C505F9
:1004B40087EC0E94F3058EE20E94C50588EC0E9439
:1004C400F30580EB0E94C50589EC0E94F30580EBDF
:1004D4000E94C5058AEC0E94F3058EE20E94C505C0
:1004E4008BEC0E94F30580EB0E94C5058CEC0E9406
:1004F400F30580EB0E94C5058DEC0E94F3058EE2A6
:100504000E94C5058EEC0E94F30580EB0E94C50590
:0E0514008FEC0E94F30580EB0E94C505089550
:10052200CF93DF9300D01F92CDB7DEB78FEF8AB99A
:100532008FE384B917B818B815B8F8940E94300739
:1005420078940E9426070E9439070E94650500914F
:1005520012011091130116950795169507950983B7
:10056200009319016091140170911501072E000C7E
:10057200880B990B0E94F2044B015C01C0900801A8
:10058200D0900901E0900A01F0900B01A7019601B9
:100592000E9473076093000170930101809302012E
:1005A2009093030180911001909111019B838A83A2
:1005B2000197D1F5202E2694312C6091040170917F
:1005C200050180910601909107019B01AC010E94F7
:1005D20048079B01AC01C501B4010E9473079B014E
:1005E200AC01C701B6010E9473070E9469072B0183
:1005F2003C01B101330C880B990B0E94F204A30158
:1006020092010E9473072B013C016091170170E077
:1006120080E090E00E94F204A30192010E94480748
:100622000E949605609318018A819B81039709F0C5
:1006320041C099819A3028F4809117018093180162
:1006420039C0069510E06091040170910501809116
:100652000601909107019B01AC010E9448079B0192
:10066200AC01C501B4010E9473079B01AC01C70133
:10067200B6010E9473070E9469072B013C01B80171
:10068200110F880B990B0E94F204A30192010E94A0
:1006920073072B013C016091170170E080E090E04C
:1006A2000E94F204A30192010E9448070E9496054B
:1006B200609318018A819B81049709F076C0998121
:1006C2009A30C8F56091040170910501809106018C
:1006D200909107019B01AC010E9448079B01AC016C
:1006E200C501B4010E9473079B01AC01C701B601A9
:1006F2000E9473070E9469076B017C0160911601D9
:1007020070E080E090E00E94F204A70196010E944E
:1007120073076B017C016091170170E080E090E04B
:100722000E94F204A70196010E9448070E949605C2
:10073200609318013AC020E030E040E850E4609154
:1007420004017091050180910601909107010E94B8
:1007520073079B01AC01C501B4010E9473079B01A1
:10076200AC01C701B6010E9473070E9469076B01C1
:100772007C016091160170E080E090E00E94F2043A
:10078200A70196010E9473076B017C01609117011A
:1007920070E080E090E00E94F204A70196010E94BE
:1007A20048070E94960560931801809118018BB941
:1007B20020910C0130910D0140910E0150910F01D9
:1007C200609108017091090180910A0190910B01D9
:1007D2000E944807609308017093090180930A01FF
:1007E20090930B01609100017091010180910201CF
:1007F2009091030120E030E040E85FE30E946E0741
:10080200882344F0109208011092090110920A0103
:1008120010920B01329B9BCEECE7F0E0808181606D
:10082200808302C00E944007339BFCCF349BFECFE3
:0C083200ECE7F0E080818E7F808389CEAF
:10083E000FC00E944E0738F00E94550720F09523F6
:10084E0011F00C9463070C94770711240C945D0738
:10085E000E94970670F3959FC1F3950F50E0551FB8
:10086E00629FF001729FBB27F00DB11D639FAA27F7
:10087E00F00DB11DAA1F649F6627B00DA11D661F46
:10088E00829F2227B00DA11D621F739FB00DA11D67
:10089E00621F839FA00D611D221F749F3327A00D21
:1008AE00611D231F849F600D211D822F762F6A2FBD
:1008BE0011249F5750409AF0F1F088234AF0EE0F22
:1008CE00FF1FBB1F661F771F881F91505040A9F74F
:1008DE009E3F510580F00C9463070C945D075F3FBB
:1008EE00E4F3983ED4F3869577956795B795F7958B
:1008FE00E7959F5FC1F7FE2B880F911D9695879503
:04090E0097F90895B8
:1009120011C00E944E0738F00E94550720F039F4AA
:100922009F3F19F426F40C9477070EF4E095E7FB49
:100932000C946307E92F0E94970658F3BA176207CF
:1009420073078407950720F079F4A6F50C945C07E9
:100952000EF4E0950B2EBA2FA02D0B01B9019001D8
:100962000C01CA01A0011124FF27591B99F0593F1C
:1009720050F4503E68F11A16F040A22F232F342F64
:100982004427585FF3CF469537952795A795F040B2
:100992005395C9F77EF41F16BA0B620B730B840BC7
:1009A200BAF09150A1F0FF0FBB1F661F771F881F7F
:1009B200C2F70EC0BA0F621F731F841F48F48795D7
:1009C20077956795B795F7959E3F08F0B0CF9395C9
:0E09D200880F08F09927EE0F979587950895E6
:1009E000E89409C097FB3EF49095809570956195C9
:1009F0007F4F8F4F9F4F9923A9F0F92F96E9BB277F
:100A00009395F695879577956795B795F111F8CFFA
:100A1000FAF4BB0F11F460FF1BC06F5F7F4F8F4F65
:100A20009F4F16C0882311F096E911C0772321F05B
:100A30009EE8872F762F05C0662371F096E8862FF3
:100A400070E060E02AF09A95660F771F881FDAF74A
:0A0A5000880F9695879597F9089591
:100A5A008F3F910509F048F481E090E090931101ED
:100A6A00809310010E94820008959C013A952F3FBD
:100A7A00310548F482E090E09093110180931001CF
:100A8A000E94820008959C012F5F31402F3F31055B
:100A9A0048F483E090E090931101809310010E9442
:100AAA00820008958E5F92408230914040F484E043
:100ABA0090E090931101809310010E9482000895A2
:100ACA0080E80E94F3058DE40E94C50581E80E9432
:100ADA00F3058FE60E94C50582E80E94F30584E6C5
:100AEA000E94C50583E80E94F3058AE30E94C505B2
:100AFA0080EC0E94F3058DE40E94C50581EC0E94FA
:100B0A00F30583E70E94C50582EC0E94F30587E698
:100B1A000E94C50583EC0E94F3058AE30E94C5057D
:020B2A0008952C
:100B2C000E949F0688F09F5798F0B92F9927B751CC
:100B3C00B0F0E1F0660F771F881F991F1AF0BA9575
:100B4C00C9F714C0B13091F00E945C07B1E0089570
:100B5C000C945C07672F782F8827B85F39F0B93F62
:100B6C00CCF3869577956795B395D9F73EF4909528
:0E0B7C008095709561957F4F8F4F9F4F089524
:100B8A0095B1906295B920E030E021C02115310578
:100B9A0081F495B1907F95B995B1482F42954F70E0
:100BAA00942B95B995B1906195B995B19F7E95B9F8
:100BBA000CC095B1907F95B995B1982B95B995B11F
:100BCA00906195B995B19F7E95B92F5F3F4F2230BD
:0C0BDA003105E4F285B18F7D85B90895E6
:100BE60095B19F7D95B920E030E021C021153105F2
:100BF60081F495B1907F95B995B1482F42954F7084
:100C0600942B95B995B1906195B995B19F7E95B99B
:100C16000CC095B1907F95B995B1982B95B995B1C2
:100C2600906195B995B19F7E95B92F5F3F4F223060
:0C0C36003105E4F285B18F7D85B9089589
:100C42000E949F0610F40C947707E894E0E0BB271B
:100C52009F57F0F02AED3FE049EC06C0EE0FBB0FC4
:100C6200661F771F881F28F0B23A6207730784074E
:100C720028F0B25A620B730B840BE3959A9572F7C4
:100C8200803830F49A95BB0F661F771F881FD2F702
:060C920090480C941A07C3
:100C9800DF93CF931F930F93FF92EF92DF927B0125
:100CA8008C01689406C0DA2EEF010E941F04FE0131
:100CB800E894A5912591359145915591A6F3EF01B9
:100CC8000E948904FE019701A801DA9469F7DF9070
:0E0CD800EF90FF900F911F91CF91DF91089543
:100CE600990F0008550FAA0BE0E8FEEF1616170637
:100CF600E807F907C0F012161306E407F50798F09F
:100D0600621B730B840B950B39F40A2661F0232BB7
:100D1600242B252B21F408950A2609F4A140A69533
:080D26008FEF811D811D08956E
:100D2E0057FD9058440F551F59F05F3F71F047958E
:100D3E00880F97FB991F61F09F3F79F08795089573
:100D4E00121613061406551FF2CF4695F1DF08C092
:100D5E00161617061806991FF1CF869571056105AF
:040D6E000894089548
:100D72001F920F920FB60F9211248F939F9380911F
:100D820078009091790090931301809312019F91C2
:0C0D92008F910F900FBE0F901F901895CE
:100D9E00EF93E0FF07C0A2EA2AED3FE049EC5FEBDC
:100DAE000E9489040E94F7060F90039401FC90584C
:080DBE00E8E6F0E00C94E30606
:100DC6009F938F937F936F93FF93EF939B01AC0158
:100DD6000E947307EF91FF910E944C062F913F915D
:080DE6004F915F910C9473071B
:100DEE00092E0394000C11F4882352F0BB0F40F42B
:100DFE00BF2B11F460FF04C06F5F7F4F8F4F9F4F6B
:020E0E00089545
:100E100095B1907F95B995B1892B85B985B18F7DB5
:100E200085B985B1806185B985B18F7E85B9089511
:100E30009F3F31F0915020F4879577956795B7954E
:0C0E4000880F911D9695879597F90895ED
:100E4C0082E00E94080782E00E94080788E00E9466
:040E5C0008070895E6
:100E60008FEE80937A0010927B0080E480937C0068
:020E70000895E3
:0E0E720080E00E9408078CE00E9408070895A7
:0E0E800080911201909113010E942D0508959A
:0E0E8E005058BB27AA270E9489040C94F7062F
:0E0E9C0000240A941616170618060906089573
:0E0EAA0000240A941216130614060506089575
:0E0EB800E894BB2766277727CB0197F90895AA
:0C0EC60097F99F6780E870E060E00895F5
:0A0ED2000E942106E3950C94CF0660
:0A0EDC000E94730608F48FEF0895DA
:080EE6000E941F040C94F706A2
:060EEE009FEF80EC089567
:040EF4000C9400005A
:040EF800D00F49408E
:040EFC007233DC3A37
:020F00000100EE
:020F02003200BB
:010F04007F6D
:010F05007F6C
:00000001FF
