:100000000C9458000C94DD030C94DD030C94DD0378
:100010000C94DD030C94DD030C94DD030C94DD03E0
:100020000C94DD030C94DD030C94DD030C94DD03D0
:100030000C94DD030C94DD030C94DD030C94DD03C0
:100040000C94DD030C94DD030C94DD030C94DD03B0
:100050000C94DD030C94DD030C94DD030C94DD03A0
:100060000C94DD030C94DD0305A84CCDB2D44EB93D
:100070003836A9020C50B9918688083CA6AAAA2A4B
:10008000BE000000803F01000108800108010C0053
:1000900007BE010C011080011001140007C20114F9
:1000A000011680011601190007C60119011B800005
:1000B00011241FBECFEFD8E0DEBFCDBFE6E8F0E0F1
:1000C00040E017C0B591A59135912591059107FDA7
:1000D0000CC095918591EF01F92FE82F05900D92B5
:1000E000A217B307D9F7FE0104C01D92A217B307E8
:1000F000E1F7EF3AF40731F70E9482000C94800098
:04010000F894FFCFA1
:10010400609116017091170181E090E00E946303F1
:10011400072E000C880B990B0E943902609304018E
:100124007093050180930601909307018FEF8AB9BC
:1001340084B917B880E480937C008EE380937E00BA
:1001440010927B00EAE7F0E087E880838081806496
:10015400808380917A0084FFFCCFEAE7F0E080811D
:100164008064808380917800909179009093150148
:1001740080931401BC01992314F46D5F7F4FEB014C
:10018400D595C795D595C795C0931A016091160169
:1001940070911701072E000C880B990B0E943902ED
:1001A40020910C0130910D0140910E0150910F01ED
:1001B4000E94D6036B017C016093000170930101DE
:1001C40080930201909303016C2F70E080E090E033
:1001D4000E94390226E636E646E65FE30E94D6032D
:1001E4004B015C016091180170E080E090E00E9496
:1001F40039022B013C019B01AC01C501B4010E94F1
:10020400AA034B015C01609108017091090180917E
:100214000A0190910B019B01AC010E94AB039B016D
:10022400AC01C701B6010E94D6030E94CC039B0116
:10023400AC01C501B4010E94D6039B01AC01C3010A
:10024400B2010E94AB030E947402609319016BB95E
:10025400209110013091110140911201509113012C
:1002640060910C0170910D0180910E0190910F012C
:100274000E94AB0360930C0170930D0180930E01F7
:1002840090930F016091000170910101809102012E
:100294009091030120E030E040E85FE30E94D10345
:1002A400882344F010920C0110920D0110920E015B
:1002B40010920F0180917A0084FFFCCFEAE7F0E00E
:0802C40080818F7E808349CF09
:1002CC000FC00E94B10338F00E94B80320F09523B0
:1002DC0011F00C94C6030C94DA0311240C94C00393
:1002EC000E94190370F3959FC1F3950F50E0551FB1
:1002FC00629FF001729FBB27F00DB11D639FAA276F
:10030C00F00DB11DAA1F649F6627B00DA11D661FBD
:10031C00829F2227B00DA11D621F739FB00DA11DDE
:10032C00621F839FA00D611D221F749F3327A00D98
:10033C00611D231F849F600D211D822F762F6A2F34
:10034C0011249F5750409AF0F1F088234AF0EE0F99
:10035C00FF1FBB1F661F771F881F91505040A9F7C6
:10036C009E3F510580F00C94C6030C94C0035F3F74
:10037C00E4F3983ED4F3869577956795B795F79502
:10038C00E7959F5FC1F7FE2B880F911D969587957A
:04039C0097F9089530
:1003A00011C00E94B10338F00E94B80320F039F464
:1003B0009F3F19F426F40C94DA030EF4E095E7FB62
:1003C0000C94C603E92F0E94190358F3BA17620769
:1003D00073078407950720F079F4A6F50C94BF0302
:1003E0000EF4E0950B2EBA2FA02D0B01B901900150
:1003F0000C01CA01A0011124FF27591B99F0593F94
:1004000050F4503E68F11A16F040A22F232F342FDB
:100410004427585FF3CF469537952795A795F04029
:100420005395C9F77EF41F16BA0B620B730B840B3E
:10043000BAF09150A1F0FF0FBB1F661F771F881FF6
:10044000C2F70EC0BA0F621F731F841F48F487954E
:1004500077956795B795F7959E3F08F0B0CF939540
:0E046000880F08F09927EE0F9795879508955D
:10046E00E89409C097FB3EF4909580957095619540
:10047E007F4F8F4F9F4F9923A9F0F92F96E9BB27F6
:10048E009395F695879577956795B795F111F8CF72
:10049E00FAF4BB0F11F460FF1BC06F5F7F4F8F4FDD
:1004AE009F4F16C0882311F096E911C0772321F0D3
:1004BE009EE8872F762F05C0662371F096E8862F6B
:1004CE0070E060E02AF09A95660F771F881FDAF7C2
:0A04DE00880F9695879597F9089509
:1004E8000E94210388F09F5798F0B92F9927B75198
:1004F800B0F0E1F0660F771F881F991F1AF0BA95C0
:10050800C9F714C0B13091F00E94BF03B1E008955B
:100518000C94BF03672F782F8827B85F39F0B93F4D
:10052800CCF3869577956795B395D9F73EF4909572
:0E0538008095709561957F4F8F4F9F4F08956E
:100546000E94210310F40C94DA03E894E0E0BB2740
:100556009F57F0F02AED3FE049EC06C0EE0FBB0FC7
:10056600661F771F881F28F0B23A62077307840751
:1005760028F0B25A620B730B840BE3959A9572F7C7
:10058600803830F49A95BB0F661F771F881FD2F705
:0605960090480C949E0346
:10059C00DF93CF931F930F93FF92EF92DF927B0128
:1005AC008C01689406C0DA2EEF010E946601FE01F0
:1005BC00E894A5912591359145915591A6F3EF01BC
:1005CC000E94D001FE019701A801DA9469F7DF902F
:0E05DC00EF90FF900F911F91CF91DF91089546
:1005EA00990F0008550FAA0BE0E8FEEF161617063A
:1005FA00E807F907C0F012161306E407F50798F0A2
:10060A00621B730B840B950B39F40A2661F0232BBA
:10061A00242B252B21F408950A2609F4A140A69536
:08062A008FEF811D811D089571
:1006320057FD9058440F551F59F05F3F71F0479591
:10064200880F97FB991F61F09F3F79F08795089576
:10065200121613061406551FF2CF4695F1DF08C095
:10066200161617061806991FF1CF869571056105B2
:04067200089408954B
:10067600EF93E0FF07C0A2EA2AED3FE049EC5FEB0B
:100686000E94D0010E948B030F90039401FC9058A6
:08069600E8E6F0E00C944F03CC
:10069E009F938F937F936F93FF93EF939B01AC0187
:1006AE000E94D603EF91FF910E94CE022F913F91AF
:0806BE004F915F910C94D603EB
:1006C60097FB072E16F4009407D077FD09D00E94F9
:1006D600770307FC05D03EF4909581959F4F0895CA
:0806E600709561957F4F0895A6
:1006EE00AA1BBB1B51E107C0AA1FBB1FA617B7074A
:1006FE0010F0A61BB70B881F991F5A95A9F7809566
:08070E009095BC01CD01089596
:10071600092E0394000C11F4882352F0BB0F40F409
:10072600BF2B11F460FF04C06F5F7F4F8F4F9F4F49
:02073600089524
:100738009F3F31F0915020F4879577956795B7954D
:0C074800880F911D9695879597F90895EC
:0E0754005058BB27AA270E94D0010C948B039B
:0E07620000240A9416161706180609060895B4
:0E07700000240A9412161306140605060895B6
:0E077E00E894BB2766277727CB0197F90895EB
:0C078C0097F99F6780E870E060E0089536
:0A0798000E94A302E3950C943B03BA
:0A07A2000E94F50208F48FEF08959D
:0807AC000E9466010C948B030E
:0607B4009FEF80EC0895A8
:0407BA000C9400009B
:0407BE00D00F4940CF
:0407C2000F7E62390B
:0207C600C80069
:0107C8007FB1
:00000001FF
