:100000000C9458000C94B1030C94B1030C94B103FC
:100010000C94B1030C94B1030C94B1030C94B10390
:100020000C94B1030C94B1030C94B1030C94B10380
:100030000C94B1030C94B1030C94B1030C94B10370
:100040000C94B1030C94B1030C94B1030C94B10360
:100050000C94B1030C94B1030C94B1030C94B10350
:100060000C94B1030C94B10305A84CCDB2D44EB995
:100070003836A9020C50B9918688083CA6AAAA2A4B
:10008000BE000000803F010001048001040108005F
:1000900007660108010C80010C011000076A0110BD
:1000A0000112800112011400076E01140117800073
:1000B00011241FBECFEFD8E0DEBFCDBFE6E8F0E0F1
:1000C00040E017C0B591A59135912591059107FDA7
:1000D0000CC095918591EF01F92FE82F05900D92B5
:1000E000A217B307D9F7FE0104C01D92A217B307E8
:1000F000E1F7EF3AF40731F70E9482000C94800098
:04010000F894FFCFA1
:10010400609112017091130181E090E00E94370325
:10011400072E000C880B990B0E940D0260930001BE
:100124007093010180930201909303018FEF8AB9C8
:1001340084B917B880E480937C008EE380937E00BA
:1001440010927B0087EE80937A0080917A0084FF7E
:10015400FCCF2091780030917900309311012093E5
:100164001001C90199230CF40396959587959595EB
:1001740087958093160160911401062F10E090E09A
:10018400EC01C01BD10B60910401709105018091B9
:100194000601909107019B01AC010E947F036B0152
:1001A4007C016091120170911301072E000C880BE1
:1001B400990B0E940D02A70196010E94AA032091A7
:1001C40008013091090140910A0150910B010E94EC
:1001D400AA030E94A0036B017C01BE01DD0F880B02
:1001E400990B0E940D02A70196010E94AA036B01BC
:1001F4007C01B801110F880B990B0E940D02A70115
:1002040096010E947F030E944802609315016BB916
:1002140020910C0130910D0140910E0150910F017C
:10022400609108017091090180910A0190910B017C
:100234000E947F03609308017093090180930A016F
:1002440090930B0120910001309101014091020132
:10025400509103010E94A50388230CF476CF1092D9
:1002640008011092090110920A0110920B016DCF3E
:100274000FC00E94850338F00E948C0320F0952360
:1002840011F00C949A030C94AE0311240C9494036F
:100294000E94ED0270F3959FC1F3950F50E0551F36
:1002A400629FF001729FBB27F00DB11D639FAA27C7
:1002B400F00DB11DAA1F649F6627B00DA11D661F16
:1002C400829F2227B00DA11D621F739FB00DA11D37
:1002D400621F839FA00D611D221F749F3327A00DF1
:1002E400611D231F849F600D211D822F762F6A2F8D
:1002F40011249F5750409AF0F1F088234AF0EE0FF2
:10030400FF1FBB1F661F771F881F91505040A9F71E
:100314009E3F510580F00C949A030C9494035F3F24
:10032400E4F3983ED4F3869577956795B795F7955A
:10033400E7959F5FC1F7FE2B880F911D96958795D2
:0403440097F9089588
:1003480011C00E94850338F00E948C0320F039F414
:100358009F3F19F426F40C94AE030EF4E095E7FBE6
:100368000C949A03E92F0E94ED0258F3BA1762071A
:1003780073078407950720F079F4A6F50C94930386
:100388000EF4E0950B2EBA2FA02D0B01B9019001A8
:100398000C01CA01A0011124FF27591B99F0593FEC
:1003A80050F4503E68F11A16F040A22F232F342F34
:1003B8004427585FF3CF469537952795A795F04082
:1003C8005395C9F77EF41F16BA0B620B730B840B97
:1003D800BAF09150A1F0FF0FBB1F661F771F881F4F
:1003E800C2F70EC0BA0F621F731F841F48F48795A7
:1003F80077956795B795F7959E3F08F0B0CF939599
:0E040800880F08F09927EE0F979587950895B5
:10041600E89409C097FB3EF4909580957095619598
:100426007F4F8F4F9F4F9923A9F0F92F96E9BB274E
:100436009395F695879577956795B795F111F8CFCA
:10044600FAF4BB0F11F460FF1BC06F5F7F4F8F4F35
:100456009F4F16C0882311F096E911C0772321F02B
:100466009EE8872F762F05C0662371F096E8862FC3
:1004760070E060E02AF09A95660F771F881FDAF71A
:0A048600880F9695879597F9089561
:100490000E94F50288F09F5798F0B92F9927B7511D
:1004A000B0F0E1F0660F771F881F991F1AF0BA9518
:1004B000C9F714C0B13091F00E949303B1E00895E0
:1004C0000C949303672F782F8827B85F39F0B93FD2
:1004D000CCF3869577956795B395D9F73EF49095CB
:0E04E0008095709561957F4F8F4F9F4F0895C7
:1004EE000E94F50210F40C94AE03E894E0E0BB27F2
:1004FE009F57F0F02AED3FE049EC06C0EE0FBB0F20
:10050E00661F771F881F28F0B23A620773078407A9
:10051E0028F0B25A620B730B840BE3959A9572F71F
:10052E00803830F49A95BB0F661F771F881FD2F75D
:06053E0090480C947203CA
:10054400DF93CF931F930F93FF92EF92DF927B0180
:100554008C01689406C0DA2EEF010E943A01FE0174
:10056400E894A5912591359145915591A6F3EF0114
:100574000E94A401FE019701A801DA9469F7DF90B3
:0E058400EF90FF900F911F91CF91DF9108959E
:10059200990F0008550FAA0BE0E8FEEF1616170692
:1005A200E807F907C0F012161306E407F50798F0FA
:1005B200621B730B840B950B39F40A2661F0232B13
:1005C200242B252B21F408950A2609F4A140A6958F
:0805D2008FEF811D811D0895CA
:1005DA0057FD9058440F551F59F05F3F71F04795EA
:1005EA00880F97FB991F61F09F3F79F087950895CF
:1005FA00121613061406551FF2CF4695F1DF08C0EE
:10060A00161617061806991FF1CF8695710561050A
:04061A0008940895A3
:10061E00EF93E0FF07C0A2EA2AED3FE049EC5FEB63
:10062E000E94A4010E945F030F90039401FC905856
:08063E00E8E6F0E00C94230350
:100646009F938F937F936F93FF93EF939B01AC01DF
:100656000E94AA03EF91FF910E94A2022F913F915F
:080666004F915F910C94AA036F
:10066E0097FB072E16F4009407D077FD09D00E9451
:10067E004B0307FC05D03EF4909581959F4F08954E
:08068E00709561957F4F0895FE
:10069600AA1BBB1B51E107C0AA1FBB1FA617B707A2
:1006A60010F0A61BB70B881F991F5A95A9F78095BE
:0806B6009095BC01CD010895EF
:1006BE00092E0394000C11F4882352F0BB0F40F462
:1006CE00BF2B11F460FF04C06F5F7F4F8F4F9F4FA2
:0206DE0008957D
:1006E0009F3F31F0915020F4879577956795B795A6
:0C06F000880F911D9695879597F9089545
:0E06FC005058BB27AA270E94A4010C945F034C
:0E070A0000240A94161617061806090608950C
:0E07180000240A94121613061406050608950E
:0E072600E894BB2766277727CB0197F9089543
:0C07340097F99F6780E870E060E008958E
:0A0740000E947702E3950C940F036A
:0A074A000E94C90208F48FEF089521
:080754000E943A010C945F03BE
:06075C009FEF80EC089500
:040762000C940000F3
:04076600D00F494027
:04076A000F7E623963
:02076E00640025
:00000001FF
