:100000000C9471000C94770B0C94770B0C94770B79
:100010000C94770B0C94770B0C94770B0C94770B58
:100020000C94770B0C94770B0C94770B0C94770B48
:100030000C94770B0C94770B0C94770B0C94770B38
:100040000C94770B0C94770B0C94770B0C94770B28
:100050000C94770B0C94B8040C94770B0C94770BDE
:100060000C94770B0C94770B250929092D0931097C
:10007000350939093D0941094509490905A84CCD0A
:10008000B2D44EB93836A9020C50B9918688083CD2
:10009000A6AAAA2ABE000000803F0100010800169F
:1000A000F20108011080011001140016FA01140178
:1000B00018800118011C0016FE011C01288001286F
:1000C000012A001702012A012C80012C013000179F
:1000D000040130013180013101330017080133017F
:1000E000358011241FBECFEFD8E0DEBFCDBFEAE9D7
:1000F000F0E040E017C0B591A591359125910591AB
:1001000007FD0CC095918591EF01F92FE82F05901F
:100110000D92A217B307D9F7FE0104C01D92A217D2
:10012000B307E1F7E23EF40731F70E94AA020C940C
:060130009900F894FFCFD6
:100136008230910509F48BC01CF4019749F00895AB
:100146008330910509F405C1049709F481C1089526
:1001560085E80E94AA0981E40E947C0986E80E943B
:10016600AA098DE40E947C0987E80E94AA0981E019
:100176000E947C0989E80E94AA0986E40E947C09FB
:100186008AE80E94AA098AE30E947C098DE80E94F7
:10019600AA0980EB0E947C098CE80E94AA0980EBE0
:1001A6000E947C098BE80E94AA0980EB0E947C09C8
:1001B6008EE80E94AA0988E40E947C098FE80E94C2
:1001C600AA098AE70E947C0985EC0E94AA0980EBAD
:1001D6000E947C0986EC0E94AA0980EB0E947C0999
:1001E60087EC0E94AA0980EB0E947C0988EC0E9499
:1001F600AA0981E00E947C0989EC0E94AA0981E093
:100206000E947C098AEC0E94AA0981E00E947C096E
:100216008BEC0E94AA0981E00E947C098CEC0E946A
:10022600AA0981E00E947C098DEC0E94AA0981E05E
:100236000E947C098EEC0E94AA0981E00E947C093A
:100246008FEC0E94AA0981E00E947C09089585E846
:100256000E94AA0986E40E947C0986E80E94AA09EF
:100266008DE40E947C0987E80E94AA0981E00E9429
:100276007C0989E80E94AA0989E80E94AA0986E4FD
:100286000E947C098AE80E94AA098AE30E947C09E6
:100296008DE80E94AA0980EB0E947C098CE80E94E6
:1002A600AA0980EB0E947C098BE80E94AA0980EBD0
:1002B6000E947C098EE80E94AA0988E40E947C09B3
:1002C6008FE80E94AA098AE70E947C0985EC0E94B1
:1002D600AA0980EB0E947C0986EC0E94AA0980EBA1
:1002E6000E947C0987EC0E94AA0980EB0E947C0987
:1002F60088EC0E94AA0981E00E947C0989EC0E9490
:10030600AA0981E00E947C098AEC0E94AA0981E080
:100316000E947C098BEC0E94AA0981E00E947C095C
:100326008CEC0E94AA0981E00E947C098DEC0E9457
:10033600AA0981E00E947C098EEC0E94AA0981E04C
:100346000E947C098FEC0E94AA0981E00E947C0928
:10035600089585E80E94AA0981E40E947C0986E83E
:100366000E94AA0983E50E947C0987E80E94AA09DF
:100376008BE40E947C0989E80E94AA0984E50E9410
:100386007C098AE80E94AA098AE30E947C098DE812
:100396000E94AA0980EB0E947C098CE80E94AA09A7
:1003A60080EB0E947C098BE80E94AA0980EB0E94E0
:1003B6007C098EE80E94AA0982E60E947C098FE8E1
:1003C6000E94AA0983E70E947C0985EC0E94AA097B
:1003D60080EB0E947C0986EC0E94AA0980EB0E94B1
:1003E6007C0987EC0E94AA098EE20E947C0988ECAF
:1003F6000E94AA0980EB0E947C0989EC0E94AA0946
:1004060080EB0E947C098AEC0E94AA098EE20E9477
:100416007C098BEC0E94AA0980EB0E947C098CEC7B
:100426000E94AA0980EB0E947C098DEC0E94AA0911
:100436008EE20E947C098EEC0E94AA0980EB0E9443
:100446007C098FEC0E94AA0980EB0E947C09089522
:1004560085E80E94AA0986E40E947C0986E80E9433
:10046600AA0983E50E947C0987E80E94AA098BE411
:100476000E947C0989E80E94AA0984E50E947C09F9
:100486008AE80E94AA098AE30E947C098DE80E94F4
:10049600AA0980EB0E947C098CE80E94AA0980EBDD
:1004A6000E947C098BE80E94AA0980EB0E947C09C5
:1004B6008EE80E94AA0982E60E947C098FE80E94C3
:1004C600AA0983E70E947C0985EC0E94AA0980EBB1
:1004D6000E947C0986EC0E94AA0980EB0E947C0996
:1004E60087EC0E94AA098EE20E947C0988EC0E9491
:1004F600AA0980EB0E947C0989EC0E94AA0980EB7C
:100506000E947C098AEC0E94AA098EE20E947C095C
:100516008BEC0E94AA0980EB0E947C098CEC0E945D
:10052600AA0980EB0E947C098DEC0E94AA098EE242
:100536000E947C098EEC0E94AA0980EB0E947C092D
:0E0546008FEC0E94AA0980EB0E947C090895A8
:10055400CF93DF93CDB7DEB727970FB6F894DEBFFE
:100564000FBECDBF8FEF8AB98FE384B917B818B81F
:1005740015B8F8940E94170B78940E940D0B0E94F2
:10058400200B0E94EC0881E090E00E949B002090E8
:100594002A0130902B01369427943694279429828B
:1005A4002092340100912C0110912D01B801012EEB
:1005B400000C880B990B0E9443084B015C01C0900E
:1005C4001401D0901501E0901601F0901701A701D5
:1005D40096010E94700B60930C0170930D0180933F
:1005E4000E0190930F0180912801909129019F831E
:1005F4008E83019709F03FC0622D6695662E712C9B
:100604006091100170911101809112019091130178
:100614009B01AC010E942F0B9B01AC01C501B401ED
:100624000E94700B9B01AC01C701B6010E94700BC4
:100634000E94620B6A837B838C839D83B301770C56
:10064400880B990B0E9443082A813B814C815D8170
:100654000E94700B2B013C016091320170E080E03C
:1006640090E00E944308A30192010E942F0B0E9474
:100674004D09609333018E819F81029709F045C033
:1006840060911001709111018091120190911301F8
:100694009B01AC010E942F0B9B01AC01C701B60169
:1006A4000E94700B2B013C01822D8695B801680FC6
:1006B400711D072E000C880B990B0E9443089B01A7
:1006C400AC01C301B2010E94700B0E94620B2B01AA
:1006D4003C016091310170E080E090E00E944308A9
:1006E400A30192010E94700B2B013C016091320125
:1006F40070E080E090E00E944308A30192010E9410
:100704002F0B0E944D09609333018E819F810397C3
:1007140009F041C099819A3028F480913201809384
:10072400330139C02694312C60911001709111016C
:1007340080911201909113019B01AC010E942F0B37
:100744009B01AC01C501B4010E94700B9B01AC017B
:10075400C701B6010E94700B0E94620B2B013C0181
:10076400B101330C880B990B0E944308A301920139
:100774000E94700B2B013C016091320170E080E01B
:1007840090E00E944308A30192010E942F0B0E9453
:100794004D09609333018E819F81049709F076C0DF
:1007A40099819A30C8F5609110017091110180917E
:1007B4001201909113019B01AC010E942F0B9B012C
:1007C400AC01C501B4010E94700B9B01AC01C701CF
:1007D400B6010E94700B0E94620B6B017C01609158
:1007E400310170E080E090E00E944308A701960187
:1007F4000E94700B6B017C016091320170E080E01B
:1008040090E00E944308A70196010E942F0B0E94CA
:100814004D09609333013AC020E030E040E850E4F1
:100824006091100170911101809112019091130156
:100834000E94700B9B01AC01C501B4010E94700BB6
:100844009B01AC01C701B6010E94700B0E94620BB0
:100854006B017C016091310170E080E090E00E94C6
:100864004308A70196010E94700B6B017C01609103
:10087400320170E080E090E00E944308A7019601F5
:100884000E942F0B0E944D09609333018091330124
:100894008BB9209118013091190140911A0150919E
:1008A4001B016091140170911501809116019091C2
:1008B40017010E942F0B609314017093150180930C
:1008C40016019093170160910C0170910D018091B4
:1008D4000E0190910F0120E030E040E85FE30E94B8
:1008E400670B882344F010921401109215011092A2
:1008F4001601109217018091280190912901039704
:1009040044F41092300180911C0190911D010E94C9
:10091400CE058091280190912901039744F06091BC
:100924001C0170911D0180E091E00E944C06329BF5
:100934002ECEECE7F0E080818160808302C00E94CB
:10094400270B339BFCCF02C00E94000B349BFCCFCF
:1009540080912801909129010E949B000E94FE072A
:0C096400ECE7F0E080818E7F808311CEF4
:100970001F920F920FB60F921124CF92DF92EF9237
:10098000FF920F931F932F933F934F935F936F9318
:100990007F938F939F93AF93BF93CF93DF93EF9307
:1009A000FF93009178001091790010932B01009330
:1009B0002A01C0912801D0912901C330D1050CF042
:1009C0005BC0011582E0180708F5209118013091ED
:1009D000190140911A0150911B0160910801709119
:1009E000090180910A0190910B010E942F0B6093E5
:1009F00008017093090180930A0190930B0181E033
:100A000090E090931F0180931E0136C080911E01DB
:100A100090911F01019781F5C0900801D0900901C4
:100A2000E0900A01F0900B0120E030E0A901C7013D
:100A3000B6010E945D0B882379F0A701960160E062
:100A400070E080E090E40E946C0B0E94350B709384
:100A50001D0160931C0104C010921D0110921C0125
:100A600010921F0110921E011092080110920901AC
:100A700010920A0110920B0123970CF476C020917A
:100A800018013091190140911A0150911B01609198
:100A900008017091090180910A0190910B010E9457
:100AA0002F0B6B017C016093080170930901809307
:100AB0000A0190930B01359911C00B30110520F4F8
:100AC00080E380932F0103C081E380932F0181E0B5
:100AD00090E090931F0180931E0147C080912F01E9
:100AE00080932E0120911E0130911F01213031058C
:100AF000E1F52091200130912101F901E050FF4FF3
:100B00008083C90101969093210180932001109266
:100B10001F0110921E01089721F4109221011092DA
:100B2000200120E030E0A901C701B6010E945D0B61
:100B3000882379F0A701960160E070E080E89FE3E8
:100B40000E946C0B0E94350B70931D0160931C0179
:100B500004C010921D0110921C0110920801109205
:100B6000090110920A0110920B01FF91EF91DF91A0
:100B7000CF91BF91AF919F918F917F916F915F9135
:100B80004F913F912F911F910F91FF90EF90DF9028
:0C0B9000CF900F900FBE0F901F90189593
:100B9C00CF93DF93EC018091300190E00E94D80953
:100BAC0085EC0E94AA0980912401909125010E9454
:100BBC001D0986EC0E94AA098EE290E00E941D0994
:100BCC0087EC0E94AA0980912601909127010E942E
:100BDC001D0988EC0E94AA0986E70E947C0989EC11
:100BEC000E94AA0981E00E947C098AEC0E94AA0951
:100BFC0081E00E947C098BEC0E94AA0981E00E9492
:100C0C007C098CEC0E94AA0981E00E947C098DEC85
:100C1C000E94AA0981E00E947C098EEC0E94AA091C
:100C2C0081E00E947C098FEC0E94AA0981E00E945D
:100C3C007C0989E80E94AA0986E40E947C098AE85A
:100C4C000E94AA098AE30E947C09CE010E94D8095D
:100C5C008BE80E94AA0980912201909123010E94A5
:100C6C001D098CE80E94AA0980912401909125010C
:100C7C000E941D098DE80E94AA098091260190917D
:0C0C8C0027010E941D09DF91CF910895FF
:100C9800CF93DF93EC01CB010E94D80985EC0E9429
:100CA800AA0988810E947C0986EC0E94AA09898188
:100CB8000E947C0987EC0E94AA098EE20E947C09A6
:100CC80088EC0E94AA098A810E947C0989EC0E940A
:100CD800AA098B810E947C098AEC0E94AA098EE2EB
:100CE8000E947C098BEC0E94AA098C810E947C09D5
:100CF8008CEC0E94AA098D810E947C098DEC0E94CF
:100D0800AA098EE20E947C098EEC0E94AA098E81B3
:100D18000E947C098FEC0E94AA098F810E947C099D
:100D280089E80E94AA0984E50E947C098AE80E9451
:100D3800AA098AE30E947C098BE80E94AA0980918B
:100D48002201909123010E941D098CE80E94AA09A2
:100D580080912401909125010E941D098DE80E942F
:100D6800AA0980912601909127010E941D09DF910F
:040D7800CF9108957A
:100D7C0010C00E94430B58F00E943C0B40F029F429
:100D8C005F3F29F00C94510B51110C944B0B0C94AC
:100D9C00740B0E947A0A68F39923B1F3552391F3EB
:100DAC00951B550BBB27AA2762177307840738F0CE
:100DBC009F5F5F4F220F331F441FAA1FA9F335D02B
:100DCC000E2E3AF0E0E832D091505040E695001CDF
:100DDC00CAF72BD0FE2F29D0660F771F881FBB1F99
:100DEC00261737074807AB07B0E809F0BB0B802D77
:100DFC00BF01FF2793585F4F3AF09E3F510578F0A3
:100E0C000C94510B0C944B0B5F3FE4F3983ED4F3D2
:100E1C00869577956795B795F7959F5FC9F7880F76
:100E2C00911D9695879597F90895E1E0660F771FC8
:100E3C00881FBB1F621773078407BA0720F0621B59
:0E0E4C00730B840BBA0BEE1F88F7E095089528
:100E5A000FC00E943C0B38F00E94430B20F09523F0
:100E6A0011F00C94510B0C94740B11240C944B0B31
:100E7A000E947A0A70F3959FC1F3950F50E0551FAF
:100E8A00629FF001729FBB27F00DB11D639FAA27D5
:100E9A00F00DB11DAA1F649F6627B00DA11D661F24
:100EAA00829F2227B00DA11D621F739FB00DA11D45
:100EBA00621F839FA00D611D221F749F3327A00DFF
:100ECA00611D231F849F600D211D822F762F6A2F9B
:100EDA0011249F5750409AF0F1F088234AF0EE0F00
:100EEA00FF1FBB1F661F771F881F91505040A9F72D
:100EFA009E3F510580F00C94510B0C944B0B5F3FB5
:100F0A00E4F3983ED4F3869577956795B795F79568
:100F1A00E7959F5FC1F7FE2B880F911D96958795E0
:040F2A0097F9089596
:100F2E0011C00E943C0B38F00E94430B20F039F4A4
:100F3E009F3F19F426F40C94740B0EF4E095E7FB26
:100F4E000C94510BE92F0E947A0A58F3BA176207D4
:100F5E0073078407950720F079F4A6F50C944A0BD5
:100F6E000EF4E0950B2EBA2FA02D0B01B9019001B6
:100F7E000C01CA01A0011124FF27591B99F0593FFA
:100F8E0050F4503E68F11A16F040A22F232F342F42
:100F9E004427585FF3CF469537952795A795F04090
:100FAE005395C9F77EF41F16BA0B620B730B840BA5
:100FBE00BAF09150A1F0FF0FBB1F661F771F881F5D
:100FCE00C2F70EC0BA0F621F731F841F48F48795B5
:100FDE0077956795B795F7959E3F08F0B0CF9395A7
:0E0FEE00880F08F09927EE0F979587950895C4
:100FFC0085EC0E94AA0983E40E947C0986EC0E947D
:10100C00AA0981E40E947C0987EC0E94AA098CE45D
:10101C000E947C0988EC0E94AA0983E40E947C0946
:10102C0089EC0E94AA0985E50E947C098AEC0E9441
:10103C00AA098CE40E947C098BEC0E94AA0981E429
:10104C000E947C098CEC0E94AA098EE40E947C0907
:10105C008DEC0E94AA0984E40E947C098EEC0E940B
:10106C00AA098FE40E947C098FEC0E94AA0981E0F6
:06107C000E947C090895AA
:10108200E89409C097FB3EF4909580957095619520
:101092007F4F8F4F9F4F9923A9F0F92F96E9BB27D6
:1010A2009395F695879577956795B795F111F8CF52
:1010B200FAF4BB0F11F460FF1BC06F5F7F4F8F4FBD
:1010C2009F4F16C0882311F096E911C0772321F0B3
:1010D2009EE8872F762F05C0662371F096E8862F4B
:1010E20070E060E02AF09A95660F771F881FDAF7A2
:0A10F200880F9695879597F90895E9
:1010FC008F3F910509F048F481E090E0909329012D
:10110C00809328010E949B0008959C013A952F3FE3
:10111C00310548F482E090E09093290180932801F6
:10112C000E949B0008959C012F5F31402F3F310599
:10113C0048F483E090E090932901809328010E9469
:10114C009B0008958E5F92408230914040F484E081
:10115C0090E090932901809328010E949B000895B0
:10116C000E94D80989E80E94AA0980E50E947C099E
:10117C008AE80E94AA098AE30E947C098EE80E94F0
:10118C00AA0988E40E947C098FE80E94AA098AE7D0
:10119C000E947C098BE80E94AA09809122019091FF
:1011AC0023010E941D098CE80E94AA098091240148
:1011BC00909125010E941D098DE80E94AA09809139
:0C11CC002601909127010E941D09089542
:1011D80080E80E94AA098DE40E947C0981E80E94A7
:1011E800AA098FE60E947C0982E80E94AA0984E67F
:1011F8000E947C0983E80E94AA098AE30E947C096C
:1012080080EC0E94AA098DE40E947C0981EC0E946E
:10121800AA0983E70E947C0982EC0E94AA0987E652
:101228000E947C0983EC0E94AA098AE30E947C0937
:02123800089517
:10123A008A30910560F5FC01EC5CFF4F0C94570B6A
:10124A0080E30E947C09089581E30E947C09089545
:10125A0082E30E947C09089583E30E947C09089531
:10126A0084E30E947C09089585E30E947C0908951D
:10127A0086E30E947C09089587E30E947C09089509
:10128A0088E30E947C09089589E30E947C090895F5
:10129A000E94820A88F09F5798F0B92F9927B75170
:1012AA00B0F0E1F0660F771F881F991F1AF0BA9500
:1012BA00C9F714C0B13091F00E944A0BB1E0089509
:1012CA000C944A0B672F782F8827B85F39F0B93FFB
:1012DA00CCF3869577956795B395D9F73EF49095B3
:0E12EA008095709561957F4F8F4F9F4F0895AF
:1012F80095B1906295B920E030E021C02115310503
:1013080081F495B1907F95B995B1482F42954F706A
:10131800942B95B995B1906195B995B19F7E95B982
:101328000CC095B1907F95B995B1982B95B995B1A9
:10133800906195B995B19F7E95B92F5F3F4F223047
:0C1348003105E4F285B18F7D85B9089570
:1013540095B19F7D95B920E030E021C0211531057C
:1013640081F495B1907F95B995B1482F42954F700E
:10137400942B95B995B1906195B995B19F7E95B926
:101384000CC095B1907F95B995B1982B95B995B14D
:10139400906195B995B19F7E95B92F5F3F4F2230EB
:0C13A4003105E4F285B18F7D85B9089514
:1013B0001092250110922401109223011092220113
:1013C000843691056CF08456910920912201309168
:1013D00023012F5F3F4F3093230120932201F0CF51
:1013E0008A30910564F00A972091240130912501FB
:1013F0002F5F3F4F3093250120932401F1CF90932D
:081400002701809326010895E5
:101408000E94820A10F40C94740BE894E0E0BB2765
:101418009F57F0F02AED3FE049EC06C0EE0FBB0FF6
:10142800661F771F881F28F0B23A62077307840780
:1014380028F0B25A620B730B840BE3959A9572F7F6
:10144800803830F49A95BB0F661F771F881FD2F734
:0614580090480C94E70A25
:10145E00DF93CF931F930F93FF92EF92DF927B0157
:10146E008C01689406C0DA2EEF010E942D07FE0152
:10147E00E894A5912591359145915591A6F3EF01EB
:10148E000E949707FE019701A801DA9469F7DF9091
:0E149E00EF90FF900F911F91CF91DF91089575
:1014AC00990F0008550FAA0BE0E8FEEF1616170669
:1014BC00E807F907C0F012161306E407F50798F0D1
:1014CC00621B730B840B950B39F40A2661F0232BEA
:1014DC00242B252B21F408950A2609F4A140A69566
:0814EC008FEF811D811D0895A1
:1014F40057FD9058440F551F59F05F3F71F04795C1
:10150400880F97FB991F61F09F3F79F087950895A5
:10151400121613061406551FF2CF4695F1DF08C0C4
:10152400161617061806991FF1CF869571056105E1
:04153400089408957A
:10153800EF93E0FF07C0A2EA2AED3FE049EC5FEB3A
:101548000E9497070E94C40A0F90039401FC9058C8
:08155800ECE7F0E00C94B00A8E
:101560009F938F937F936F93FF93EF939B01AC01B6
:101570000E94700BEF91FF910E942F0A2F913F91D3
:081580004F915F910C94700B78
:10158800092E0394000C11F4882352F0BB0F40F489
:10159800BF2B11F460FF04C06F5F7F4F8F4F9F4FC9
:0215A8000895A4
:1015AA0095B1907F95B995B1892B85B985B18F7D14
:1015BA0085B985B1806185B985B18F7E85B9089570
:1015CA009F3F31F0915020F4879577956795B795AD
:0C15DA00880F911D9695879597F908954C
:1015E6008536910538F0873E23E0920728F087EE8E
:0A15F60093E0089584E690E0089564
:1016000080912A0190912B010E94F30A90932D0161
:0A16100080932C010E94B608089593
:10161A0082E00E94D50A82E00E94D50A88E00E94F0
:04162A00D50A089540
:10162E008FEE80937A0010927B0080E480937C0092
:02163E0008950D
:0E16400080E00E94D50A8CE00E94D50A089531
:0E164E0080912A0190912B010E947E08089540
:0E165C005058BB27AA270E9497070C94C40A77
:0E166A000E944D096894B1110C944B0B089529
:0E16780000240A94161617061806090608958F
:0E16860000240A941216130614060506089591
:0E169400E894BB2766277727CB0197F90895C6
:0C16A20097F99F6780E870E060E0089511
:0C16AE00EE0FFF1F0590F491E02D099451
:0A16BA000E94560A08F481E008952A
:0A16C4000E94040AE3950C949C0AAE
:0A16CE000E94560A08F48FEF0895F9
:0816D8000E94BE060C94C40A36
:0816E0000E942D070C94C40ABE
:0616E8009FEF80EC089565
:0416EE000C94000058
:0816F200303030303030303070
:0416FA00D00F494084
:0416FE0089D2DE3A75
:021702000100E4
:0217040064007F
:0117060030B2
:0117070030B1
:011708007F61
:011709007F60
:00000001FF
